{"contracts/core/ReputationRegistry.sol":{"ReputationRegistry":{"abi":[{"inputs":[],"stateMutability":"nonpayable","type":"constructor"},{"inputs":[{"internalType":"address","name":"owner","type":"address"}],"name":"OwnableInvalidOwner","type":"error"},{"inputs":[{"internalType":"address","name":"account","type":"address"}],"name":"OwnableUnauthorizedAccount","type":"error"},{"anonymous":false,"inputs":[{"indexed":true,"internalType":"uint256","name":"escrowId","type":"uint256"},{"indexed":true,"internalType":"address","name":"arbitrator","type":"address"},{"indexed":false,"internalType":"bool","name":"buyerWins","type":"bool"}],"name":"DisputeResolved","type":"event"},{"anonymous":false,"inputs":[{"indexed":true,"internalType":"uint256","name":"escrowId","type":"uint256"},{"indexed":false,"internalType":"uint256","name":"amountReleased","type":"uint256"}],"name":"EscrowCompleted","type":"event"},{"anonymous":false,"inputs":[{"indexed":true,"internalType":"uint256","name":"escrowId","type":"uint256"},{"indexed":true,"internalType":"address","name":"buyer","type":"address"},{"indexed":true,"internalType":"address","name":"seller","type":"address"},{"indexed":false,"internalType":"uint256","name":"amount","type":"uint256"}],"name":"EscrowCreated","type":"event"},{"anonymous":false,"inputs":[{"indexed":true,"internalType":"uint256","name":"escrowId","type":"uint256"},{"indexed":true,"internalType":"address","name":"initiator","type":"address"},{"indexed":false,"internalType":"string","name":"reason","type":"string"}],"name":"EscrowDisputed","type":"event"},{"anonymous":false,"inputs":[{"indexed":true,"internalType":"uint256","name":"escrowId","type":"uint256"},{"indexed":false,"internalType":"uint256","name":"amount","type":"uint256"}],"name":"EscrowFunded","type":"event"},{"anonymous":false,"inputs":[{"indexed":true,"internalType":"address","name":"previousOwner","type":"address"},{"indexed":true,"internalType":"address","name":"newOwner","type":"address"}],"name":"OwnershipTransferred","type":"event"},{"anonymous":false,"inputs":[{"indexed":true,"internalType":"address","name":"user","type":"address"},{"indexed":false,"internalType":"uint256","name":"newReputation","type":"uint256"}],"name":"ReputationUpdated","type":"event"},{"anonymous":false,"inputs":[{"indexed":true,"internalType":"address","name":"user","type":"address"},{"indexed":false,"internalType":"uint256","name":"newScore","type":"uint256"},{"indexed":false,"internalType":"uint256","name":"totalTransactions","type":"uint256"}],"name":"ReputationUpdated","type":"event"},{"anonymous":false,"inputs":[{"indexed":true,"internalType":"address","name":"token","type":"address"},{"indexed":true,"internalType":"uint256","name":"chainId","type":"uint256"},{"indexed":false,"internalType":"bool","name":"active","type":"bool"}],"name":"TokenAdded","type":"event"},{"anonymous":false,"inputs":[{"indexed":true,"internalType":"address","name":"token","type":"address"},{"indexed":false,"internalType":"bool","name":"supported","type":"bool"}],"name":"TokenSupported","type":"event"},{"anonymous":false,"inputs":[{"indexed":true,"internalType":"address","name":"user","type":"address"},{"indexed":false,"internalType":"string","name":"email","type":"string"},{"indexed":false,"internalType":"bool","name":"isVendor","type":"bool"}],"name":"UserRegistered","type":"event"},{"inputs":[{"internalType":"string","name":"","type":"string"}],"name":"emailToAddress","outputs":[{"internalType":"address","name":"","type":"address"}],"stateMutability":"view","type":"function"},{"inputs":[{"internalType":"address","name":"user","type":"address"}],"name":"getReputation","outputs":[{"internalType":"uint256","name":"","type":"uint256"}],"stateMutability":"view","type":"function"},{"inputs":[{"internalType":"address","name":"user","type":"address"}],"name":"getReputationData","outputs":[{"components":[{"internalType":"uint256","name":"score","type":"uint256"},{"internalType":"uint256","name":"totalTransactions","type":"uint256"},{"internalType":"uint256","name":"completedTransactions","type":"uint256"},{"internalType":"uint256","name":"disputes","type":"uint256"},{"internalType":"uint256","name":"totalVolume","type":"uint256"},{"internalType":"uint256","name":"lastUpdated","type":"uint256"},{"internalType":"string","name":"email","type":"string"},{"internalType":"bool","name":"isVendor","type":"bool"}],"internalType":"struct ReputationRegistry.ReputationData","name":"","type":"tuple"}],"stateMutability":"view","type":"function"},{"inputs":[{"internalType":"string","name":"email","type":"string"}],"name":"getUserByEmail","outputs":[{"internalType":"address","name":"","type":"address"}],"stateMutability":"view","type":"function"},{"inputs":[{"internalType":"address","name":"user","type":"address"}],"name":"isUserRegistered","outputs":[{"internalType":"bool","name":"","type":"bool"}],"stateMutability":"view","type":"function"},{"inputs":[{"internalType":"address","name":"user","type":"address"}],"name":"isVendor","outputs":[{"internalType":"bool","name":"","type":"bool"}],"stateMutability":"view","type":"function"},{"inputs":[],"name":"nextTokenId","outputs":[{"internalType":"uint256","name":"","type":"uint256"}],"stateMutability":"view","type":"function"},{"inputs":[],"name":"owner","outputs":[{"internalType":"address","name":"","type":"address"}],"stateMutability":"view","type":"function"},{"inputs":[{"internalType":"address","name":"user","type":"address"},{"internalType":"string","name":"email","type":"string"},{"internalType":"bool","name":"vendorStatus","type":"bool"}],"name":"registerUser","outputs":[],"stateMutability":"nonpayable","type":"function"},{"inputs":[],"name":"renounceOwnership","outputs":[],"stateMutability":"nonpayable","type":"function"},{"inputs":[{"internalType":"address","name":"","type":"address"}],"name":"reputations","outputs":[{"internalType":"uint256","name":"score","type":"uint256"},{"internalType":"uint256","name":"totalTransactions","type":"uint256"},{"internalType":"uint256","name":"completedTransactions","type":"uint256"},{"internalType":"uint256","name":"disputes","type":"uint256"},{"internalType":"uint256","name":"totalVolume","type":"uint256"},{"internalType":"uint256","name":"lastUpdated","type":"uint256"},{"internalType":"string","name":"email","type":"string"},{"internalType":"bool","name":"isVendor","type":"bool"}],"stateMutability":"view","type":"function"},{"inputs":[{"internalType":"address","name":"newOwner","type":"address"}],"name":"transferOwnership","outputs":[],"stateMutability":"nonpayable","type":"function"},{"inputs":[{"internalType":"address","name":"user","type":"address"},{"internalType":"uint256","name":"newReputation","type":"uint256"}],"name":"updateReputation","outputs":[],"stateMutability":"nonpayable","type":"function"},{"inputs":[{"internalType":"address","name":"user","type":"address"},{"internalType":"bool","name":"success","type":"bool"},{"internalType":"uint256","name":"amount","type":"uint256"}],"name":"updateReputation","outputs":[],"stateMutability":"nonpayable","type":"function"},{"inputs":[{"internalType":"address","name":"user","type":"address"},{"internalType":"uint256","name":"totalTransactions","type":"uint256"},{"internalType":"uint256","name":"completedTransactions","type":"uint256"},{"internalType":"uint256","name":"disputes","type":"uint256"},{"internalType":"uint256","name":"totalVolume","type":"uint256"}],"name":"updateTransactionStats","outputs":[],"stateMutability":"nonpayable","type":"function"}],"evm":{"bytecode":{"linkReferences":{},"object":"6080604052600160035534801561001557600080fd5b50338061003c57604051631e4fbdf760e01b81526000600482015260240160405180910390fd5b6100458161004b565b5061009b565b600080546001600160a01b038381166001600160a01b0319831681178455604051919092169283917f8be0079c531659141344cd1fd0a4f28419497f9722a3daafe3b4186f6b6457e09190a35050565b6110b6806100aa6000396000f3fe608060405234801561001057600080fd5b50600436106100f55760003560e01c80637a00d3c411610097578063ee54d54f11610066578063ee54d54f14610268578063f2fde38b14610297578063f5c91a08146102aa578063ff370a40146102bd57600080fd5b80637a00d3c4146101da5780638da5cb5b146101fa5780639c89a0e21461020b578063ea78dcbf1461023457600080fd5b806316596d7f116100d357806316596d7f1461017d57806318046ae114610190578063715018a6146101bb57806375794a3c146101c357600080fd5b806306fa15a7146100fa5780630932321a1461012a578063163f75221461013f575b600080fd5b61010d610108366004610ad5565b6102d0565b604051610121989796959493929190610b3d565b60405180910390f35b61013d610138366004610b8d565b6103a3565b005b61016d61014d366004610ad5565b6001600160a01b0316600090815260016020526040902060050154151590565b6040519015158152602001610121565b61013d61018b366004610c28565b61042d565b6101a361019e366004610c8d565b610611565b6040516001600160a01b039091168152602001610121565b61013d610647565b6101cc60035481565b604051908152602001610121565b6101ed6101e8366004610ad5565b61065b565b6040516101219190610ccf565b6000546001600160a01b03166101a3565b6101cc610219366004610ad5565b6001600160a01b031660009081526001602052604090205490565b6101a3610242366004610d56565b80516020818301810180516002825292820191909301209152546001600160a01b031681565b61016d610276366004610ad5565b6001600160a01b031660009081526001602052604090206007015460ff1690565b61013d6102a5366004610ad5565b6107bb565b61013d6102b8366004610e07565b6107f9565b61013d6102cb366004610e31565b6108eb565b600160205280600052604060002060009150905080600001549080600101549080600201549080600301549080600401549080600501549080600601805461031790610e6d565b80601f016020809104026020016040519081016040528092919081815260200182805461034390610e6d565b80156103905780601f1061036557610100808354040283529160200191610390565b820191906000526020600020905b81548152906001019060200180831161037357829003601f168201915b5050506007909301549192505060ff1688565b6103ab610a3c565b6001600160a01b0385166000908152600160205260409020600501546103ec5760405162461bcd60e51b81526004016103e390610ea7565b60405180910390fd5b6001600160a01b0390941660009081526001602081905260409091209081019390935560028301919091556003820155600481019190915542600590910155565b610435610a3c565b6001600160a01b0384166000908152600160205260409020600501541561049e5760405162461bcd60e51b815260206004820152601760248201527f5573657220616c7265616479207265676973746572656400000000000000000060448201526064016103e3565b6040518061010001604052806101f481526020016000815260200160008152602001600081526020016000815260200142815260200184848080601f01602080910402602001604051908101604052809392919081815260200183838082843760009201829052509385525050508315156020928301526001600160a01b038716815260018083526040918290208451815592840151908301558201516002820155606082015160038201556080820151600482015560a0820151600582015560c082015160068201906105729082610f23565b5060e091909101516007909101805460ff191691151591909117905560405184906002906105a39086908690610fe3565b90815260405190819003602001812080546001600160a01b039384166001600160a01b0319909116179055908516907f0b2d2fe99b0620e0994de6f522eb19dcc5b5fd39b27be67cea0547c4ed9dbdfc9061060390869086908690610ff3565b60405180910390a250505050565b600060028383604051610625929190610fe3565b908152604051908190036020019020546001600160a01b031690505b92915050565b61064f610a3c565b6106596000610a69565b565b6106a5604051806101000160405280600081526020016000815260200160008152602001600081526020016000815260200160008152602001606081526020016000151581525090565b60016000836001600160a01b03166001600160a01b031681526020019081526020016000206040518061010001604052908160008201548152602001600182015481526020016002820154815260200160038201548152602001600482015481526020016005820154815260200160068201805461072290610e6d565b80601f016020809104026020016040519081016040528092919081815260200182805461074e90610e6d565b801561079b5780601f106107705761010080835404028352916020019161079b565b820191906000526020600020905b81548152906001019060200180831161077e57829003601f168201915b50505091835250506007919091015460ff16151560209091015292915050565b6107c3610a3c565b6001600160a01b0381166107ed57604051631e4fbdf760e01b8152600060048201526024016103e3565b6107f681610a69565b50565b610801610a3c565b6001600160a01b0382166000908152600160205260409020600501546108395760405162461bcd60e51b81526004016103e390610ea7565b6103e881111561088b5760405162461bcd60e51b815260206004820152601860248201527f496e76616c69642072657075746174696f6e2073636f7265000000000000000060448201526064016103e3565b6001600160a01b0382166000818152600160205260409081902083815542600590910155517ffc577563f1b9a0461e24abef1e1fcc0d33d3d881f20b5df6dda59de4aae2c821906108df9084815260200190565b60405180910390a25050565b6001600160a01b0383166000908152600160205260409020600501546109235760405162461bcd60e51b81526004016103e390610ea7565b6001600160a01b038316600090815260016020819052604082209081018054919261094d83611041565b919050555081816004016000828254610966919061105a565b909155505082156109ba5760028101805490600061098383611041565b909155505080546103e811156109b55780546103de116109a5576103e86109b2565b80546109b290600a61105a565b81555b6109f9565b6003810180549060006109cc83611041565b90915550508054156109f9578054600a106109e85760006109f6565b80546109f690600a9061106d565b81555b42600582015580546040519081526001600160a01b038516907ffc577563f1b9a0461e24abef1e1fcc0d33d3d881f20b5df6dda59de4aae2c82190602001610603565b6000546001600160a01b031633146106595760405163118cdaa760e01b81523360048201526024016103e3565b600080546001600160a01b038381166001600160a01b0319831681178455604051919092169283917f8be0079c531659141344cd1fd0a4f28419497f9722a3daafe3b4186f6b6457e09190a35050565b80356001600160a01b0381168114610ad057600080fd5b919050565b600060208284031215610ae757600080fd5b610af082610ab9565b9392505050565b6000815180845260005b81811015610b1d57602081850181015186830182015201610b01565b506000602082860101526020601f19601f83011685010191505092915050565b60006101008a83528960208401528860408401528760608401528660808401528560a08401528060c0840152610b7581840186610af7565b91505082151560e08301529998505050505050505050565b600080600080600060a08688031215610ba557600080fd5b610bae86610ab9565b97602087013597506040870135966060810135965060800135945092505050565b60008083601f840112610be157600080fd5b50813567ffffffffffffffff811115610bf957600080fd5b602083019150836020828501011115610c1157600080fd5b9250929050565b80358015158114610ad057600080fd5b60008060008060608587031215610c3e57600080fd5b610c4785610ab9565b9350602085013567ffffffffffffffff811115610c6357600080fd5b610c6f87828801610bcf565b9094509250610c82905060408601610c18565b905092959194509250565b60008060208385031215610ca057600080fd5b823567ffffffffffffffff811115610cb757600080fd5b610cc385828601610bcf565b90969095509350505050565b6020815281516020820152602082015160408201526040820151606082015260608201516080820152608082015160a082015260a082015160c0820152600060c08301516101008060e0850152610d2a610120850183610af7565b60e0959095015115159301929092525090919050565b634e487b7160e01b600052604160045260246000fd5b600060208284031215610d6857600080fd5b813567ffffffffffffffff80821115610d8057600080fd5b818401915084601f830112610d9457600080fd5b813581811115610da657610da6610d40565b604051601f8201601f19908116603f01168101908382118183101715610dce57610dce610d40565b81604052828152876020848701011115610de757600080fd5b826020860160208301376000928101602001929092525095945050505050565b60008060408385031215610e1a57600080fd5b610e2383610ab9565b946020939093013593505050565b600080600060608486031215610e4657600080fd5b610e4f84610ab9565b9250610e5d60208501610c18565b9150604084013590509250925092565b600181811c90821680610e8157607f821691505b602082108103610ea157634e487b7160e01b600052602260045260246000fd5b50919050565b602080825260139082015272155cd95c881b9bdd081c9959da5cdd195c9959606a1b604082015260600190565b601f821115610f1e57600081815260208120601f850160051c81016020861015610efb5750805b601f850160051c820191505b81811015610f1a57828155600101610f07565b5050505b505050565b815167ffffffffffffffff811115610f3d57610f3d610d40565b610f5181610f4b8454610e6d565b84610ed4565b602080601f831160018114610f865760008415610f6e5750858301515b600019600386901b1c1916600185901b178555610f1a565b600085815260208120601f198616915b82811015610fb557888601518255948401946001909101908401610f96565b5085821015610fd35787850151600019600388901b60f8161c191681555b5050505050600190811b01905550565b8183823760009101908152919050565b6040815282604082015282846060830137600060608483018101919091529115156020820152601f909201601f191690910101919050565b634e487b7160e01b600052601160045260246000fd5b6000600182016110535761105361102b565b5060010190565b808201808211156106415761064161102b565b818103818111156106415761064161102b56fea264697066735822122020090cb9febf5862ad93bcc3a28d0c3c383cbc7453415ece670cae40e662526664736f6c63430008140033","opcodes":"PUSH1 0x80 PUSH1 0x40 MSTORE PUSH1 0x1 PUSH1 0x3 SSTORE CALLVALUE DUP1 ISZERO PUSH2 0x15 JUMPI PUSH1 0x0 DUP1 REVERT JUMPDEST POP CALLER DUP1 PUSH2 0x3C JUMPI PUSH1 0x40 MLOAD PUSH4 0x1E4FBDF7 PUSH1 0xE0 SHL DUP2 MSTORE PUSH1 0x0 PUSH1 0x4 DUP3 ADD MSTORE PUSH1 0x24 ADD PUSH1 0x40 MLOAD DUP1 SWAP2 SUB SWAP1 REVERT JUMPDEST PUSH2 0x45 DUP2 PUSH2 0x4B JUMP JUMPDEST POP PUSH2 0x9B JUMP JUMPDEST PUSH1 0x0 DUP1 SLOAD PUSH1 0x1 PUSH1 0x1 PUSH1 0xA0 SHL SUB DUP4 DUP2 AND PUSH1 0x1 PUSH1 0x1 PUSH1 0xA0 SHL SUB NOT DUP4 AND DUP2 OR DUP5 SSTORE PUSH1 0x40 MLOAD SWAP2 SWAP1 SWAP3 AND SWAP3 DUP4 SWAP2 PUSH32 0x8BE0079C531659141344CD1FD0A4F28419497F9722A3DAAFE3B4186F6B6457E0 SWAP2 SWAP1 LOG3 POP POP JUMP JUMPDEST PUSH2 0x10B6 DUP1 PUSH2 0xAA PUSH1 0x0 CODECOPY PUSH1 0x0 RETURN INVALID PUSH1 0x80 PUSH1 0x40 MSTORE CALLVALUE DUP1 ISZERO PUSH2 0x10 JUMPI PUSH1 0x0 DUP1 REVERT JUMPDEST POP PUSH1 0x4 CALLDATASIZE LT PUSH2 0xF5 JUMPI PUSH1 0x0 CALLDATALOAD PUSH1 0xE0 SHR DUP1 PUSH4 0x7A00D3C4 GT PUSH2 0x97 JUMPI DUP1 PUSH4 0xEE54D54F GT PUSH2 0x66 JUMPI DUP1 PUSH4 0xEE54D54F EQ PUSH2 0x268 JUMPI DUP1 PUSH4 0xF2FDE38B EQ PUSH2 0x297 JUMPI DUP1 PUSH4 0xF5C91A08 EQ PUSH2 0x2AA JUMPI DUP1 PUSH4 0xFF370A40 EQ PUSH2 0x2BD JUMPI PUSH1 0x0 DUP1 REVERT JUMPDEST DUP1 PUSH4 0x7A00D3C4 EQ PUSH2 0x1DA JUMPI DUP1 PUSH4 0x8DA5CB5B EQ PUSH2 0x1FA JUMPI DUP1 PUSH4 0x9C89A0E2 EQ PUSH2 0x20B JUMPI DUP1 PUSH4 0xEA78DCBF EQ PUSH2 0x234 JUMPI PUSH1 0x0 DUP1 REVERT JUMPDEST DUP1 PUSH4 0x16596D7F GT PUSH2 0xD3 JUMPI DUP1 PUSH4 0x16596D7F EQ PUSH2 0x17D JUMPI DUP1 PUSH4 0x18046AE1 EQ PUSH2 0x190 JUMPI DUP1 PUSH4 0x715018A6 EQ PUSH2 0x1BB JUMPI DUP1 PUSH4 0x75794A3C EQ PUSH2 0x1C3 JUMPI PUSH1 0x0 DUP1 REVERT JUMPDEST DUP1 PUSH4 0x6FA15A7 EQ PUSH2 0xFA JUMPI DUP1 PUSH4 0x932321A EQ PUSH2 0x12A JUMPI DUP1 PUSH4 0x163F7522 EQ PUSH2 0x13F JUMPI JUMPDEST PUSH1 0x0 DUP1 REVERT JUMPDEST PUSH2 0x10D PUSH2 0x108 CALLDATASIZE PUSH1 0x4 PUSH2 0xAD5 JUMP JUMPDEST PUSH2 0x2D0 JUMP JUMPDEST PUSH1 0x40 MLOAD PUSH2 0x121 SWAP9 SWAP8 SWAP7 SWAP6 SWAP5 SWAP4 SWAP3 SWAP2 SWAP1 PUSH2 0xB3D JUMP JUMPDEST PUSH1 0x40 MLOAD DUP1 SWAP2 SUB SWAP1 RETURN JUMPDEST PUSH2 0x13D PUSH2 0x138 CALLDATASIZE PUSH1 0x4 PUSH2 0xB8D JUMP JUMPDEST PUSH2 0x3A3 JUMP JUMPDEST STOP JUMPDEST PUSH2 0x16D PUSH2 0x14D CALLDATASIZE PUSH1 0x4 PUSH2 0xAD5 JUMP JUMPDEST PUSH1 0x1 PUSH1 0x1 PUSH1 0xA0 SHL SUB AND PUSH1 0x0 SWAP1 DUP2 MSTORE PUSH1 0x1 PUSH1 0x20 MSTORE PUSH1 0x40 SWAP1 KECCAK256 PUSH1 0x5 ADD SLOAD ISZERO ISZERO SWAP1 JUMP JUMPDEST PUSH1 0x40 MLOAD SWAP1 ISZERO ISZERO DUP2 MSTORE PUSH1 0x20 ADD PUSH2 0x121 JUMP JUMPDEST PUSH2 0x13D PUSH2 0x18B CALLDATASIZE PUSH1 0x4 PUSH2 0xC28 JUMP JUMPDEST PUSH2 0x42D JUMP JUMPDEST PUSH2 0x1A3 PUSH2 0x19E CALLDATASIZE PUSH1 0x4 PUSH2 0xC8D JUMP JUMPDEST PUSH2 0x611 JUMP JUMPDEST PUSH1 0x40 MLOAD PUSH1 0x1 PUSH1 0x1 PUSH1 0xA0 SHL SUB SWAP1 SWAP2 AND DUP2 MSTORE PUSH1 0x20 ADD PUSH2 0x121 JUMP JUMPDEST PUSH2 0x13D PUSH2 0x647 JUMP JUMPDEST PUSH2 0x1CC PUSH1 0x3 SLOAD DUP2 JUMP JUMPDEST PUSH1 0x40 MLOAD SWAP1 DUP2 MSTORE PUSH1 0x20 ADD PUSH2 0x121 JUMP JUMPDEST PUSH2 0x1ED PUSH2 0x1E8 CALLDATASIZE PUSH1 0x4 PUSH2 0xAD5 JUMP JUMPDEST PUSH2 0x65B JUMP JUMPDEST PUSH1 0x40 MLOAD PUSH2 0x121 SWAP2 SWAP1 PUSH2 0xCCF JUMP JUMPDEST PUSH1 0x0 SLOAD PUSH1 0x1 PUSH1 0x1 PUSH1 0xA0 SHL SUB AND PUSH2 0x1A3 JUMP JUMPDEST PUSH2 0x1CC PUSH2 0x219 CALLDATASIZE PUSH1 0x4 PUSH2 0xAD5 JUMP JUMPDEST PUSH1 0x1 PUSH1 0x1 PUSH1 0xA0 SHL SUB AND PUSH1 0x0 SWAP1 DUP2 MSTORE PUSH1 0x1 PUSH1 0x20 MSTORE PUSH1 0x40 SWAP1 KECCAK256 SLOAD SWAP1 JUMP JUMPDEST PUSH2 0x1A3 PUSH2 0x242 CALLDATASIZE PUSH1 0x4 PUSH2 0xD56 JUMP JUMPDEST DUP1 MLOAD PUSH1 0x20 DUP2 DUP4 ADD DUP2 ADD DUP1 MLOAD PUSH1 0x2 DUP3 MSTORE SWAP3 DUP3 ADD SWAP2 SWAP1 SWAP4 ADD KECCAK256 SWAP2 MSTORE SLOAD PUSH1 0x1 PUSH1 0x1 PUSH1 0xA0 SHL SUB AND DUP2 JUMP JUMPDEST PUSH2 0x16D PUSH2 0x276 CALLDATASIZE PUSH1 0x4 PUSH2 0xAD5 JUMP JUMPDEST PUSH1 0x1 PUSH1 0x1 PUSH1 0xA0 SHL SUB AND PUSH1 0x0 SWAP1 DUP2 MSTORE PUSH1 0x1 PUSH1 0x20 MSTORE PUSH1 0x40 SWAP1 KECCAK256 PUSH1 0x7 ADD SLOAD PUSH1 0xFF AND SWAP1 JUMP JUMPDEST PUSH2 0x13D PUSH2 0x2A5 CALLDATASIZE PUSH1 0x4 PUSH2 0xAD5 JUMP JUMPDEST PUSH2 0x7BB JUMP JUMPDEST PUSH2 0x13D PUSH2 0x2B8 CALLDATASIZE PUSH1 0x4 PUSH2 0xE07 JUMP JUMPDEST PUSH2 0x7F9 JUMP JUMPDEST PUSH2 0x13D PUSH2 0x2CB CALLDATASIZE PUSH1 0x4 PUSH2 0xE31 JUMP JUMPDEST PUSH2 0x8EB JUMP JUMPDEST PUSH1 0x1 PUSH1 0x20 MSTORE DUP1 PUSH1 0x0 MSTORE PUSH1 0x40 PUSH1 0x0 KECCAK256 PUSH1 0x0 SWAP2 POP SWAP1 POP DUP1 PUSH1 0x0 ADD SLOAD SWAP1 DUP1 PUSH1 0x1 ADD SLOAD SWAP1 DUP1 PUSH1 0x2 ADD SLOAD SWAP1 DUP1 PUSH1 0x3 ADD SLOAD SWAP1 DUP1 PUSH1 0x4 ADD SLOAD SWAP1 DUP1 PUSH1 0x5 ADD SLOAD SWAP1 DUP1 PUSH1 0x6 ADD DUP1 SLOAD PUSH2 0x317 SWAP1 PUSH2 0xE6D JUMP JUMPDEST DUP1 PUSH1 0x1F ADD PUSH1 0x20 DUP1 SWAP2 DIV MUL PUSH1 0x20 ADD PUSH1 0x40 MLOAD SWAP1 DUP2 ADD PUSH1 0x40 MSTORE DUP1 SWAP3 SWAP2 SWAP1 DUP2 DUP2 MSTORE PUSH1 0x20 ADD DUP3 DUP1 SLOAD PUSH2 0x343 SWAP1 PUSH2 0xE6D JUMP JUMPDEST DUP1 ISZERO PUSH2 0x390 JUMPI DUP1 PUSH1 0x1F LT PUSH2 0x365 JUMPI PUSH2 0x100 DUP1 DUP4 SLOAD DIV MUL DUP4 MSTORE SWAP2 PUSH1 0x20 ADD SWAP2 PUSH2 0x390 JUMP JUMPDEST DUP3 ADD SWAP2 SWAP1 PUSH1 0x0 MSTORE PUSH1 0x20 PUSH1 0x0 KECCAK256 SWAP1 JUMPDEST DUP2 SLOAD DUP2 MSTORE SWAP1 PUSH1 0x1 ADD SWAP1 PUSH1 0x20 ADD DUP1 DUP4 GT PUSH2 0x373 JUMPI DUP3 SWAP1 SUB PUSH1 0x1F AND DUP3 ADD SWAP2 JUMPDEST POP POP POP PUSH1 0x7 SWAP1 SWAP4 ADD SLOAD SWAP2 SWAP3 POP POP PUSH1 0xFF AND DUP9 JUMP JUMPDEST PUSH2 0x3AB PUSH2 0xA3C JUMP JUMPDEST PUSH1 0x1 PUSH1 0x1 PUSH1 0xA0 SHL SUB DUP6 AND PUSH1 0x0 SWAP1 DUP2 MSTORE PUSH1 0x1 PUSH1 0x20 MSTORE PUSH1 0x40 SWAP1 KECCAK256 PUSH1 0x5 ADD SLOAD PUSH2 0x3EC JUMPI PUSH1 0x40 MLOAD PUSH3 0x461BCD PUSH1 0xE5 SHL DUP2 MSTORE PUSH1 0x4 ADD PUSH2 0x3E3 SWAP1 PUSH2 0xEA7 JUMP JUMPDEST PUSH1 0x40 MLOAD DUP1 SWAP2 SUB SWAP1 REVERT JUMPDEST PUSH1 0x1 PUSH1 0x1 PUSH1 0xA0 SHL SUB SWAP1 SWAP5 AND PUSH1 0x0 SWAP1 DUP2 MSTORE PUSH1 0x1 PUSH1 0x20 DUP2 SWAP1 MSTORE PUSH1 0x40 SWAP1 SWAP2 KECCAK256 SWAP1 DUP2 ADD SWAP4 SWAP1 SWAP4 SSTORE PUSH1 0x2 DUP4 ADD SWAP2 SWAP1 SWAP2 SSTORE PUSH1 0x3 DUP3 ADD SSTORE PUSH1 0x4 DUP2 ADD SWAP2 SWAP1 SWAP2 SSTORE TIMESTAMP PUSH1 0x5 SWAP1 SWAP2 ADD SSTORE JUMP JUMPDEST PUSH2 0x435 PUSH2 0xA3C JUMP JUMPDEST PUSH1 0x1 PUSH1 0x1 PUSH1 0xA0 SHL SUB DUP5 AND PUSH1 0x0 SWAP1 DUP2 MSTORE PUSH1 0x1 PUSH1 0x20 MSTORE PUSH1 0x40 SWAP1 KECCAK256 PUSH1 0x5 ADD SLOAD ISZERO PUSH2 0x49E JUMPI PUSH1 0x40 MLOAD PUSH3 0x461BCD PUSH1 0xE5 SHL DUP2 MSTORE PUSH1 0x20 PUSH1 0x4 DUP3 ADD MSTORE PUSH1 0x17 PUSH1 0x24 DUP3 ADD MSTORE PUSH32 0x5573657220616C72656164792072656769737465726564000000000000000000 PUSH1 0x44 DUP3 ADD MSTORE PUSH1 0x64 ADD PUSH2 0x3E3 JUMP JUMPDEST PUSH1 0x40 MLOAD DUP1 PUSH2 0x100 ADD PUSH1 0x40 MSTORE DUP1 PUSH2 0x1F4 DUP2 MSTORE PUSH1 0x20 ADD PUSH1 0x0 DUP2 MSTORE PUSH1 0x20 ADD PUSH1 0x0 DUP2 MSTORE PUSH1 0x20 ADD PUSH1 0x0 DUP2 MSTORE PUSH1 0x20 ADD PUSH1 0x0 DUP2 MSTORE PUSH1 0x20 ADD TIMESTAMP DUP2 MSTORE PUSH1 0x20 ADD DUP5 DUP5 DUP1 DUP1 PUSH1 0x1F ADD PUSH1 0x20 DUP1 SWAP2 DIV MUL PUSH1 0x20 ADD PUSH1 0x40 MLOAD SWAP1 DUP2 ADD PUSH1 0x40 MSTORE DUP1 SWAP4 SWAP3 SWAP2 SWAP1 DUP2 DUP2 MSTORE PUSH1 0x20 ADD DUP4 DUP4 DUP1 DUP3 DUP5 CALLDATACOPY PUSH1 0x0 SWAP3 ADD DUP3 SWAP1 MSTORE POP SWAP4 DUP6 MSTORE POP POP POP DUP4 ISZERO ISZERO PUSH1 0x20 SWAP3 DUP4 ADD MSTORE PUSH1 0x1 PUSH1 0x1 PUSH1 0xA0 SHL SUB DUP8 AND DUP2 MSTORE PUSH1 0x1 DUP1 DUP4 MSTORE PUSH1 0x40 SWAP2 DUP3 SWAP1 KECCAK256 DUP5 MLOAD DUP2 SSTORE SWAP3 DUP5 ADD MLOAD SWAP1 DUP4 ADD SSTORE DUP3 ADD MLOAD PUSH1 0x2 DUP3 ADD SSTORE PUSH1 0x60 DUP3 ADD MLOAD PUSH1 0x3 DUP3 ADD SSTORE PUSH1 0x80 DUP3 ADD MLOAD PUSH1 0x4 DUP3 ADD SSTORE PUSH1 0xA0 DUP3 ADD MLOAD PUSH1 0x5 DUP3 ADD SSTORE PUSH1 0xC0 DUP3 ADD MLOAD PUSH1 0x6 DUP3 ADD SWAP1 PUSH2 0x572 SWAP1 DUP3 PUSH2 0xF23 JUMP JUMPDEST POP PUSH1 0xE0 SWAP2 SWAP1 SWAP2 ADD MLOAD PUSH1 0x7 SWAP1 SWAP2 ADD DUP1 SLOAD PUSH1 0xFF NOT AND SWAP2 ISZERO ISZERO SWAP2 SWAP1 SWAP2 OR SWAP1 SSTORE PUSH1 0x40 MLOAD DUP5 SWAP1 PUSH1 0x2 SWAP1 PUSH2 0x5A3 SWAP1 DUP7 SWAP1 DUP7 SWAP1 PUSH2 0xFE3 JUMP JUMPDEST SWAP1 DUP2 MSTORE PUSH1 0x40 MLOAD SWAP1 DUP2 SWAP1 SUB PUSH1 0x20 ADD DUP2 KECCAK256 DUP1 SLOAD PUSH1 0x1 PUSH1 0x1 PUSH1 0xA0 SHL SUB SWAP4 DUP5 AND PUSH1 0x1 PUSH1 0x1 PUSH1 0xA0 SHL SUB NOT SWAP1 SWAP2 AND OR SWAP1 SSTORE SWAP1 DUP6 AND SWAP1 PUSH32 0xB2D2FE99B0620E0994DE6F522EB19DCC5B5FD39B27BE67CEA0547C4ED9DBDFC SWAP1 PUSH2 0x603 SWAP1 DUP7 SWAP1 DUP7 SWAP1 DUP7 SWAP1 PUSH2 0xFF3 JUMP JUMPDEST PUSH1 0x40 MLOAD DUP1 SWAP2 SUB SWAP1 LOG2 POP POP POP POP JUMP JUMPDEST PUSH1 0x0 PUSH1 0x2 DUP4 DUP4 PUSH1 0x40 MLOAD PUSH2 0x625 SWAP3 SWAP2 SWAP1 PUSH2 0xFE3 JUMP JUMPDEST SWAP1 DUP2 MSTORE PUSH1 0x40 MLOAD SWAP1 DUP2 SWAP1 SUB PUSH1 0x20 ADD SWAP1 KECCAK256 SLOAD PUSH1 0x1 PUSH1 0x1 PUSH1 0xA0 SHL SUB AND SWAP1 POP JUMPDEST SWAP3 SWAP2 POP POP JUMP JUMPDEST PUSH2 0x64F PUSH2 0xA3C JUMP JUMPDEST PUSH2 0x659 PUSH1 0x0 PUSH2 0xA69 JUMP JUMPDEST JUMP JUMPDEST PUSH2 0x6A5 PUSH1 0x40 MLOAD DUP1 PUSH2 0x100 ADD PUSH1 0x40 MSTORE DUP1 PUSH1 0x0 DUP2 MSTORE PUSH1 0x20 ADD PUSH1 0x0 DUP2 MSTORE PUSH1 0x20 ADD PUSH1 0x0 DUP2 MSTORE PUSH1 0x20 ADD PUSH1 0x0 DUP2 MSTORE PUSH1 0x20 ADD PUSH1 0x0 DUP2 MSTORE PUSH1 0x20 ADD PUSH1 0x0 DUP2 MSTORE PUSH1 0x20 ADD PUSH1 0x60 DUP2 MSTORE PUSH1 0x20 ADD PUSH1 0x0 ISZERO ISZERO DUP2 MSTORE POP SWAP1 JUMP JUMPDEST PUSH1 0x1 PUSH1 0x0 DUP4 PUSH1 0x1 PUSH1 0x1 PUSH1 0xA0 SHL SUB AND PUSH1 0x1 PUSH1 0x1 PUSH1 0xA0 SHL SUB AND DUP2 MSTORE PUSH1 0x20 ADD SWAP1 DUP2 MSTORE PUSH1 0x20 ADD PUSH1 0x0 KECCAK256 PUSH1 0x40 MLOAD DUP1 PUSH2 0x100 ADD PUSH1 0x40 MSTORE SWAP1 DUP2 PUSH1 0x0 DUP3 ADD SLOAD DUP2 MSTORE PUSH1 0x20 ADD PUSH1 0x1 DUP3 ADD SLOAD DUP2 MSTORE PUSH1 0x20 ADD PUSH1 0x2 DUP3 ADD SLOAD DUP2 MSTORE PUSH1 0x20 ADD PUSH1 0x3 DUP3 ADD SLOAD DUP2 MSTORE PUSH1 0x20 ADD PUSH1 0x4 DUP3 ADD SLOAD DUP2 MSTORE PUSH1 0x20 ADD PUSH1 0x5 DUP3 ADD SLOAD DUP2 MSTORE PUSH1 0x20 ADD PUSH1 0x6 DUP3 ADD DUP1 SLOAD PUSH2 0x722 SWAP1 PUSH2 0xE6D JUMP JUMPDEST DUP1 PUSH1 0x1F ADD PUSH1 0x20 DUP1 SWAP2 DIV MUL PUSH1 0x20 ADD PUSH1 0x40 MLOAD SWAP1 DUP2 ADD PUSH1 0x40 MSTORE DUP1 SWAP3 SWAP2 SWAP1 DUP2 DUP2 MSTORE PUSH1 0x20 ADD DUP3 DUP1 SLOAD PUSH2 0x74E SWAP1 PUSH2 0xE6D JUMP JUMPDEST DUP1 ISZERO PUSH2 0x79B JUMPI DUP1 PUSH1 0x1F LT PUSH2 0x770 JUMPI PUSH2 0x100 DUP1 DUP4 SLOAD DIV MUL DUP4 MSTORE SWAP2 PUSH1 0x20 ADD SWAP2 PUSH2 0x79B JUMP JUMPDEST DUP3 ADD SWAP2 SWAP1 PUSH1 0x0 MSTORE PUSH1 0x20 PUSH1 0x0 KECCAK256 SWAP1 JUMPDEST DUP2 SLOAD DUP2 MSTORE SWAP1 PUSH1 0x1 ADD SWAP1 PUSH1 0x20 ADD DUP1 DUP4 GT PUSH2 0x77E JUMPI DUP3 SWAP1 SUB PUSH1 0x1F AND DUP3 ADD SWAP2 JUMPDEST POP POP POP SWAP2 DUP4 MSTORE POP POP PUSH1 0x7 SWAP2 SWAP1 SWAP2 ADD SLOAD PUSH1 0xFF AND ISZERO ISZERO PUSH1 0x20 SWAP1 SWAP2 ADD MSTORE SWAP3 SWAP2 POP POP JUMP JUMPDEST PUSH2 0x7C3 PUSH2 0xA3C JUMP JUMPDEST PUSH1 0x1 PUSH1 0x1 PUSH1 0xA0 SHL SUB DUP2 AND PUSH2 0x7ED JUMPI PUSH1 0x40 MLOAD PUSH4 0x1E4FBDF7 PUSH1 0xE0 SHL DUP2 MSTORE PUSH1 0x0 PUSH1 0x4 DUP3 ADD MSTORE PUSH1 0x24 ADD PUSH2 0x3E3 JUMP JUMPDEST PUSH2 0x7F6 DUP2 PUSH2 0xA69 JUMP JUMPDEST POP JUMP JUMPDEST PUSH2 0x801 PUSH2 0xA3C JUMP JUMPDEST PUSH1 0x1 PUSH1 0x1 PUSH1 0xA0 SHL SUB DUP3 AND PUSH1 0x0 SWAP1 DUP2 MSTORE PUSH1 0x1 PUSH1 0x20 MSTORE PUSH1 0x40 SWAP1 KECCAK256 PUSH1 0x5 ADD SLOAD PUSH2 0x839 JUMPI PUSH1 0x40 MLOAD PUSH3 0x461BCD PUSH1 0xE5 SHL DUP2 MSTORE PUSH1 0x4 ADD PUSH2 0x3E3 SWAP1 PUSH2 0xEA7 JUMP JUMPDEST PUSH2 0x3E8 DUP2 GT ISZERO PUSH2 0x88B JUMPI PUSH1 0x40 MLOAD PUSH3 0x461BCD PUSH1 0xE5 SHL DUP2 MSTORE PUSH1 0x20 PUSH1 0x4 DUP3 ADD MSTORE PUSH1 0x18 PUSH1 0x24 DUP3 ADD MSTORE PUSH32 0x496E76616C69642072657075746174696F6E2073636F72650000000000000000 PUSH1 0x44 DUP3 ADD MSTORE PUSH1 0x64 ADD PUSH2 0x3E3 JUMP JUMPDEST PUSH1 0x1 PUSH1 0x1 PUSH1 0xA0 SHL SUB DUP3 AND PUSH1 0x0 DUP2 DUP2 MSTORE PUSH1 0x1 PUSH1 0x20 MSTORE PUSH1 0x40 SWAP1 DUP2 SWAP1 KECCAK256 DUP4 DUP2 SSTORE TIMESTAMP PUSH1 0x5 SWAP1 SWAP2 ADD SSTORE MLOAD PUSH32 0xFC577563F1B9A0461E24ABEF1E1FCC0D33D3D881F20B5DF6DDA59DE4AAE2C821 SWAP1 PUSH2 0x8DF SWAP1 DUP5 DUP2 MSTORE PUSH1 0x20 ADD SWAP1 JUMP JUMPDEST PUSH1 0x40 MLOAD DUP1 SWAP2 SUB SWAP1 LOG2 POP POP JUMP JUMPDEST PUSH1 0x1 PUSH1 0x1 PUSH1 0xA0 SHL SUB DUP4 AND PUSH1 0x0 SWAP1 DUP2 MSTORE PUSH1 0x1 PUSH1 0x20 MSTORE PUSH1 0x40 SWAP1 KECCAK256 PUSH1 0x5 ADD SLOAD PUSH2 0x923 JUMPI PUSH1 0x40 MLOAD PUSH3 0x461BCD PUSH1 0xE5 SHL DUP2 MSTORE PUSH1 0x4 ADD PUSH2 0x3E3 SWAP1 PUSH2 0xEA7 JUMP JUMPDEST PUSH1 0x1 PUSH1 0x1 PUSH1 0xA0 SHL SUB DUP4 AND PUSH1 0x0 SWAP1 DUP2 MSTORE PUSH1 0x1 PUSH1 0x20 DUP2 SWAP1 MSTORE PUSH1 0x40 DUP3 KECCAK256 SWAP1 DUP2 ADD DUP1 SLOAD SWAP2 SWAP3 PUSH2 0x94D DUP4 PUSH2 0x1041 JUMP JUMPDEST SWAP2 SWAP1 POP SSTORE POP DUP2 DUP2 PUSH1 0x4 ADD PUSH1 0x0 DUP3 DUP3 SLOAD PUSH2 0x966 SWAP2 SWAP1 PUSH2 0x105A JUMP JUMPDEST SWAP1 SWAP2 SSTORE POP POP DUP3 ISZERO PUSH2 0x9BA JUMPI PUSH1 0x2 DUP2 ADD DUP1 SLOAD SWAP1 PUSH1 0x0 PUSH2 0x983 DUP4 PUSH2 0x1041 JUMP JUMPDEST SWAP1 SWAP2 SSTORE POP POP DUP1 SLOAD PUSH2 0x3E8 GT ISZERO PUSH2 0x9B5 JUMPI DUP1 SLOAD PUSH2 0x3DE GT PUSH2 0x9A5 JUMPI PUSH2 0x3E8 PUSH2 0x9B2 JUMP JUMPDEST DUP1 SLOAD PUSH2 0x9B2 SWAP1 PUSH1 0xA PUSH2 0x105A JUMP JUMPDEST DUP2 SSTORE JUMPDEST PUSH2 0x9F9 JUMP JUMPDEST PUSH1 0x3 DUP2 ADD DUP1 SLOAD SWAP1 PUSH1 0x0 PUSH2 0x9CC DUP4 PUSH2 0x1041 JUMP JUMPDEST SWAP1 SWAP2 SSTORE POP POP DUP1 SLOAD ISZERO PUSH2 0x9F9 JUMPI DUP1 SLOAD PUSH1 0xA LT PUSH2 0x9E8 JUMPI PUSH1 0x0 PUSH2 0x9F6 JUMP JUMPDEST DUP1 SLOAD PUSH2 0x9F6 SWAP1 PUSH1 0xA SWAP1 PUSH2 0x106D JUMP JUMPDEST DUP2 SSTORE JUMPDEST TIMESTAMP PUSH1 0x5 DUP3 ADD SSTORE DUP1 SLOAD PUSH1 0x40 MLOAD SWAP1 DUP2 MSTORE PUSH1 0x1 PUSH1 0x1 PUSH1 0xA0 SHL SUB DUP6 AND SWAP1 PUSH32 0xFC577563F1B9A0461E24ABEF1E1FCC0D33D3D881F20B5DF6DDA59DE4AAE2C821 SWAP1 PUSH1 0x20 ADD PUSH2 0x603 JUMP JUMPDEST PUSH1 0x0 SLOAD PUSH1 0x1 PUSH1 0x1 PUSH1 0xA0 SHL SUB AND CALLER EQ PUSH2 0x659 JUMPI PUSH1 0x40 MLOAD PUSH4 0x118CDAA7 PUSH1 0xE0 SHL DUP2 MSTORE CALLER PUSH1 0x4 DUP3 ADD MSTORE PUSH1 0x24 ADD PUSH2 0x3E3 JUMP JUMPDEST PUSH1 0x0 DUP1 SLOAD PUSH1 0x1 PUSH1 0x1 PUSH1 0xA0 SHL SUB DUP4 DUP2 AND PUSH1 0x1 PUSH1 0x1 PUSH1 0xA0 SHL SUB NOT DUP4 AND DUP2 OR DUP5 SSTORE PUSH1 0x40 MLOAD SWAP2 SWAP1 SWAP3 AND SWAP3 DUP4 SWAP2 PUSH32 0x8BE0079C531659141344CD1FD0A4F28419497F9722A3DAAFE3B4186F6B6457E0 SWAP2 SWAP1 LOG3 POP POP JUMP JUMPDEST DUP1 CALLDATALOAD PUSH1 0x1 PUSH1 0x1 PUSH1 0xA0 SHL SUB DUP2 AND DUP2 EQ PUSH2 0xAD0 JUMPI PUSH1 0x0 DUP1 REVERT JUMPDEST SWAP2 SWAP1 POP JUMP JUMPDEST PUSH1 0x0 PUSH1 0x20 DUP3 DUP5 SUB SLT ISZERO PUSH2 0xAE7 JUMPI PUSH1 0x0 DUP1 REVERT JUMPDEST PUSH2 0xAF0 DUP3 PUSH2 0xAB9 JUMP JUMPDEST SWAP4 SWAP3 POP POP POP JUMP JUMPDEST PUSH1 0x0 DUP2 MLOAD DUP1 DUP5 MSTORE PUSH1 0x0 JUMPDEST DUP2 DUP2 LT ISZERO PUSH2 0xB1D JUMPI PUSH1 0x20 DUP2 DUP6 ADD DUP2 ADD MLOAD DUP7 DUP4 ADD DUP3 ADD MSTORE ADD PUSH2 0xB01 JUMP JUMPDEST POP PUSH1 0x0 PUSH1 0x20 DUP3 DUP7 ADD ADD MSTORE PUSH1 0x20 PUSH1 0x1F NOT PUSH1 0x1F DUP4 ADD AND DUP6 ADD ADD SWAP2 POP POP SWAP3 SWAP2 POP POP JUMP JUMPDEST PUSH1 0x0 PUSH2 0x100 DUP11 DUP4 MSTORE DUP10 PUSH1 0x20 DUP5 ADD MSTORE DUP9 PUSH1 0x40 DUP5 ADD MSTORE DUP8 PUSH1 0x60 DUP5 ADD MSTORE DUP7 PUSH1 0x80 DUP5 ADD MSTORE DUP6 PUSH1 0xA0 DUP5 ADD MSTORE DUP1 PUSH1 0xC0 DUP5 ADD MSTORE PUSH2 0xB75 DUP2 DUP5 ADD DUP7 PUSH2 0xAF7 JUMP JUMPDEST SWAP2 POP POP DUP3 ISZERO ISZERO PUSH1 0xE0 DUP4 ADD MSTORE SWAP10 SWAP9 POP POP POP POP POP POP POP POP POP JUMP JUMPDEST PUSH1 0x0 DUP1 PUSH1 0x0 DUP1 PUSH1 0x0 PUSH1 0xA0 DUP7 DUP9 SUB SLT ISZERO PUSH2 0xBA5 JUMPI PUSH1 0x0 DUP1 REVERT JUMPDEST PUSH2 0xBAE DUP7 PUSH2 0xAB9 JUMP JUMPDEST SWAP8 PUSH1 0x20 DUP8 ADD CALLDATALOAD SWAP8 POP PUSH1 0x40 DUP8 ADD CALLDATALOAD SWAP7 PUSH1 0x60 DUP2 ADD CALLDATALOAD SWAP7 POP PUSH1 0x80 ADD CALLDATALOAD SWAP5 POP SWAP3 POP POP POP JUMP JUMPDEST PUSH1 0x0 DUP1 DUP4 PUSH1 0x1F DUP5 ADD SLT PUSH2 0xBE1 JUMPI PUSH1 0x0 DUP1 REVERT JUMPDEST POP DUP2 CALLDATALOAD PUSH8 0xFFFFFFFFFFFFFFFF DUP2 GT ISZERO PUSH2 0xBF9 JUMPI PUSH1 0x0 DUP1 REVERT JUMPDEST PUSH1 0x20 DUP4 ADD SWAP2 POP DUP4 PUSH1 0x20 DUP3 DUP6 ADD ADD GT ISZERO PUSH2 0xC11 JUMPI PUSH1 0x0 DUP1 REVERT JUMPDEST SWAP3 POP SWAP3 SWAP1 POP JUMP JUMPDEST DUP1 CALLDATALOAD DUP1 ISZERO ISZERO DUP2 EQ PUSH2 0xAD0 JUMPI PUSH1 0x0 DUP1 REVERT JUMPDEST PUSH1 0x0 DUP1 PUSH1 0x0 DUP1 PUSH1 0x60 DUP6 DUP8 SUB SLT ISZERO PUSH2 0xC3E JUMPI PUSH1 0x0 DUP1 REVERT JUMPDEST PUSH2 0xC47 DUP6 PUSH2 0xAB9 JUMP JUMPDEST SWAP4 POP PUSH1 0x20 DUP6 ADD CALLDATALOAD PUSH8 0xFFFFFFFFFFFFFFFF DUP2 GT ISZERO PUSH2 0xC63 JUMPI PUSH1 0x0 DUP1 REVERT JUMPDEST PUSH2 0xC6F DUP8 DUP3 DUP9 ADD PUSH2 0xBCF JUMP JUMPDEST SWAP1 SWAP5 POP SWAP3 POP PUSH2 0xC82 SWAP1 POP PUSH1 0x40 DUP7 ADD PUSH2 0xC18 JUMP JUMPDEST SWAP1 POP SWAP3 SWAP6 SWAP2 SWAP5 POP SWAP3 POP JUMP JUMPDEST PUSH1 0x0 DUP1 PUSH1 0x20 DUP4 DUP6 SUB SLT ISZERO PUSH2 0xCA0 JUMPI PUSH1 0x0 DUP1 REVERT JUMPDEST DUP3 CALLDATALOAD PUSH8 0xFFFFFFFFFFFFFFFF DUP2 GT ISZERO PUSH2 0xCB7 JUMPI PUSH1 0x0 DUP1 REVERT JUMPDEST PUSH2 0xCC3 DUP6 DUP3 DUP7 ADD PUSH2 0xBCF JUMP JUMPDEST SWAP1 SWAP7 SWAP1 SWAP6 POP SWAP4 POP POP POP POP JUMP JUMPDEST PUSH1 0x20 DUP2 MSTORE DUP2 MLOAD PUSH1 0x20 DUP3 ADD MSTORE PUSH1 0x20 DUP3 ADD MLOAD PUSH1 0x40 DUP3 ADD MSTORE PUSH1 0x40 DUP3 ADD MLOAD PUSH1 0x60 DUP3 ADD MSTORE PUSH1 0x60 DUP3 ADD MLOAD PUSH1 0x80 DUP3 ADD MSTORE PUSH1 0x80 DUP3 ADD MLOAD PUSH1 0xA0 DUP3 ADD MSTORE PUSH1 0xA0 DUP3 ADD MLOAD PUSH1 0xC0 DUP3 ADD MSTORE PUSH1 0x0 PUSH1 0xC0 DUP4 ADD MLOAD PUSH2 0x100 DUP1 PUSH1 0xE0 DUP6 ADD MSTORE PUSH2 0xD2A PUSH2 0x120 DUP6 ADD DUP4 PUSH2 0xAF7 JUMP JUMPDEST PUSH1 0xE0 SWAP6 SWAP1 SWAP6 ADD MLOAD ISZERO ISZERO SWAP4 ADD SWAP3 SWAP1 SWAP3 MSTORE POP SWAP1 SWAP2 SWAP1 POP JUMP JUMPDEST PUSH4 0x4E487B71 PUSH1 0xE0 SHL PUSH1 0x0 MSTORE PUSH1 0x41 PUSH1 0x4 MSTORE PUSH1 0x24 PUSH1 0x0 REVERT JUMPDEST PUSH1 0x0 PUSH1 0x20 DUP3 DUP5 SUB SLT ISZERO PUSH2 0xD68 JUMPI PUSH1 0x0 DUP1 REVERT JUMPDEST DUP2 CALLDATALOAD PUSH8 0xFFFFFFFFFFFFFFFF DUP1 DUP3 GT ISZERO PUSH2 0xD80 JUMPI PUSH1 0x0 DUP1 REVERT JUMPDEST DUP2 DUP5 ADD SWAP2 POP DUP5 PUSH1 0x1F DUP4 ADD SLT PUSH2 0xD94 JUMPI PUSH1 0x0 DUP1 REVERT JUMPDEST DUP2 CALLDATALOAD DUP2 DUP2 GT ISZERO PUSH2 0xDA6 JUMPI PUSH2 0xDA6 PUSH2 0xD40 JUMP JUMPDEST PUSH1 0x40 MLOAD PUSH1 0x1F DUP3 ADD PUSH1 0x1F NOT SWAP1 DUP2 AND PUSH1 0x3F ADD AND DUP2 ADD SWAP1 DUP4 DUP3 GT DUP2 DUP4 LT OR ISZERO PUSH2 0xDCE JUMPI PUSH2 0xDCE PUSH2 0xD40 JUMP JUMPDEST DUP2 PUSH1 0x40 MSTORE DUP3 DUP2 MSTORE DUP8 PUSH1 0x20 DUP5 DUP8 ADD ADD GT ISZERO PUSH2 0xDE7 JUMPI PUSH1 0x0 DUP1 REVERT JUMPDEST DUP3 PUSH1 0x20 DUP7 ADD PUSH1 0x20 DUP4 ADD CALLDATACOPY PUSH1 0x0 SWAP3 DUP2 ADD PUSH1 0x20 ADD SWAP3 SWAP1 SWAP3 MSTORE POP SWAP6 SWAP5 POP POP POP POP POP JUMP JUMPDEST PUSH1 0x0 DUP1 PUSH1 0x40 DUP4 DUP6 SUB SLT ISZERO PUSH2 0xE1A JUMPI PUSH1 0x0 DUP1 REVERT JUMPDEST PUSH2 0xE23 DUP4 PUSH2 0xAB9 JUMP JUMPDEST SWAP5 PUSH1 0x20 SWAP4 SWAP1 SWAP4 ADD CALLDATALOAD SWAP4 POP POP POP JUMP JUMPDEST PUSH1 0x0 DUP1 PUSH1 0x0 PUSH1 0x60 DUP5 DUP7 SUB SLT ISZERO PUSH2 0xE46 JUMPI PUSH1 0x0 DUP1 REVERT JUMPDEST PUSH2 0xE4F DUP5 PUSH2 0xAB9 JUMP JUMPDEST SWAP3 POP PUSH2 0xE5D PUSH1 0x20 DUP6 ADD PUSH2 0xC18 JUMP JUMPDEST SWAP2 POP PUSH1 0x40 DUP5 ADD CALLDATALOAD SWAP1 POP SWAP3 POP SWAP3 POP SWAP3 JUMP JUMPDEST PUSH1 0x1 DUP2 DUP2 SHR SWAP1 DUP3 AND DUP1 PUSH2 0xE81 JUMPI PUSH1 0x7F DUP3 AND SWAP2 POP JUMPDEST PUSH1 0x20 DUP3 LT DUP2 SUB PUSH2 0xEA1 JUMPI PUSH4 0x4E487B71 PUSH1 0xE0 SHL PUSH1 0x0 MSTORE PUSH1 0x22 PUSH1 0x4 MSTORE PUSH1 0x24 PUSH1 0x0 REVERT JUMPDEST POP SWAP2 SWAP1 POP JUMP JUMPDEST PUSH1 0x20 DUP1 DUP3 MSTORE PUSH1 0x13 SWAP1 DUP3 ADD MSTORE PUSH19 0x155CD95C881B9BDD081C9959DA5CDD195C9959 PUSH1 0x6A SHL PUSH1 0x40 DUP3 ADD MSTORE PUSH1 0x60 ADD SWAP1 JUMP JUMPDEST PUSH1 0x1F DUP3 GT ISZERO PUSH2 0xF1E JUMPI PUSH1 0x0 DUP2 DUP2 MSTORE PUSH1 0x20 DUP2 KECCAK256 PUSH1 0x1F DUP6 ADD PUSH1 0x5 SHR DUP2 ADD PUSH1 0x20 DUP7 LT ISZERO PUSH2 0xEFB JUMPI POP DUP1 JUMPDEST PUSH1 0x1F DUP6 ADD PUSH1 0x5 SHR DUP3 ADD SWAP2 POP JUMPDEST DUP2 DUP2 LT ISZERO PUSH2 0xF1A JUMPI DUP3 DUP2 SSTORE PUSH1 0x1 ADD PUSH2 0xF07 JUMP JUMPDEST POP POP POP JUMPDEST POP POP POP JUMP JUMPDEST DUP2 MLOAD PUSH8 0xFFFFFFFFFFFFFFFF DUP2 GT ISZERO PUSH2 0xF3D JUMPI PUSH2 0xF3D PUSH2 0xD40 JUMP JUMPDEST PUSH2 0xF51 DUP2 PUSH2 0xF4B DUP5 SLOAD PUSH2 0xE6D JUMP JUMPDEST DUP5 PUSH2 0xED4 JUMP JUMPDEST PUSH1 0x20 DUP1 PUSH1 0x1F DUP4 GT PUSH1 0x1 DUP2 EQ PUSH2 0xF86 JUMPI PUSH1 0x0 DUP5 ISZERO PUSH2 0xF6E JUMPI POP DUP6 DUP4 ADD MLOAD JUMPDEST PUSH1 0x0 NOT PUSH1 0x3 DUP7 SWAP1 SHL SHR NOT AND PUSH1 0x1 DUP6 SWAP1 SHL OR DUP6 SSTORE PUSH2 0xF1A JUMP JUMPDEST PUSH1 0x0 DUP6 DUP2 MSTORE PUSH1 0x20 DUP2 KECCAK256 PUSH1 0x1F NOT DUP7 AND SWAP2 JUMPDEST DUP3 DUP2 LT ISZERO PUSH2 0xFB5 JUMPI DUP9 DUP7 ADD MLOAD DUP3 SSTORE SWAP5 DUP5 ADD SWAP5 PUSH1 0x1 SWAP1 SWAP2 ADD SWAP1 DUP5 ADD PUSH2 0xF96 JUMP JUMPDEST POP DUP6 DUP3 LT ISZERO PUSH2 0xFD3 JUMPI DUP8 DUP6 ADD MLOAD PUSH1 0x0 NOT PUSH1 0x3 DUP9 SWAP1 SHL PUSH1 0xF8 AND SHR NOT AND DUP2 SSTORE JUMPDEST POP POP POP POP POP PUSH1 0x1 SWAP1 DUP2 SHL ADD SWAP1 SSTORE POP JUMP JUMPDEST DUP2 DUP4 DUP3 CALLDATACOPY PUSH1 0x0 SWAP2 ADD SWAP1 DUP2 MSTORE SWAP2 SWAP1 POP JUMP JUMPDEST PUSH1 0x40 DUP2 MSTORE DUP3 PUSH1 0x40 DUP3 ADD MSTORE DUP3 DUP5 PUSH1 0x60 DUP4 ADD CALLDATACOPY PUSH1 0x0 PUSH1 0x60 DUP5 DUP4 ADD DUP2 ADD SWAP2 SWAP1 SWAP2 MSTORE SWAP2 ISZERO ISZERO PUSH1 0x20 DUP3 ADD MSTORE PUSH1 0x1F SWAP1 SWAP3 ADD PUSH1 0x1F NOT AND SWAP1 SWAP2 ADD ADD SWAP2 SWAP1 POP JUMP JUMPDEST PUSH4 0x4E487B71 PUSH1 0xE0 SHL PUSH1 0x0 MSTORE PUSH1 0x11 PUSH1 0x4 MSTORE PUSH1 0x24 PUSH1 0x0 REVERT JUMPDEST PUSH1 0x0 PUSH1 0x1 DUP3 ADD PUSH2 0x1053 JUMPI PUSH2 0x1053 PUSH2 0x102B JUMP JUMPDEST POP PUSH1 0x1 ADD SWAP1 JUMP JUMPDEST DUP1 DUP3 ADD DUP1 DUP3 GT ISZERO PUSH2 0x641 JUMPI PUSH2 0x641 PUSH2 0x102B JUMP JUMPDEST DUP2 DUP2 SUB DUP2 DUP2 GT ISZERO PUSH2 0x641 JUMPI PUSH2 0x641 PUSH2 0x102B JUMP INVALID LOG2 PUSH5 0x6970667358 0x22 SLT KECCAK256 KECCAK256 MULMOD 0xC 0xB9 INVALID 0xBF PC PUSH3 0xAD93BC 0xC3 LOG2 DUP14 0xC EXTCODECOPY CODESIZE EXTCODECOPY 0xBC PUSH21 0x53415ECE670CAE40E662526664736F6C6343000814 STOP CALLER "},"methodIdentifiers":{"emailToAddress(string)":"ea78dcbf","getReputation(address)":"9c89a0e2","getReputationData(address)":"7a00d3c4","getUserByEmail(string)":"18046ae1","isUserRegistered(address)":"163f7522","isVendor(address)":"ee54d54f","nextTokenId()":"75794a3c","owner()":"8da5cb5b","registerUser(address,string,bool)":"16596d7f","renounceOwnership()":"715018a6","reputations(address)":"06fa15a7","transferOwnership(address)":"f2fde38b","updateReputation(address,bool,uint256)":"ff370a40","updateReputation(address,uint256)":"f5c91a08","updateTransactionStats(address,uint256,uint256,uint256,uint256)":"0932321a"}}}}}