{"contracts/core/EscrowManager.sol":{"EscrowManager":{"abi":[{"inputs":[],"stateMutability":"nonpayable","type":"constructor"},{"inputs":[],"name":"EnforcedPause","type":"error"},{"inputs":[],"name":"ExpectedPause","type":"error"},{"inputs":[{"internalType":"address","name":"owner","type":"address"}],"name":"OwnableInvalidOwner","type":"error"},{"inputs":[{"internalType":"address","name":"account","type":"address"}],"name":"OwnableUnauthorizedAccount","type":"error"},{"inputs":[],"name":"ReentrancyGuardReentrantCall","type":"error"},{"inputs":[{"internalType":"address","name":"token","type":"address"}],"name":"SafeERC20FailedOperation","type":"error"},{"anonymous":false,"inputs":[{"indexed":true,"internalType":"uint256","name":"escrowId","type":"uint256"},{"indexed":true,"internalType":"address","name":"arbitrator","type":"address"},{"indexed":false,"internalType":"bool","name":"buyerWins","type":"bool"}],"name":"DisputeResolved","type":"event"},{"anonymous":false,"inputs":[{"indexed":true,"internalType":"uint256","name":"escrowId","type":"uint256"},{"indexed":false,"internalType":"uint256","name":"amountReleased","type":"uint256"}],"name":"EscrowCompleted","type":"event"},{"anonymous":false,"inputs":[{"indexed":true,"internalType":"uint256","name":"escrowId","type":"uint256"},{"indexed":true,"internalType":"address","name":"buyer","type":"address"},{"indexed":true,"internalType":"address","name":"seller","type":"address"},{"indexed":false,"internalType":"uint256","name":"amount","type":"uint256"}],"name":"EscrowCreated","type":"event"},{"anonymous":false,"inputs":[{"indexed":true,"internalType":"uint256","name":"escrowId","type":"uint256"},{"indexed":true,"internalType":"address","name":"initiator","type":"address"},{"indexed":false,"internalType":"string","name":"reason","type":"string"}],"name":"EscrowDisputed","type":"event"},{"anonymous":false,"inputs":[{"indexed":true,"internalType":"uint256","name":"escrowId","type":"uint256"},{"indexed":false,"internalType":"uint256","name":"amount","type":"uint256"}],"name":"EscrowFunded","type":"event"},{"anonymous":false,"inputs":[{"indexed":true,"internalType":"address","name":"previousOwner","type":"address"},{"indexed":true,"internalType":"address","name":"newOwner","type":"address"}],"name":"OwnershipTransferred","type":"event"},{"anonymous":false,"inputs":[{"indexed":false,"internalType":"address","name":"account","type":"address"}],"name":"Paused","type":"event"},{"anonymous":false,"inputs":[{"indexed":true,"internalType":"address","name":"user","type":"address"},{"indexed":false,"internalType":"uint256","name":"newScore","type":"uint256"},{"indexed":false,"internalType":"uint256","name":"totalTransactions","type":"uint256"}],"name":"ReputationUpdated","type":"event"},{"anonymous":false,"inputs":[{"indexed":true,"internalType":"address","name":"token","type":"address"},{"indexed":true,"internalType":"uint256","name":"chainId","type":"uint256"},{"indexed":false,"internalType":"bool","name":"active","type":"bool"}],"name":"TokenAdded","type":"event"},{"anonymous":false,"inputs":[{"indexed":true,"internalType":"address","name":"token","type":"address"},{"indexed":false,"internalType":"bool","name":"supported","type":"bool"}],"name":"TokenSupported","type":"event"},{"anonymous":false,"inputs":[{"indexed":false,"internalType":"address","name":"account","type":"address"}],"name":"Unpaused","type":"event"},{"inputs":[],"name":"DISPUTE_TIMEOUT","outputs":[{"internalType":"uint256","name":"","type":"uint256"}],"stateMutability":"view","type":"function"},{"inputs":[],"name":"ESCROW_TIMEOUT","outputs":[{"internalType":"uint256","name":"","type":"uint256"}],"stateMutability":"view","type":"function"},{"inputs":[],"name":"PLATFORM_FEE_PERCENT","outputs":[{"internalType":"uint256","name":"","type":"uint256"}],"stateMutability":"view","type":"function"},{"inputs":[{"internalType":"address","name":"token","type":"address"},{"internalType":"uint256","name":"chainId","type":"uint256"},{"internalType":"string","name":"symbol","type":"string"},{"internalType":"uint8","name":"decimals","type":"uint8"},{"internalType":"bool","name":"active","type":"bool"}],"name":"addToken","outputs":[],"stateMutability":"nonpayable","type":"function"},{"inputs":[{"internalType":"uint256","name":"escrowId","type":"uint256"}],"name":"cancelEscrow","outputs":[],"stateMutability":"nonpayable","type":"function"},{"inputs":[{"internalType":"address","name":"seller","type":"address"},{"internalType":"string","name":"description","type":"string"},{"internalType":"bytes32","name":"metadataHash","type":"bytes32"},{"components":[{"internalType":"uint256","name":"amount","type":"uint256"},{"internalType":"string","name":"description","type":"string"},{"internalType":"bool","name":"completed","type":"bool"},{"internalType":"uint256","name":"completedAt","type":"uint256"}],"internalType":"struct ISynkioProtocol.Milestone[]","name":"_milestones","type":"tuple[]"},{"internalType":"address","name":"token","type":"address"},{"internalType":"uint256","name":"amount","type":"uint256"}],"name":"createEscrow","outputs":[{"internalType":"uint256","name":"","type":"uint256"}],"stateMutability":"payable","type":"function"},{"inputs":[],"name":"disputeResolution","outputs":[{"internalType":"address","name":"","type":"address"}],"stateMutability":"view","type":"function"},{"inputs":[{"internalType":"uint256","name":"","type":"uint256"}],"name":"disputes","outputs":[{"internalType":"uint256","name":"escrowId","type":"uint256"},{"internalType":"address","name":"initiator","type":"address"},{"internalType":"string","name":"reason","type":"string"},{"internalType":"uint256","name":"createdAt","type":"uint256"},{"internalType":"enum ISynkioProtocol.DisputeStatus","name":"status","type":"uint8"},{"internalType":"address","name":"arbitrator","type":"address"}],"stateMutability":"view","type":"function"},{"inputs":[{"internalType":"uint256","name":"","type":"uint256"}],"name":"escrows","outputs":[{"internalType":"uint256","name":"id","type":"uint256"},{"internalType":"address","name":"buyer","type":"address"},{"internalType":"address","name":"seller","type":"address"},{"internalType":"uint256","name":"amount","type":"uint256"},{"internalType":"uint256","name":"platformFee","type":"uint256"},{"internalType":"uint256","name":"createdAt","type":"uint256"},{"internalType":"uint256","name":"expiresAt","type":"uint256"},{"internalType":"enum ISynkioProtocol.EscrowStatus","name":"status","type":"uint8"},{"internalType":"string","name":"description","type":"string"},{"internalType":"bytes32","name":"metadataHash","type":"bytes32"},{"internalType":"address","name":"token","type":"address"}],"stateMutability":"view","type":"function"},{"inputs":[{"internalType":"uint256","name":"escrowId","type":"uint256"}],"name":"expireEscrow","outputs":[],"stateMutability":"nonpayable","type":"function"},{"inputs":[{"internalType":"uint256","name":"escrowId","type":"uint256"},{"internalType":"string","name":"reason","type":"string"}],"name":"fileDispute","outputs":[],"stateMutability":"nonpayable","type":"function"},{"inputs":[{"internalType":"uint256","name":"escrowId","type":"uint256"}],"name":"fundEscrow","outputs":[],"stateMutability":"payable","type":"function"},{"inputs":[{"internalType":"uint256","name":"escrowId","type":"uint256"}],"name":"getDispute","outputs":[{"components":[{"internalType":"uint256","name":"escrowId","type":"uint256"},{"internalType":"address","name":"initiator","type":"address"},{"internalType":"string","name":"reason","type":"string"},{"internalType":"uint256","name":"createdAt","type":"uint256"},{"internalType":"enum ISynkioProtocol.DisputeStatus","name":"status","type":"uint8"},{"internalType":"address","name":"arbitrator","type":"address"}],"internalType":"struct ISynkioProtocol.Dispute","name":"","type":"tuple"}],"stateMutability":"view","type":"function"},{"inputs":[{"internalType":"uint256","name":"escrowId","type":"uint256"}],"name":"getEscrow","outputs":[{"components":[{"internalType":"uint256","name":"id","type":"uint256"},{"internalType":"address","name":"buyer","type":"address"},{"internalType":"address","name":"seller","type":"address"},{"internalType":"uint256","name":"amount","type":"uint256"},{"internalType":"uint256","name":"platformFee","type":"uint256"},{"internalType":"uint256","name":"createdAt","type":"uint256"},{"internalType":"uint256","name":"expiresAt","type":"uint256"},{"internalType":"enum ISynkioProtocol.EscrowStatus","name":"status","type":"uint8"},{"internalType":"string","name":"description","type":"string"},{"internalType":"bytes32","name":"metadataHash","type":"bytes32"},{"internalType":"address","name":"token","type":"address"}],"internalType":"struct ISynkioProtocol.Escrow","name":"","type":"tuple"}],"stateMutability":"view","type":"function"},{"inputs":[{"internalType":"uint256","name":"escrowId","type":"uint256"}],"name":"getMilestones","outputs":[{"components":[{"internalType":"uint256","name":"amount","type":"uint256"},{"internalType":"string","name":"description","type":"string"},{"internalType":"bool","name":"completed","type":"bool"},{"internalType":"uint256","name":"completedAt","type":"uint256"}],"internalType":"struct ISynkioProtocol.Milestone[]","name":"","type":"tuple[]"}],"stateMutability":"view","type":"function"},{"inputs":[{"internalType":"address","name":"token","type":"address"}],"name":"getTokenInfo","outputs":[{"components":[{"internalType":"address","name":"token","type":"address"},{"internalType":"uint256","name":"chainId","type":"uint256"},{"internalType":"string","name":"symbol","type":"string"},{"internalType":"uint8","name":"decimals","type":"uint8"},{"internalType":"bool","name":"active","type":"bool"}],"internalType":"struct EscrowManager.TokenInfo","name":"","type":"tuple"}],"stateMutability":"view","type":"function"},{"inputs":[{"internalType":"uint256","name":"","type":"uint256"},{"internalType":"uint256","name":"","type":"uint256"}],"name":"milestones","outputs":[{"internalType":"uint256","name":"amount","type":"uint256"},{"internalType":"string","name":"description","type":"string"},{"internalType":"bool","name":"completed","type":"bool"},{"internalType":"uint256","name":"completedAt","type":"uint256"}],"stateMutability":"view","type":"function"},{"inputs":[],"name":"nextEscrowId","outputs":[{"internalType":"uint256","name":"","type":"uint256"}],"stateMutability":"view","type":"function"},{"inputs":[],"name":"owner","outputs":[{"internalType":"address","name":"","type":"address"}],"stateMutability":"view","type":"function"},{"inputs":[],"name":"pause","outputs":[],"stateMutability":"nonpayable","type":"function"},{"inputs":[],"name":"paused","outputs":[{"internalType":"bool","name":"","type":"bool"}],"stateMutability":"view","type":"function"},{"inputs":[],"name":"paymentProcessor","outputs":[{"internalType":"address","name":"","type":"address"}],"stateMutability":"view","type":"function"},{"inputs":[{"internalType":"uint256","name":"escrowId","type":"uint256"},{"internalType":"uint256","name":"milestoneIndex","type":"uint256"}],"name":"releasePayment","outputs":[],"stateMutability":"nonpayable","type":"function"},{"inputs":[],"name":"renounceOwnership","outputs":[],"stateMutability":"nonpayable","type":"function"},{"inputs":[],"name":"reputationRegistry","outputs":[{"internalType":"address","name":"","type":"address"}],"stateMutability":"view","type":"function"},{"inputs":[{"internalType":"uint256","name":"escrowId","type":"uint256"},{"internalType":"bool","name":"buyerWins","type":"bool"}],"name":"resolveDispute","outputs":[],"stateMutability":"nonpayable","type":"function"},{"inputs":[{"internalType":"address","name":"_paymentProcessor","type":"address"},{"internalType":"address","name":"_reputationRegistry","type":"address"},{"internalType":"address","name":"_disputeResolution","type":"address"}],"name":"setContracts","outputs":[],"stateMutability":"nonpayable","type":"function"},{"inputs":[{"internalType":"address","name":"token","type":"address"},{"internalType":"bool","name":"supported","type":"bool"}],"name":"setSupportedToken","outputs":[],"stateMutability":"nonpayable","type":"function"},{"inputs":[{"internalType":"address","name":"","type":"address"}],"name":"supportedTokens","outputs":[{"internalType":"bool","name":"","type":"bool"}],"stateMutability":"view","type":"function"},{"inputs":[{"internalType":"address","name":"","type":"address"}],"name":"tokenInfo","outputs":[{"internalType":"address","name":"token","type":"address"},{"internalType":"uint256","name":"chainId","type":"uint256"},{"internalType":"string","name":"symbol","type":"string"},{"internalType":"uint8","name":"decimals","type":"uint8"},{"internalType":"bool","name":"active","type":"bool"}],"stateMutability":"view","type":"function"},{"inputs":[],"name":"totalFees","outputs":[{"internalType":"uint256","name":"","type":"uint256"}],"stateMutability":"view","type":"function"},{"inputs":[],"name":"totalVolume","outputs":[{"internalType":"uint256","name":"","type":"uint256"}],"stateMutability":"view","type":"function"},{"inputs":[{"internalType":"address","name":"newOwner","type":"address"}],"name":"transferOwnership","outputs":[],"stateMutability":"nonpayable","type":"function"},{"inputs":[],"name":"unpause","outputs":[],"stateMutability":"nonpayable","type":"function"},{"inputs":[{"internalType":"address","name":"token","type":"address"},{"internalType":"bool","name":"active","type":"bool"}],"name":"updateTokenStatus","outputs":[],"stateMutability":"nonpayable","type":"function"},{"inputs":[{"internalType":"address","name":"","type":"address"}],"name":"userEscrowCount","outputs":[{"internalType":"uint256","name":"","type":"uint256"}],"stateMutability":"view","type":"function"},{"inputs":[],"name":"withdrawFees","outputs":[],"stateMutability":"nonpayable","type":"function"}],"evm":{"bytecode":{"linkReferences":{},"object":"608060405260016002553480156200001657600080fd5b50600160005533806200004357604051631e4fbdf760e01b81526000600482015260240160405180910390fd5b6200004e8162000055565b50620000a7565b600180546001600160a01b038381166001600160a01b0319831681179093556040519116919082907f8be0079c531659141344cd1fd0a4f28419497f9722a3daafe3b4186f6b6457e090600090a35050565b613c4880620000b76000396000f3fe60806040526004361061021a5760003560e01c80637d19e59611610123578063be9157cf116100ab578063e79864661161006f578063e79864661461065e578063e81d78751461067e578063f1c6bdf81461069e578063f2fde38b146106be578063f5dab711146106de57600080fd5b8063be9157cf146105be578063c8db44e3146105de578063c9c31af5146105fe578063e018243614610611578063e3a96cbd1461063157600080fd5b80638da5cb5b116100f25780638da5cb5b1461050c578063900ed1781461053e57806397e99a801461055e578063b3066d491461057e578063bc3a868f1461059e57600080fd5b80637d19e596146104945780638243af1d146104c15780638456cb59146104e157806389cb29dd146104f657600080fd5b8063476343ee116101a65780635bf54728116101755780635bf54728146103fb5780635c975abb1461040e5780635f81a57c1461043957806368c4ac261461044f578063715018a61461047f57600080fd5b8063476343ee14610388578063486265c61461039d578063560d52d4146103b4578063564a565d146103c957600080fd5b80631f69565f116101ed5780631f69565f146102e057806330815eee1461030d57806334b25ee2146103245780633f4ba83a1461034657806342c549c01461035b57600080fd5b8063012f52ee1461021f57806313114a9d1461025f57806319ffa563146102835780631c376c63146102b0575b600080fd5b34801561022b57600080fd5b5061023f61023a366004613150565b61070f565b6040516102569b9a999897969594939291906131d9565b60405180910390f35b34801561026b57600080fd5b5061027560045481565b604051908152602001610256565b34801561028f57600080fd5b5061027561029e366004613270565b60086020526000908152604090205481565b3480156102bc57600080fd5b506102d06102cb366004613292565b61080b565b60405161025694939291906132b4565b3480156102ec57600080fd5b506103006102fb366004613270565b6108e4565b60405161025691906132e0565b34801561031957600080fd5b5061027562278d0081565b34801561033057600080fd5b5061034461033f36600461334d565b6109fb565b005b34801561035257600080fd5b50610344610df9565b34801561036757600080fd5b5061037b610376366004613150565b610e0b565b6040516102569190613379565b34801561039457600080fd5b50610344610f38565b3480156103a957600080fd5b5061027562093a8081565b3480156103c057600080fd5b5061027560fa81565b3480156103d557600080fd5b506103e96103e4366004613150565b611030565b60405161025696959493929190613416565b610275610409366004613547565b611104565b34801561041a57600080fd5b50600154600160a01b900460ff165b6040519015158152602001610256565b34801561044557600080fd5b5061027560035481565b34801561045b57600080fd5b5061042961046a366004613270565b60096020526000908152604090205460ff1681565b34801561048b57600080fd5b50610344611790565b3480156104a057600080fd5b506104b46104af366004613150565b6117a2565b60405161025691906136e7565b3480156104cd57600080fd5b506103446104dc3660046137a8565b611901565b3480156104ed57600080fd5b50610344611ca2565b34801561050257600080fd5b5061027560025481565b34801561051857600080fd5b506001546001600160a01b03165b6040516001600160a01b039091168152602001610256565b34801561054a57600080fd5b506103446105593660046137ef565b611cb2565b34801561056a57600080fd5b50610344610579366004613292565b611d93565b34801561058a57600080fd5b50610344610599366004613819565b61231e565b3480156105aa57600080fd5b506103446105b9366004613150565b612365565b3480156105ca57600080fd5b50600d54610526906001600160a01b031681565b3480156105ea57600080fd5b50600c54610526906001600160a01b031681565b61034461060c366004613150565b61250d565b34801561061d57600080fd5b5061034461062c366004613150565b61269d565b34801561063d57600080fd5b5061065161064c366004613150565b6129e8565b604051610256919061385c565b34801561066a57600080fd5b506103446106793660046137ef565b612b18565b34801561068a57600080fd5b506103446106993660046138ce565b612b78565b3480156106aa57600080fd5b50600b54610526906001600160a01b031681565b3480156106ca57600080fd5b506103446106d9366004613270565b612ce0565b3480156106ea57600080fd5b506106fe6106f9366004613270565b612d1e565b60405161025695949392919061394f565b600560208190526000918252604090912080546001820154600283015460038401546004850154958501546006860154600787015460088801805497996001600160a01b0397881699979096169794969394929360ff9092169261077290613992565b80601f016020809104026020016040519081016040528092919081815260200182805461079e90613992565b80156107eb5780601f106107c0576101008083540402835291602001916107eb565b820191906000526020600020905b8154815290600101906020018083116107ce57829003601f168201915b505050506009830154600a909301549192916001600160a01b031690508b565b6006602052816000526040600020818154811061082757600080fd5b90600052602060002090600402016000915091505080600001549080600101805461085190613992565b80601f016020809104026020016040519081016040528092919081815260200182805461087d90613992565b80156108ca5780601f1061089f576101008083540402835291602001916108ca565b820191906000526020600020905b8154815290600101906020018083116108ad57829003601f168201915b505050506002830154600390930154919260ff1691905084565b6040805160a080820183526000808352602080840182905260608486018190528401829052608084018290526001600160a01b038681168352600a825291859020855193840186528054909216835260018201549083015260028101805493949293919284019161095490613992565b80601f016020809104026020016040519081016040528092919081815260200182805461098090613992565b80156109cd5780601f106109a2576101008083540402835291602001916109cd565b820191906000526020600020905b8154815290600101906020018083116109b057829003601f168201915b50505091835250506003919091015460ff808216602084015261010090910416151560409091015292915050565b81600081118015610a0d575060025481105b610a325760405162461bcd60e51b8152600401610a29906139cc565b60405180910390fd5b600d546001600160a01b03163314610a8c5760405162461bcd60e51b815260206004820181905260248201527f4f6e6c792064697370757465207265736f6c7574696f6e20636f6e74726163746044820152606401610a29565b600083815260056020908152604080832060079092529091206003600783015460ff166005811115610ac057610ac0613169565b14610b015760405162461bcd60e51b81526020600482015260116024820152704e6f20616374697665206469737075746560781b6044820152606401610a29565b6000600482015460ff166003811115610b1c57610b1c613169565b14610b695760405162461bcd60e51b815260206004820152601860248201527f4469737075746520616c7265616479207265736f6c76656400000000000000006044820152606401610a29565b60048101805461010033026001600160a81b0319909116176002179055600084610ba05760028301546001600160a01b0316610baf565b60018301546001600160a01b03165b9050600085610bcb5760018401546001600160a01b0316610bda565b60028401546001600160a01b03165b600a8501549091506001600160a01b0316610c8b5760038401546040516000916001600160a01b038516918381818185875af1925050503d8060008114610c3d576040519150601f19603f3d011682016040523d82523d6000602084013e610c42565b606091505b5050905080610c855760405162461bcd60e51b815260206004820152600f60248201526e151c985b9cd9995c8819985a5b1959608a1b6044820152606401610a29565b50610cac565b6003840154600a850154610cac916001600160a01b03909116908490612de5565b60078401805460ff191660021790556040518615158152339088907f8fdd4548a8481406b6e29c0d6f25e27cd72502f79f4adf409468502e7920dabc9060200160405180910390a3600c546001600160a01b031615610df057600c5460038501546040516001620323d760e61b031981526001600160a01b03858116600483015260016024830152604482019290925291169063ff370a4090606401600060405180830381600087803b158015610d6257600080fd5b505af1158015610d76573d6000803e3d6000fd5b5050600c5460038701546040516001620323d760e61b031981526001600160a01b0386811660048301526000602483015260448201929092529116925063ff370a409150606401600060405180830381600087803b158015610dd757600080fd5b505af1158015610deb573d6000803e3d6000fd5b505050505b50505050505050565b610e01612e44565b610e09612e71565b565b606060066000838152602001908152602001600020805480602002602001604051908101604052809291908181526020016000905b82821015610f2d578382906000526020600020906004020160405180608001604052908160008201548152602001600182018054610e7d90613992565b80601f0160208091040260200160405190810160405280929190818152602001828054610ea990613992565b8015610ef65780601f10610ecb57610100808354040283529160200191610ef6565b820191906000526020600020905b815481529060010190602001808311610ed957829003601f168201915b5050509183525050600282015460ff1615156020808301919091526003909201546040909101529082526001929092019101610e40565b505050509050919050565b610f40612e44565b4780610f845760405162461bcd60e51b81526020600482015260136024820152724e6f206665657320746f20776974686472617760681b6044820152606401610a29565b6000610f986001546001600160a01b031690565b6001600160a01b03168260405160006040518083038185875af1925050503d8060008114610fe2576040519150601f19603f3d011682016040523d82523d6000602084013e610fe7565b606091505b505090508061102c5760405162461bcd60e51b815260206004820152601160248201527015da5d1a191c985dd85b0819985a5b1959607a1b6044820152606401610a29565b5050565b60076020526000908152604090208054600182015460028301805492936001600160a01b039092169261106290613992565b80601f016020809104026020016040519081016040528092919081815260200182805461108e90613992565b80156110db5780601f106110b0576101008083540402835291602001916110db565b820191906000526020600020905b8154815290600101906020018083116110be57829003601f168201915b50505050600383015460049093015491929160ff8116915061010090046001600160a01b031686565b600061110e612ec6565b826001600160a01b038116158061113d57506001600160a01b03811660009081526009602052604090205460ff165b6111955760405162461bcd60e51b815260206004820152602360248201527f546f6b656e206e6f7420737570706f72746564206f6e2042617365205365706f6044820152626c696160e81b6064820152608401610a29565b6001600160a01b0388166111dc5760405162461bcd60e51b815260206004820152600e60248201526d24b73b30b634b21039b2b63632b960911b6044820152606401610a29565b336001600160a01b038916036112345760405162461bcd60e51b815260206004820152601760248201527f43616e6e6f7420657363726f7720776974682073656c660000000000000000006044820152606401610a29565b6000806001600160a01b038616801515906112c457600034116112995760405162461bcd60e51b815260206004820152601d60248201527f416d6f756e74206d7573742062652067726561746572207468616e20300000006044820152606401610a29565b6127106112a760fa34613a0a565b6112b19190613a27565b91506112bd8234613a49565b92506113ad565b600086116113145760405162461bcd60e51b815260206004820152601d60248201527f416d6f756e74206d7573742062652067726561746572207468616e20300000006044820152606401610a29565b6001600160a01b03871660009081526009602052604090205460ff166113725760405162461bcd60e51b8152602060048201526013602482015272151bdad95b881b9bdd081cdd5c1c1bdc9d1959606a1b6044820152606401610a29565b61271061138060fa88613a0a565b61138a9190613a27565b91506113968287613a49565b92506113ad6001600160a01b038816333089612ef1565b60028054600091826113be83613a5c565b919050559050604051806101600160405280828152602001336001600160a01b031681526020018d6001600160a01b0316815260200185815260200184815260200142815260200162278d00426114159190613a75565b815260200183611426576000611429565b60015b600581111561143a5761143a613169565b815260208082018e905260408083018e90526001600160a01b03808d1660609485015260008681526005808552908390208651815593860151600180860180549285166001600160a01b031993841617905593870151600286018054919094169116179091559284015160038301556080840151600483015560a08401518284015560c0840151600683015560e084015160078301805493949193909260ff199091169184908111156114ef576114ef613169565b021790555061010082015160088201906115099082613ad6565b50610120820151600982015561014090910151600a90910180546001600160a01b0319166001600160a01b03909216919091179055885115611679576000805b8a518110156116145760008381526006602052604090208b518c908390811061157457611574613b96565b60209081029190910181015182546001818101855560009485529383902082516004909202019081559181015190928201906115b09082613ad6565b50604082015160028201805460ff19169115159190911790556060909101516003909101558a518b90829081106115e9576115e9613b96565b602002602001015160000151826116009190613a75565b91508061160c81613a5c565b915050611549565b508481146116775760405162461bcd60e51b815260206004820152602a60248201527f4d696c6573746f6e6520616d6f756e7473206d75737420657175616c206573636044820152691c9bddc8185b5bdd5b9d60b21b6064820152608401610a29565b505b33600090815260086020526040812080549161169483613a5c565b90915550506001600160a01b038c1660009081526008602052604081208054916116bd83613a5c565b9190505550816116cd57346116cf565b865b600360008282546116e09190613a75565b9250508190555082600460008282546116f99190613a75565b90915550506040518481526001600160a01b038d1690339083907f9405ad0a6208539879349284d71265479b1623846f70303da1f9890d6e8c10a79060200160405180910390a4811561178157807f911052e1be46242b46bf3c2762227ff37c000e5fe38727638096f3a17fbfe1708860405161177891815260200190565b60405180910390a25b9b9a5050505050505050505050565b611798612e44565b610e096000612f2a565b6117aa613084565b6000828152600560208181526040928390208351610160810185528154815260018201546001600160a01b039081169382019390935260028201549092169382019390935260038301546060820152600483015460808201528282015460a0820152600683015460c0820152600783015490929160e084019160ff169081111561183657611836613169565b600581111561184757611847613169565b815260200160088201805461185b90613992565b80601f016020809104026020016040519081016040528092919081815260200182805461188790613992565b80156118d45780601f106118a9576101008083540402835291602001916118d4565b820191906000526020600020905b8154815290600101906020018083116118b757829003601f168201915b505050918352505060098201546020820152600a909101546001600160a01b031660409091015292915050565b81600081118015611913575060025481105b61192f5760405162461bcd60e51b8152600401610a29906139cc565b60008381526005602081815260408084208151610160810183528154815260018201546001600160a01b039081169482019490945260028201549093169183019190915260038101546060830152600481015460808301528083015460a0830152600681015460c0830152600781015487949360e084019160ff16908111156119ba576119ba613169565b60058111156119cb576119cb613169565b81526020016008820180546119df90613992565b80601f0160208091040260200160405190810160405280929190818152602001828054611a0b90613992565b8015611a585780601f10611a2d57610100808354040283529160200191611a58565b820191906000526020600020905b815481529060010190602001808311611a3b57829003601f168201915b50505091835250506009820154602080830191909152600a909201546001600160a01b039081166040909201919091529082015191925016331480611ab2575080604001516001600160a01b0316336001600160a01b0316145b611ace5760405162461bcd60e51b8152600401610a2990613bac565b60008581526005602052604090206001600782015460ff166005811115611af757611af7613169565b14611b145760405162461bcd60e51b8152600401610a2990613bd4565b60008681526007602052604090206003015415611b6b5760405162461bcd60e51b8152602060048201526015602482015274111a5cdc1d5d1948185b1c9958591e48199a5b1959605a1b6044820152606401610a29565b6040805160c0810182528781523360208201529081018690524260608201526080810160008152600060209182018190528881526007825260409081902083518155918301516001830180546001600160a01b0319166001600160a01b039092169190911790558201516002820190611be49082613ad6565b506060820151816003015560808201518160040160006101000a81548160ff02191690836003811115611c1957611c19613169565b021790555060a0919091015160049091018054610100600160a81b0319166101006001600160a01b039093169290920291909117905560078101805460ff19166003179055604051339087907fc523357a17c19a0da11b08e9f4d7e4fbed304cbe1be1d3583e4d5a677d75d70990611c92908990613bff565b60405180910390a3505050505050565b611caa612e44565b610e09612f7c565b611cba612e44565b6001600160a01b038281166000908152600a602052604090205416611d185760405162461bcd60e51b8152602060048201526014602482015273151bdad95b881b9bdd081c9959da5cdd195c995960621b6044820152606401610a29565b6001600160a01b0382166000818152600a60209081526040808320600301805461ff001916610100871515908102919091179091556009835292819020805460ff191684179055519182527fd86c88b4a367d9b81a6e00c9d3f7d01657bffef358fa8968c91c045ae99f0d5291015b60405180910390a25050565b81600081118015611da5575060025481105b611dc15760405162461bcd60e51b8152600401610a29906139cc565b60008381526005602081815260408084208151610160810183528154815260018201546001600160a01b039081169482019490945260028201549093169183019190915260038101546060830152600481015460808301528083015460a0830152600681015460c0830152600781015487949360e084019160ff1690811115611e4c57611e4c613169565b6005811115611e5d57611e5d613169565b8152602001600882018054611e7190613992565b80601f0160208091040260200160405190810160405280929190818152602001828054611e9d90613992565b8015611eea5780601f10611ebf57610100808354040283529160200191611eea565b820191906000526020600020905b815481529060010190602001808311611ecd57829003601f168201915b50505091835250506009820154602080830191909152600a909201546001600160a01b039081166040909201919091529082015191925016331480611f44575080604001516001600160a01b0316336001600160a01b0316145b611f605760405162461bcd60e51b8152600401610a2990613bac565b611f68612fbf565b60008581526005602052604090206001600782015460ff166005811115611f9157611f91613169565b14611fae5760405162461bcd60e51b8152600401610a2990613bd4565b8060060154421115611ff35760405162461bcd60e51b815260206004820152600e60248201526d115cd8dc9bddc8195e1c1a5c995960921b6044820152606401610a29565b600086815260066020526040812054156120fd5760008781526006602052604090205486106120585760405162461bcd60e51b8152602060048201526011602482015270496e76616c6964206d696c6573746f6e6560781b6044820152606401610a29565b600087815260066020526040812080548890811061207857612078613b96565b60009182526020909120600490910201600281015490915060ff16156120e05760405162461bcd60e51b815260206004820152601b60248201527f4d696c6573746f6e6520616c726561647920636f6d706c6574656400000000006044820152606401610a29565b60028101805460ff1916600117905542600382015554905061217b565b60018201546001600160a01b031633146121655760405162461bcd60e51b815260206004820152602360248201527f4f6e6c792062757965722063616e2072656c656173652066756c6c207061796d604482015262195b9d60ea1b6064820152608401610a29565b50600381015460078201805460ff191660021790555b600a8201546001600160a01b031661222a5760028201546040516000916001600160a01b03169083908381818185875af1925050503d80600081146121dc576040519150601f19603f3d011682016040523d82523d6000602084013e6121e1565b606091505b50509050806122245760405162461bcd60e51b815260206004820152600f60248201526e151c985b9cd9995c8819985a5b1959608a1b6044820152606401610a29565b5061224b565b6002820154600a83015461224b916001600160a01b03918216911683612de5565b867ff487d4e13e32569d69ec2608b5b1530450d715b84e0c81d0077b5b7e766db1d18260405161227d91815260200190565b60405180910390a2600c546001600160a01b03161561230b57600c5460028301546040516001620323d760e61b031981526001600160a01b039182166004820152600160248201526044810184905291169063ff370a4090606401600060405180830381600087803b1580156122f257600080fd5b505af1158015612306573d6000803e3d6000fd5b505050505b50506123176001600055565b5050505050565b612326612e44565b600b80546001600160a01b039485166001600160a01b031991821617909155600c805493851693821693909317909255600d8054919093169116179055565b80600081118015612377575060025481105b6123935760405162461bcd60e51b8152600401610a29906139cc565b60008281526005602052604090206001600782015460ff1660058111156123bc576123bc613169565b146123d95760405162461bcd60e51b8152600401610a2990613bd4565b806006015442116124215760405162461bcd60e51b8152602060048201526012602482015271115cd8dc9bddc81b9bdd08195e1c1a5c995960721b6044820152606401610a29565b60078101805460ff19166005179055600a8101546001600160a01b03166124e157600181015460038201546040516000926001600160a01b031691908381818185875af1925050503d8060008114612495576040519150601f19603f3d011682016040523d82523d6000602084013e61249a565b606091505b50509050806124db5760405162461bcd60e51b815260206004820152600d60248201526c1499599d5b990819985a5b1959609a1b6044820152606401610a29565b50505050565b60018101546003820154600a830154612508926001600160a01b0391821692911690612de5565b505050565b8060008111801561251f575060025481105b61253b5760405162461bcd60e51b8152600401610a29906139cc565b612543612ec6565b600082815260056020526040812090600782015460ff16600581111561256b5761256b613169565b146125ad5760405162461bcd60e51b8152602060048201526012602482015271457363726f77206e6f742070656e64696e6760701b6044820152606401610a29565b60018101546001600160a01b031633146125ff5760405162461bcd60e51b815260206004820152601360248201527213db9b1e48189d5e595c8818d85b88199d5b99606a1b6044820152606401610a29565b806004015481600301546126139190613a75565b34146126545760405162461bcd60e51b815260206004820152601060248201526f125b98dbdc9c9958dd08185b5bdd5b9d60821b6044820152606401610a29565b60078101805460ff1916600117905560405134815283907f911052e1be46242b46bf3c2762227ff37c000e5fe38727638096f3a17fbfe1709060200160405180910390a2505050565b806000811180156126af575060025481105b6126cb5760405162461bcd60e51b8152600401610a29906139cc565b60008281526005602081815260408084208151610160810183528154815260018201546001600160a01b039081169482019490945260028201549093169183019190915260038101546060830152600481015460808301528083015460a0830152600681015460c0830152600781015486949360e084019160ff169081111561275657612756613169565b600581111561276757612767613169565b815260200160088201805461277b90613992565b80601f01602080910402602001604051908101604052809291908181526020018280546127a790613992565b80156127f45780601f106127c9576101008083540402835291602001916127f4565b820191906000526020600020905b8154815290600101906020018083116127d757829003601f168201915b50505091835250506009820154602080830191909152600a909201546001600160a01b03908116604090920191909152908201519192501633148061284e575080604001516001600160a01b0316336001600160a01b0316145b61286a5760405162461bcd60e51b8152600401610a2990613bac565b600084815260056020526040812090600782015460ff16600581111561289257612892613169565b146128df5760405162461bcd60e51b815260206004820152601b60248201527f43616e6e6f742063616e63656c2066756e64656420657363726f7700000000006044820152606401610a29565b60078101805460ff19166004179055600a8101546001600160a01b03166129ad576001810154600482015460038301546000926001600160a01b03169161292591613a75565b604051600081818185875af1925050503d8060008114612961576040519150601f19603f3d011682016040523d82523d6000602084013e612966565b606091505b50509050806129a75760405162461bcd60e51b815260206004820152600d60248201526c1499599d5b990819985a5b1959609a1b6044820152606401610a29565b50612317565b600181015460048201546003830154612317926001600160a01b0316916129d391613a75565b600a8401546001600160a01b03169190612de5565b6129f0613100565b600082815260076020908152604091829020825160c0810184528154815260018201546001600160a01b0316928101929092526002810180549293919291840191612a3a90613992565b80601f0160208091040260200160405190810160405280929190818152602001828054612a6690613992565b8015612ab35780601f10612a8857610100808354040283529160200191612ab3565b820191906000526020600020905b815481529060010190602001808311612a9657829003601f168201915b50505091835250506003828101546020830152600483015460409092019160ff1690811115612ae457612ae4613169565b6003811115612af557612af5613169565b81526004919091015461010090046001600160a01b031660209091015292915050565b612b20612e44565b6001600160a01b038216600081815260096020908152604091829020805460ff191685151590811790915591519182527fd86c88b4a367d9b81a6e00c9d3f7d01657bffef358fa8968c91c045ae99f0d529101611d87565b612b80612e44565b6001600160a01b038516612bce5760405162461bcd60e51b8152602060048201526015602482015274496e76616c696420746f6b656e206164647265737360581b6044820152606401610a29565b6040805160a0810182526001600160a01b03878116808352602080840189815284860189815260ff8916606087015287151560808701526000938452600a90925294909120835181546001600160a01b03191693169290921782559251600182015591519091906002820190612c449082613ad6565b5060608201516003909101805460809093015115156101000261ffff1990931660ff909216919091179190911790556001600160a01b03851660008181526009602052604090819020805484151560ff1991909116179055518591907f0e8d2a0dd461f1afbb33378aa83c1b9a8a883dc54fed83a43b1e14561b33edef90612cd190851515815260200190565b60405180910390a35050505050565b612ce8612e44565b6001600160a01b038116612d1257604051631e4fbdf760e01b815260006004820152602401610a29565b612d1b81612f2a565b50565b600a602052600090815260409020805460018201546002830180546001600160a01b03909316939192612d5090613992565b80601f0160208091040260200160405190810160405280929190818152602001828054612d7c90613992565b8015612dc95780601f10612d9e57610100808354040283529160200191612dc9565b820191906000526020600020905b815481529060010190602001808311612dac57829003601f168201915b5050506003909301549192505060ff8082169161010090041685565b6040516001600160a01b0383811660248301526044820183905261250891859182169063a9059cbb906064015b604051602081830303815290604052915060e01b6020820180516001600160e01b038381831617835250505050612fe9565b6001546001600160a01b03163314610e095760405163118cdaa760e01b8152336004820152602401610a29565b612e7961305a565b6001805460ff60a01b191690557f5db9ee0a495bf2e6ff9c91a7834c1ba4fdd244a5e8aa4e537bd38aeae4b073aa335b6040516001600160a01b03909116815260200160405180910390a1565b600154600160a01b900460ff1615610e095760405163d93c066560e01b815260040160405180910390fd5b6040516001600160a01b0384811660248301528381166044830152606482018390526124db9186918216906323b872dd90608401612e12565b600180546001600160a01b038381166001600160a01b0319831681179093556040519116919082907f8be0079c531659141344cd1fd0a4f28419497f9722a3daafe3b4186f6b6457e090600090a35050565b612f84612ec6565b6001805460ff60a01b1916600160a01b1790557f62e78cea01bee320cd4e420270b5ea74000d11b0c9f74754ebdbfc544b05a258612ea93390565b600260005403612fe257604051633ee5aeb560e01b815260040160405180910390fd5b6002600055565b600080602060008451602086016000885af18061300c576040513d6000823e3d81fd5b50506000513d91508115613024578060011415613031565b6001600160a01b0384163b155b156124db57604051635274afe760e01b81526001600160a01b0385166004820152602401610a29565b600154600160a01b900460ff16610e0957604051638dfc202b60e01b815260040160405180910390fd5b6040518061016001604052806000815260200160006001600160a01b0316815260200160006001600160a01b0316815260200160008152602001600081526020016000815260200160008152602001600060058111156130e6576130e6613169565b815260606020820181905260006040830181905291015290565b6040518060c001604052806000815260200160006001600160a01b0316815260200160608152602001600081526020016000600381111561314357613143613169565b8152600060209091015290565b60006020828403121561316257600080fd5b5035919050565b634e487b7160e01b600052602160045260246000fd5b6006811061318f5761318f613169565b9052565b6000815180845260005b818110156131b95760208185018101518683018201520161319d565b506000602082860101526020601f19601f83011685010191505092915050565b60006101608d835260018060a01b03808e166020850152808d1660408501528b60608501528a60808501528960a08501528860c085015261321d60e085018961317f565b8161010085015261323082850188613193565b92508561012085015280851661014085015250509c9b505050505050505050505050565b80356001600160a01b038116811461326b57600080fd5b919050565b60006020828403121561328257600080fd5b61328b82613254565b9392505050565b600080604083850312156132a557600080fd5b50508035926020909101359150565b8481526080602082015260006132cd6080830186613193565b9315156040830152506060015292915050565b6020815260018060a01b038251166020820152602082015160408201526000604083015160a0606084015261331860c0840182613193565b905060ff60608501511660808401526080840151151560a08401528091505092915050565b8035801515811461326b57600080fd5b6000806040838503121561336057600080fd5b823591506133706020840161333d565b90509250929050565b60006020808301818452808551808352604092508286019150828160051b87010184880160005b838110156133f857603f19898403018552815160808151855288820151818a8701526133ce82870182613193565b838a01511515878b01526060938401519390960192909252505093860193908601906001016133a0565b509098975050505050505050565b6004811061318f5761318f613169565b868152600060018060a01b03808816602084015260c0604084015261343e60c0840188613193565b91508560608401526134536080840186613406565b80841660a084015250979650505050505050565b634e487b7160e01b600052604160045260246000fd5b6040516080810167ffffffffffffffff811182821017156134a0576134a0613467565b60405290565b604051601f8201601f1916810167ffffffffffffffff811182821017156134cf576134cf613467565b604052919050565b600082601f8301126134e857600080fd5b813567ffffffffffffffff81111561350257613502613467565b613515601f8201601f19166020016134a6565b81815284602083860101111561352a57600080fd5b816020850160208301376000918101602001919091529392505050565b60008060008060008060c0878903121561356057600080fd5b61356987613254565b955067ffffffffffffffff6020880135111561358457600080fd5b61359488602089013589016134d7565b94506040870135935067ffffffffffffffff606088013511156135b657600080fd5b6060870135870188601f8201126135cc57600080fd5b67ffffffffffffffff813511156135e5576135e5613467565b6135f56020823560051b016134a6565b81358082526020808301929160051b8401018b101561361357600080fd5b602083015b6020843560051b8501018110156136c25767ffffffffffffffff8135111561363f57600080fd5b803584016080818e03601f1901121561365757600080fd5b61365f61347d565b6020820135815267ffffffffffffffff6040830135111561367f57600080fd5b6136928e602060408501358501016134d7565b60208201526136a36060830161333d565b6040820152608091909101356060820152835260209283019201613618565b5094506136d491505060808801613254565b915060a087013590509295509295509295565b60208152815160208201526000602083015161370e60408401826001600160a01b03169052565b5060408301516001600160a01b03811660608401525060608301516080830152608083015160a083015260a083015160c083015260c083015160e083015260e08301516101006137608185018361317f565b808501519150506101606101208181860152613780610180860184613193565b9086015161014086810191909152909501516001600160a01b03169301929092525090919050565b600080604083850312156137bb57600080fd5b82359150602083013567ffffffffffffffff8111156137d957600080fd5b6137e5858286016134d7565b9150509250929050565b6000806040838503121561380257600080fd5b61380b83613254565b91506133706020840161333d565b60008060006060848603121561382e57600080fd5b61383784613254565b925061384560208501613254565b915061385360408501613254565b90509250925092565b60208082528251828201528201516001600160a01b0390811660408084019190915283015160c0606084015260009161389860e0850183613193565b91506060850151608085015260808501516138b660a0860182613406565b508060a08601511660c0850152508091505092915050565b600080600080600060a086880312156138e657600080fd5b6138ef86613254565b945060208601359350604086013567ffffffffffffffff81111561391257600080fd5b61391e888289016134d7565b935050606086013560ff8116811461393557600080fd5b91506139436080870161333d565b90509295509295909350565b60018060a01b038616815284602082015260a06040820152600061397660a0830186613193565b60ff949094166060830152509015156080909101529392505050565b600181811c908216806139a657607f821691505b6020821081036139c657634e487b7160e01b600052602260045260246000fd5b50919050565b6020808252600e908201526d496e76616c696420657363726f7760901b604082015260600190565b634e487b7160e01b600052601160045260246000fd5b8082028115828204841417613a2157613a216139f4565b92915050565b600082613a4457634e487b7160e01b600052601260045260246000fd5b500490565b81810381811115613a2157613a216139f4565b600060018201613a6e57613a6e6139f4565b5060010190565b80820180821115613a2157613a216139f4565b601f82111561250857600081815260208120601f850160051c81016020861015613aaf5750805b601f850160051c820191505b81811015613ace57828155600101613abb565b505050505050565b815167ffffffffffffffff811115613af057613af0613467565b613b0481613afe8454613992565b84613a88565b602080601f831160018114613b395760008415613b215750858301515b600019600386901b1c1916600185901b178555613ace565b600085815260208120601f198616915b82811015613b6857888601518255948401946001909101908401613b49565b5085821015613b865787850151600019600388901b60f8161c191681555b5050505050600190811b01905550565b634e487b7160e01b600052603260045260246000fd5b6020808252600e908201526d139bdd08185d5d1a1bdc9a5e995960921b604082015260600190565b602080825260119082015270115cd8dc9bddc81b9bdd08199d5b991959607a1b604082015260600190565b60208152600061328b602083018461319356fea26469706673582212200e79d8b4acf6d7ae3b05dee32b72c288aea9057e91c7709e0e4db82cfb325bd664736f6c63430008140033","opcodes":"PUSH1 0x80 PUSH1 0x40 MSTORE PUSH1 0x1 PUSH1 0x2 SSTORE CALLVALUE DUP1 ISZERO PUSH3 0x16 JUMPI PUSH1 0x0 DUP1 REVERT JUMPDEST POP PUSH1 0x1 PUSH1 0x0 SSTORE CALLER DUP1 PUSH3 0x43 JUMPI PUSH1 0x40 MLOAD PUSH4 0x1E4FBDF7 PUSH1 0xE0 SHL DUP2 MSTORE PUSH1 0x0 PUSH1 0x4 DUP3 ADD MSTORE PUSH1 0x24 ADD PUSH1 0x40 MLOAD DUP1 SWAP2 SUB SWAP1 REVERT JUMPDEST PUSH3 0x4E DUP2 PUSH3 0x55 JUMP JUMPDEST POP PUSH3 0xA7 JUMP JUMPDEST PUSH1 0x1 DUP1 SLOAD PUSH1 0x1 PUSH1 0x1 PUSH1 0xA0 SHL SUB DUP4 DUP2 AND PUSH1 0x1 PUSH1 0x1 PUSH1 0xA0 SHL SUB NOT DUP4 AND DUP2 OR SWAP1 SWAP4 SSTORE PUSH1 0x40 MLOAD SWAP2 AND SWAP2 SWAP1 DUP3 SWAP1 PUSH32 0x8BE0079C531659141344CD1FD0A4F28419497F9722A3DAAFE3B4186F6B6457E0 SWAP1 PUSH1 0x0 SWAP1 LOG3 POP POP JUMP JUMPDEST PUSH2 0x3C48 DUP1 PUSH3 0xB7 PUSH1 0x0 CODECOPY PUSH1 0x0 RETURN INVALID PUSH1 0x80 PUSH1 0x40 MSTORE PUSH1 0x4 CALLDATASIZE LT PUSH2 0x21A JUMPI PUSH1 0x0 CALLDATALOAD PUSH1 0xE0 SHR DUP1 PUSH4 0x7D19E596 GT PUSH2 0x123 JUMPI DUP1 PUSH4 0xBE9157CF GT PUSH2 0xAB JUMPI DUP1 PUSH4 0xE7986466 GT PUSH2 0x6F JUMPI DUP1 PUSH4 0xE7986466 EQ PUSH2 0x65E JUMPI DUP1 PUSH4 0xE81D7875 EQ PUSH2 0x67E JUMPI DUP1 PUSH4 0xF1C6BDF8 EQ PUSH2 0x69E JUMPI DUP1 PUSH4 0xF2FDE38B EQ PUSH2 0x6BE JUMPI DUP1 PUSH4 0xF5DAB711 EQ PUSH2 0x6DE JUMPI PUSH1 0x0 DUP1 REVERT JUMPDEST DUP1 PUSH4 0xBE9157CF EQ PUSH2 0x5BE JUMPI DUP1 PUSH4 0xC8DB44E3 EQ PUSH2 0x5DE JUMPI DUP1 PUSH4 0xC9C31AF5 EQ PUSH2 0x5FE JUMPI DUP1 PUSH4 0xE0182436 EQ PUSH2 0x611 JUMPI DUP1 PUSH4 0xE3A96CBD EQ PUSH2 0x631 JUMPI PUSH1 0x0 DUP1 REVERT JUMPDEST DUP1 PUSH4 0x8DA5CB5B GT PUSH2 0xF2 JUMPI DUP1 PUSH4 0x8DA5CB5B EQ PUSH2 0x50C JUMPI DUP1 PUSH4 0x900ED178 EQ PUSH2 0x53E JUMPI DUP1 PUSH4 0x97E99A80 EQ PUSH2 0x55E JUMPI DUP1 PUSH4 0xB3066D49 EQ PUSH2 0x57E JUMPI DUP1 PUSH4 0xBC3A868F EQ PUSH2 0x59E JUMPI PUSH1 0x0 DUP1 REVERT JUMPDEST DUP1 PUSH4 0x7D19E596 EQ PUSH2 0x494 JUMPI DUP1 PUSH4 0x8243AF1D EQ PUSH2 0x4C1 JUMPI DUP1 PUSH4 0x8456CB59 EQ PUSH2 0x4E1 JUMPI DUP1 PUSH4 0x89CB29DD EQ PUSH2 0x4F6 JUMPI PUSH1 0x0 DUP1 REVERT JUMPDEST DUP1 PUSH4 0x476343EE GT PUSH2 0x1A6 JUMPI DUP1 PUSH4 0x5BF54728 GT PUSH2 0x175 JUMPI DUP1 PUSH4 0x5BF54728 EQ PUSH2 0x3FB JUMPI DUP1 PUSH4 0x5C975ABB EQ PUSH2 0x40E JUMPI DUP1 PUSH4 0x5F81A57C EQ PUSH2 0x439 JUMPI DUP1 PUSH4 0x68C4AC26 EQ PUSH2 0x44F JUMPI DUP1 PUSH4 0x715018A6 EQ PUSH2 0x47F JUMPI PUSH1 0x0 DUP1 REVERT JUMPDEST DUP1 PUSH4 0x476343EE EQ PUSH2 0x388 JUMPI DUP1 PUSH4 0x486265C6 EQ PUSH2 0x39D JUMPI DUP1 PUSH4 0x560D52D4 EQ PUSH2 0x3B4 JUMPI DUP1 PUSH4 0x564A565D EQ PUSH2 0x3C9 JUMPI PUSH1 0x0 DUP1 REVERT JUMPDEST DUP1 PUSH4 0x1F69565F GT PUSH2 0x1ED JUMPI DUP1 PUSH4 0x1F69565F EQ PUSH2 0x2E0 JUMPI DUP1 PUSH4 0x30815EEE EQ PUSH2 0x30D JUMPI DUP1 PUSH4 0x34B25EE2 EQ PUSH2 0x324 JUMPI DUP1 PUSH4 0x3F4BA83A EQ PUSH2 0x346 JUMPI DUP1 PUSH4 0x42C549C0 EQ PUSH2 0x35B JUMPI PUSH1 0x0 DUP1 REVERT JUMPDEST DUP1 PUSH4 0x12F52EE EQ PUSH2 0x21F JUMPI DUP1 PUSH4 0x13114A9D EQ PUSH2 0x25F JUMPI DUP1 PUSH4 0x19FFA563 EQ PUSH2 0x283 JUMPI DUP1 PUSH4 0x1C376C63 EQ PUSH2 0x2B0 JUMPI JUMPDEST PUSH1 0x0 DUP1 REVERT JUMPDEST CALLVALUE DUP1 ISZERO PUSH2 0x22B JUMPI PUSH1 0x0 DUP1 REVERT JUMPDEST POP PUSH2 0x23F PUSH2 0x23A CALLDATASIZE PUSH1 0x4 PUSH2 0x3150 JUMP JUMPDEST PUSH2 0x70F JUMP JUMPDEST PUSH1 0x40 MLOAD PUSH2 0x256 SWAP12 SWAP11 SWAP10 SWAP9 SWAP8 SWAP7 SWAP6 SWAP5 SWAP4 SWAP3 SWAP2 SWAP1 PUSH2 0x31D9 JUMP JUMPDEST PUSH1 0x40 MLOAD DUP1 SWAP2 SUB SWAP1 RETURN JUMPDEST CALLVALUE DUP1 ISZERO PUSH2 0x26B JUMPI PUSH1 0x0 DUP1 REVERT JUMPDEST POP PUSH2 0x275 PUSH1 0x4 SLOAD DUP2 JUMP JUMPDEST PUSH1 0x40 MLOAD SWAP1 DUP2 MSTORE PUSH1 0x20 ADD PUSH2 0x256 JUMP JUMPDEST CALLVALUE DUP1 ISZERO PUSH2 0x28F JUMPI PUSH1 0x0 DUP1 REVERT JUMPDEST POP PUSH2 0x275 PUSH2 0x29E CALLDATASIZE PUSH1 0x4 PUSH2 0x3270 JUMP JUMPDEST PUSH1 0x8 PUSH1 0x20 MSTORE PUSH1 0x0 SWAP1 DUP2 MSTORE PUSH1 0x40 SWAP1 KECCAK256 SLOAD DUP2 JUMP JUMPDEST CALLVALUE DUP1 ISZERO PUSH2 0x2BC JUMPI PUSH1 0x0 DUP1 REVERT JUMPDEST POP PUSH2 0x2D0 PUSH2 0x2CB CALLDATASIZE PUSH1 0x4 PUSH2 0x3292 JUMP JUMPDEST PUSH2 0x80B JUMP JUMPDEST PUSH1 0x40 MLOAD PUSH2 0x256 SWAP5 SWAP4 SWAP3 SWAP2 SWAP1 PUSH2 0x32B4 JUMP JUMPDEST CALLVALUE DUP1 ISZERO PUSH2 0x2EC JUMPI PUSH1 0x0 DUP1 REVERT JUMPDEST POP PUSH2 0x300 PUSH2 0x2FB CALLDATASIZE PUSH1 0x4 PUSH2 0x3270 JUMP JUMPDEST PUSH2 0x8E4 JUMP JUMPDEST PUSH1 0x40 MLOAD PUSH2 0x256 SWAP2 SWAP1 PUSH2 0x32E0 JUMP JUMPDEST CALLVALUE DUP1 ISZERO PUSH2 0x319 JUMPI PUSH1 0x0 DUP1 REVERT JUMPDEST POP PUSH2 0x275 PUSH3 0x278D00 DUP2 JUMP JUMPDEST CALLVALUE DUP1 ISZERO PUSH2 0x330 JUMPI PUSH1 0x0 DUP1 REVERT JUMPDEST POP PUSH2 0x344 PUSH2 0x33F CALLDATASIZE PUSH1 0x4 PUSH2 0x334D JUMP JUMPDEST PUSH2 0x9FB JUMP JUMPDEST STOP JUMPDEST CALLVALUE DUP1 ISZERO PUSH2 0x352 JUMPI PUSH1 0x0 DUP1 REVERT JUMPDEST POP PUSH2 0x344 PUSH2 0xDF9 JUMP JUMPDEST CALLVALUE DUP1 ISZERO PUSH2 0x367 JUMPI PUSH1 0x0 DUP1 REVERT JUMPDEST POP PUSH2 0x37B PUSH2 0x376 CALLDATASIZE PUSH1 0x4 PUSH2 0x3150 JUMP JUMPDEST PUSH2 0xE0B JUMP JUMPDEST PUSH1 0x40 MLOAD PUSH2 0x256 SWAP2 SWAP1 PUSH2 0x3379 JUMP JUMPDEST CALLVALUE DUP1 ISZERO PUSH2 0x394 JUMPI PUSH1 0x0 DUP1 REVERT JUMPDEST POP PUSH2 0x344 PUSH2 0xF38 JUMP JUMPDEST CALLVALUE DUP1 ISZERO PUSH2 0x3A9 JUMPI PUSH1 0x0 DUP1 REVERT JUMPDEST POP PUSH2 0x275 PUSH3 0x93A80 DUP2 JUMP JUMPDEST CALLVALUE DUP1 ISZERO PUSH2 0x3C0 JUMPI PUSH1 0x0 DUP1 REVERT JUMPDEST POP PUSH2 0x275 PUSH1 0xFA DUP2 JUMP JUMPDEST CALLVALUE DUP1 ISZERO PUSH2 0x3D5 JUMPI PUSH1 0x0 DUP1 REVERT JUMPDEST POP PUSH2 0x3E9 PUSH2 0x3E4 CALLDATASIZE PUSH1 0x4 PUSH2 0x3150 JUMP JUMPDEST PUSH2 0x1030 JUMP JUMPDEST PUSH1 0x40 MLOAD PUSH2 0x256 SWAP7 SWAP6 SWAP5 SWAP4 SWAP3 SWAP2 SWAP1 PUSH2 0x3416 JUMP JUMPDEST PUSH2 0x275 PUSH2 0x409 CALLDATASIZE PUSH1 0x4 PUSH2 0x3547 JUMP JUMPDEST PUSH2 0x1104 JUMP JUMPDEST CALLVALUE DUP1 ISZERO PUSH2 0x41A JUMPI PUSH1 0x0 DUP1 REVERT JUMPDEST POP PUSH1 0x1 SLOAD PUSH1 0x1 PUSH1 0xA0 SHL SWAP1 DIV PUSH1 0xFF AND JUMPDEST PUSH1 0x40 MLOAD SWAP1 ISZERO ISZERO DUP2 MSTORE PUSH1 0x20 ADD PUSH2 0x256 JUMP JUMPDEST CALLVALUE DUP1 ISZERO PUSH2 0x445 JUMPI PUSH1 0x0 DUP1 REVERT JUMPDEST POP PUSH2 0x275 PUSH1 0x3 SLOAD DUP2 JUMP JUMPDEST CALLVALUE DUP1 ISZERO PUSH2 0x45B JUMPI PUSH1 0x0 DUP1 REVERT JUMPDEST POP PUSH2 0x429 PUSH2 0x46A CALLDATASIZE PUSH1 0x4 PUSH2 0x3270 JUMP JUMPDEST PUSH1 0x9 PUSH1 0x20 MSTORE PUSH1 0x0 SWAP1 DUP2 MSTORE PUSH1 0x40 SWAP1 KECCAK256 SLOAD PUSH1 0xFF AND DUP2 JUMP JUMPDEST CALLVALUE DUP1 ISZERO PUSH2 0x48B JUMPI PUSH1 0x0 DUP1 REVERT JUMPDEST POP PUSH2 0x344 PUSH2 0x1790 JUMP JUMPDEST CALLVALUE DUP1 ISZERO PUSH2 0x4A0 JUMPI PUSH1 0x0 DUP1 REVERT JUMPDEST POP PUSH2 0x4B4 PUSH2 0x4AF CALLDATASIZE PUSH1 0x4 PUSH2 0x3150 JUMP JUMPDEST PUSH2 0x17A2 JUMP JUMPDEST PUSH1 0x40 MLOAD PUSH2 0x256 SWAP2 SWAP1 PUSH2 0x36E7 JUMP JUMPDEST CALLVALUE DUP1 ISZERO PUSH2 0x4CD JUMPI PUSH1 0x0 DUP1 REVERT JUMPDEST POP PUSH2 0x344 PUSH2 0x4DC CALLDATASIZE PUSH1 0x4 PUSH2 0x37A8 JUMP JUMPDEST PUSH2 0x1901 JUMP JUMPDEST CALLVALUE DUP1 ISZERO PUSH2 0x4ED JUMPI PUSH1 0x0 DUP1 REVERT JUMPDEST POP PUSH2 0x344 PUSH2 0x1CA2 JUMP JUMPDEST CALLVALUE DUP1 ISZERO PUSH2 0x502 JUMPI PUSH1 0x0 DUP1 REVERT JUMPDEST POP PUSH2 0x275 PUSH1 0x2 SLOAD DUP2 JUMP JUMPDEST CALLVALUE DUP1 ISZERO PUSH2 0x518 JUMPI PUSH1 0x0 DUP1 REVERT JUMPDEST POP PUSH1 0x1 SLOAD PUSH1 0x1 PUSH1 0x1 PUSH1 0xA0 SHL SUB AND JUMPDEST PUSH1 0x40 MLOAD PUSH1 0x1 PUSH1 0x1 PUSH1 0xA0 SHL SUB SWAP1 SWAP2 AND DUP2 MSTORE PUSH1 0x20 ADD PUSH2 0x256 JUMP JUMPDEST CALLVALUE DUP1 ISZERO PUSH2 0x54A JUMPI PUSH1 0x0 DUP1 REVERT JUMPDEST POP PUSH2 0x344 PUSH2 0x559 CALLDATASIZE PUSH1 0x4 PUSH2 0x37EF JUMP JUMPDEST PUSH2 0x1CB2 JUMP JUMPDEST CALLVALUE DUP1 ISZERO PUSH2 0x56A JUMPI PUSH1 0x0 DUP1 REVERT JUMPDEST POP PUSH2 0x344 PUSH2 0x579 CALLDATASIZE PUSH1 0x4 PUSH2 0x3292 JUMP JUMPDEST PUSH2 0x1D93 JUMP JUMPDEST CALLVALUE DUP1 ISZERO PUSH2 0x58A JUMPI PUSH1 0x0 DUP1 REVERT JUMPDEST POP PUSH2 0x344 PUSH2 0x599 CALLDATASIZE PUSH1 0x4 PUSH2 0x3819 JUMP JUMPDEST PUSH2 0x231E JUMP JUMPDEST CALLVALUE DUP1 ISZERO PUSH2 0x5AA JUMPI PUSH1 0x0 DUP1 REVERT JUMPDEST POP PUSH2 0x344 PUSH2 0x5B9 CALLDATASIZE PUSH1 0x4 PUSH2 0x3150 JUMP JUMPDEST PUSH2 0x2365 JUMP JUMPDEST CALLVALUE DUP1 ISZERO PUSH2 0x5CA JUMPI PUSH1 0x0 DUP1 REVERT JUMPDEST POP PUSH1 0xD SLOAD PUSH2 0x526 SWAP1 PUSH1 0x1 PUSH1 0x1 PUSH1 0xA0 SHL SUB AND DUP2 JUMP JUMPDEST CALLVALUE DUP1 ISZERO PUSH2 0x5EA JUMPI PUSH1 0x0 DUP1 REVERT JUMPDEST POP PUSH1 0xC SLOAD PUSH2 0x526 SWAP1 PUSH1 0x1 PUSH1 0x1 PUSH1 0xA0 SHL SUB AND DUP2 JUMP JUMPDEST PUSH2 0x344 PUSH2 0x60C CALLDATASIZE PUSH1 0x4 PUSH2 0x3150 JUMP JUMPDEST PUSH2 0x250D JUMP JUMPDEST CALLVALUE DUP1 ISZERO PUSH2 0x61D JUMPI PUSH1 0x0 DUP1 REVERT JUMPDEST POP PUSH2 0x344 PUSH2 0x62C CALLDATASIZE PUSH1 0x4 PUSH2 0x3150 JUMP JUMPDEST PUSH2 0x269D JUMP JUMPDEST CALLVALUE DUP1 ISZERO PUSH2 0x63D JUMPI PUSH1 0x0 DUP1 REVERT JUMPDEST POP PUSH2 0x651 PUSH2 0x64C CALLDATASIZE PUSH1 0x4 PUSH2 0x3150 JUMP JUMPDEST PUSH2 0x29E8 JUMP JUMPDEST PUSH1 0x40 MLOAD PUSH2 0x256 SWAP2 SWAP1 PUSH2 0x385C JUMP JUMPDEST CALLVALUE DUP1 ISZERO PUSH2 0x66A JUMPI PUSH1 0x0 DUP1 REVERT JUMPDEST POP PUSH2 0x344 PUSH2 0x679 CALLDATASIZE PUSH1 0x4 PUSH2 0x37EF JUMP JUMPDEST PUSH2 0x2B18 JUMP JUMPDEST CALLVALUE DUP1 ISZERO PUSH2 0x68A JUMPI PUSH1 0x0 DUP1 REVERT JUMPDEST POP PUSH2 0x344 PUSH2 0x699 CALLDATASIZE PUSH1 0x4 PUSH2 0x38CE JUMP JUMPDEST PUSH2 0x2B78 JUMP JUMPDEST CALLVALUE DUP1 ISZERO PUSH2 0x6AA JUMPI PUSH1 0x0 DUP1 REVERT JUMPDEST POP PUSH1 0xB SLOAD PUSH2 0x526 SWAP1 PUSH1 0x1 PUSH1 0x1 PUSH1 0xA0 SHL SUB AND DUP2 JUMP JUMPDEST CALLVALUE DUP1 ISZERO PUSH2 0x6CA JUMPI PUSH1 0x0 DUP1 REVERT JUMPDEST POP PUSH2 0x344 PUSH2 0x6D9 CALLDATASIZE PUSH1 0x4 PUSH2 0x3270 JUMP JUMPDEST PUSH2 0x2CE0 JUMP JUMPDEST CALLVALUE DUP1 ISZERO PUSH2 0x6EA JUMPI PUSH1 0x0 DUP1 REVERT JUMPDEST POP PUSH2 0x6FE PUSH2 0x6F9 CALLDATASIZE PUSH1 0x4 PUSH2 0x3270 JUMP JUMPDEST PUSH2 0x2D1E JUMP JUMPDEST PUSH1 0x40 MLOAD PUSH2 0x256 SWAP6 SWAP5 SWAP4 SWAP3 SWAP2 SWAP1 PUSH2 0x394F JUMP JUMPDEST PUSH1 0x5 PUSH1 0x20 DUP2 SWAP1 MSTORE PUSH1 0x0 SWAP2 DUP3 MSTORE PUSH1 0x40 SWAP1 SWAP2 KECCAK256 DUP1 SLOAD PUSH1 0x1 DUP3 ADD SLOAD PUSH1 0x2 DUP4 ADD SLOAD PUSH1 0x3 DUP5 ADD SLOAD PUSH1 0x4 DUP6 ADD SLOAD SWAP6 DUP6 ADD SLOAD PUSH1 0x6 DUP7 ADD SLOAD PUSH1 0x7 DUP8 ADD SLOAD PUSH1 0x8 DUP9 ADD DUP1 SLOAD SWAP8 SWAP10 PUSH1 0x1 PUSH1 0x1 PUSH1 0xA0 SHL SUB SWAP8 DUP9 AND SWAP10 SWAP8 SWAP1 SWAP7 AND SWAP8 SWAP5 SWAP7 SWAP4 SWAP5 SWAP3 SWAP4 PUSH1 0xFF SWAP1 SWAP3 AND SWAP3 PUSH2 0x772 SWAP1 PUSH2 0x3992 JUMP JUMPDEST DUP1 PUSH1 0x1F ADD PUSH1 0x20 DUP1 SWAP2 DIV MUL PUSH1 0x20 ADD PUSH1 0x40 MLOAD SWAP1 DUP2 ADD PUSH1 0x40 MSTORE DUP1 SWAP3 SWAP2 SWAP1 DUP2 DUP2 MSTORE PUSH1 0x20 ADD DUP3 DUP1 SLOAD PUSH2 0x79E SWAP1 PUSH2 0x3992 JUMP JUMPDEST DUP1 ISZERO PUSH2 0x7EB JUMPI DUP1 PUSH1 0x1F LT PUSH2 0x7C0 JUMPI PUSH2 0x100 DUP1 DUP4 SLOAD DIV MUL DUP4 MSTORE SWAP2 PUSH1 0x20 ADD SWAP2 PUSH2 0x7EB JUMP JUMPDEST DUP3 ADD SWAP2 SWAP1 PUSH1 0x0 MSTORE PUSH1 0x20 PUSH1 0x0 KECCAK256 SWAP1 JUMPDEST DUP2 SLOAD DUP2 MSTORE SWAP1 PUSH1 0x1 ADD SWAP1 PUSH1 0x20 ADD DUP1 DUP4 GT PUSH2 0x7CE JUMPI DUP3 SWAP1 SUB PUSH1 0x1F AND DUP3 ADD SWAP2 JUMPDEST POP POP POP POP PUSH1 0x9 DUP4 ADD SLOAD PUSH1 0xA SWAP1 SWAP4 ADD SLOAD SWAP2 SWAP3 SWAP2 PUSH1 0x1 PUSH1 0x1 PUSH1 0xA0 SHL SUB AND SWAP1 POP DUP12 JUMP JUMPDEST PUSH1 0x6 PUSH1 0x20 MSTORE DUP2 PUSH1 0x0 MSTORE PUSH1 0x40 PUSH1 0x0 KECCAK256 DUP2 DUP2 SLOAD DUP2 LT PUSH2 0x827 JUMPI PUSH1 0x0 DUP1 REVERT JUMPDEST SWAP1 PUSH1 0x0 MSTORE PUSH1 0x20 PUSH1 0x0 KECCAK256 SWAP1 PUSH1 0x4 MUL ADD PUSH1 0x0 SWAP2 POP SWAP2 POP POP DUP1 PUSH1 0x0 ADD SLOAD SWAP1 DUP1 PUSH1 0x1 ADD DUP1 SLOAD PUSH2 0x851 SWAP1 PUSH2 0x3992 JUMP JUMPDEST DUP1 PUSH1 0x1F ADD PUSH1 0x20 DUP1 SWAP2 DIV MUL PUSH1 0x20 ADD PUSH1 0x40 MLOAD SWAP1 DUP2 ADD PUSH1 0x40 MSTORE DUP1 SWAP3 SWAP2 SWAP1 DUP2 DUP2 MSTORE PUSH1 0x20 ADD DUP3 DUP1 SLOAD PUSH2 0x87D SWAP1 PUSH2 0x3992 JUMP JUMPDEST DUP1 ISZERO PUSH2 0x8CA JUMPI DUP1 PUSH1 0x1F LT PUSH2 0x89F JUMPI PUSH2 0x100 DUP1 DUP4 SLOAD DIV MUL DUP4 MSTORE SWAP2 PUSH1 0x20 ADD SWAP2 PUSH2 0x8CA JUMP JUMPDEST DUP3 ADD SWAP2 SWAP1 PUSH1 0x0 MSTORE PUSH1 0x20 PUSH1 0x0 KECCAK256 SWAP1 JUMPDEST DUP2 SLOAD DUP2 MSTORE SWAP1 PUSH1 0x1 ADD SWAP1 PUSH1 0x20 ADD DUP1 DUP4 GT PUSH2 0x8AD JUMPI DUP3 SWAP1 SUB PUSH1 0x1F AND DUP3 ADD SWAP2 JUMPDEST POP POP POP POP PUSH1 0x2 DUP4 ADD SLOAD PUSH1 0x3 SWAP1 SWAP4 ADD SLOAD SWAP2 SWAP3 PUSH1 0xFF AND SWAP2 SWAP1 POP DUP5 JUMP JUMPDEST PUSH1 0x40 DUP1 MLOAD PUSH1 0xA0 DUP1 DUP3 ADD DUP4 MSTORE PUSH1 0x0 DUP1 DUP4 MSTORE PUSH1 0x20 DUP1 DUP5 ADD DUP3 SWAP1 MSTORE PUSH1 0x60 DUP5 DUP7 ADD DUP2 SWAP1 MSTORE DUP5 ADD DUP3 SWAP1 MSTORE PUSH1 0x80 DUP5 ADD DUP3 SWAP1 MSTORE PUSH1 0x1 PUSH1 0x1 PUSH1 0xA0 SHL SUB DUP7 DUP2 AND DUP4 MSTORE PUSH1 0xA DUP3 MSTORE SWAP2 DUP6 SWAP1 KECCAK256 DUP6 MLOAD SWAP4 DUP5 ADD DUP7 MSTORE DUP1 SLOAD SWAP1 SWAP3 AND DUP4 MSTORE PUSH1 0x1 DUP3 ADD SLOAD SWAP1 DUP4 ADD MSTORE PUSH1 0x2 DUP2 ADD DUP1 SLOAD SWAP4 SWAP5 SWAP3 SWAP4 SWAP2 SWAP3 DUP5 ADD SWAP2 PUSH2 0x954 SWAP1 PUSH2 0x3992 JUMP JUMPDEST DUP1 PUSH1 0x1F ADD PUSH1 0x20 DUP1 SWAP2 DIV MUL PUSH1 0x20 ADD PUSH1 0x40 MLOAD SWAP1 DUP2 ADD PUSH1 0x40 MSTORE DUP1 SWAP3 SWAP2 SWAP1 DUP2 DUP2 MSTORE PUSH1 0x20 ADD DUP3 DUP1 SLOAD PUSH2 0x980 SWAP1 PUSH2 0x3992 JUMP JUMPDEST DUP1 ISZERO PUSH2 0x9CD JUMPI DUP1 PUSH1 0x1F LT PUSH2 0x9A2 JUMPI PUSH2 0x100 DUP1 DUP4 SLOAD DIV MUL DUP4 MSTORE SWAP2 PUSH1 0x20 ADD SWAP2 PUSH2 0x9CD JUMP JUMPDEST DUP3 ADD SWAP2 SWAP1 PUSH1 0x0 MSTORE PUSH1 0x20 PUSH1 0x0 KECCAK256 SWAP1 JUMPDEST DUP2 SLOAD DUP2 MSTORE SWAP1 PUSH1 0x1 ADD SWAP1 PUSH1 0x20 ADD DUP1 DUP4 GT PUSH2 0x9B0 JUMPI DUP3 SWAP1 SUB PUSH1 0x1F AND DUP3 ADD SWAP2 JUMPDEST POP POP POP SWAP2 DUP4 MSTORE POP POP PUSH1 0x3 SWAP2 SWAP1 SWAP2 ADD SLOAD PUSH1 0xFF DUP1 DUP3 AND PUSH1 0x20 DUP5 ADD MSTORE PUSH2 0x100 SWAP1 SWAP2 DIV AND ISZERO ISZERO PUSH1 0x40 SWAP1 SWAP2 ADD MSTORE SWAP3 SWAP2 POP POP JUMP JUMPDEST DUP2 PUSH1 0x0 DUP2 GT DUP1 ISZERO PUSH2 0xA0D JUMPI POP PUSH1 0x2 SLOAD DUP2 LT JUMPDEST PUSH2 0xA32 JUMPI PUSH1 0x40 MLOAD PUSH3 0x461BCD PUSH1 0xE5 SHL DUP2 MSTORE PUSH1 0x4 ADD PUSH2 0xA29 SWAP1 PUSH2 0x39CC JUMP JUMPDEST PUSH1 0x40 MLOAD DUP1 SWAP2 SUB SWAP1 REVERT JUMPDEST PUSH1 0xD SLOAD PUSH1 0x1 PUSH1 0x1 PUSH1 0xA0 SHL SUB AND CALLER EQ PUSH2 0xA8C JUMPI PUSH1 0x40 MLOAD PUSH3 0x461BCD PUSH1 0xE5 SHL DUP2 MSTORE PUSH1 0x20 PUSH1 0x4 DUP3 ADD DUP2 SWAP1 MSTORE PUSH1 0x24 DUP3 ADD MSTORE PUSH32 0x4F6E6C792064697370757465207265736F6C7574696F6E20636F6E7472616374 PUSH1 0x44 DUP3 ADD MSTORE PUSH1 0x64 ADD PUSH2 0xA29 JUMP JUMPDEST PUSH1 0x0 DUP4 DUP2 MSTORE PUSH1 0x5 PUSH1 0x20 SWAP1 DUP2 MSTORE PUSH1 0x40 DUP1 DUP4 KECCAK256 PUSH1 0x7 SWAP1 SWAP3 MSTORE SWAP1 SWAP2 KECCAK256 PUSH1 0x3 PUSH1 0x7 DUP4 ADD SLOAD PUSH1 0xFF AND PUSH1 0x5 DUP2 GT ISZERO PUSH2 0xAC0 JUMPI PUSH2 0xAC0 PUSH2 0x3169 JUMP JUMPDEST EQ PUSH2 0xB01 JUMPI PUSH1 0x40 MLOAD PUSH3 0x461BCD PUSH1 0xE5 SHL DUP2 MSTORE PUSH1 0x20 PUSH1 0x4 DUP3 ADD MSTORE PUSH1 0x11 PUSH1 0x24 DUP3 ADD MSTORE PUSH17 0x4E6F206163746976652064697370757465 PUSH1 0x78 SHL PUSH1 0x44 DUP3 ADD MSTORE PUSH1 0x64 ADD PUSH2 0xA29 JUMP JUMPDEST PUSH1 0x0 PUSH1 0x4 DUP3 ADD SLOAD PUSH1 0xFF AND PUSH1 0x3 DUP2 GT ISZERO PUSH2 0xB1C JUMPI PUSH2 0xB1C PUSH2 0x3169 JUMP JUMPDEST EQ PUSH2 0xB69 JUMPI PUSH1 0x40 MLOAD PUSH3 0x461BCD PUSH1 0xE5 SHL DUP2 MSTORE PUSH1 0x20 PUSH1 0x4 DUP3 ADD MSTORE PUSH1 0x18 PUSH1 0x24 DUP3 ADD MSTORE PUSH32 0x4469737075746520616C7265616479207265736F6C7665640000000000000000 PUSH1 0x44 DUP3 ADD MSTORE PUSH1 0x64 ADD PUSH2 0xA29 JUMP JUMPDEST PUSH1 0x4 DUP2 ADD DUP1 SLOAD PUSH2 0x100 CALLER MUL PUSH1 0x1 PUSH1 0x1 PUSH1 0xA8 SHL SUB NOT SWAP1 SWAP2 AND OR PUSH1 0x2 OR SWAP1 SSTORE PUSH1 0x0 DUP5 PUSH2 0xBA0 JUMPI PUSH1 0x2 DUP4 ADD SLOAD PUSH1 0x1 PUSH1 0x1 PUSH1 0xA0 SHL SUB AND PUSH2 0xBAF JUMP JUMPDEST PUSH1 0x1 DUP4 ADD SLOAD PUSH1 0x1 PUSH1 0x1 PUSH1 0xA0 SHL SUB AND JUMPDEST SWAP1 POP PUSH1 0x0 DUP6 PUSH2 0xBCB JUMPI PUSH1 0x1 DUP5 ADD SLOAD PUSH1 0x1 PUSH1 0x1 PUSH1 0xA0 SHL SUB AND PUSH2 0xBDA JUMP JUMPDEST PUSH1 0x2 DUP5 ADD SLOAD PUSH1 0x1 PUSH1 0x1 PUSH1 0xA0 SHL SUB AND JUMPDEST PUSH1 0xA DUP6 ADD SLOAD SWAP1 SWAP2 POP PUSH1 0x1 PUSH1 0x1 PUSH1 0xA0 SHL SUB AND PUSH2 0xC8B JUMPI PUSH1 0x3 DUP5 ADD SLOAD PUSH1 0x40 MLOAD PUSH1 0x0 SWAP2 PUSH1 0x1 PUSH1 0x1 PUSH1 0xA0 SHL SUB DUP6 AND SWAP2 DUP4 DUP2 DUP2 DUP2 DUP6 DUP8 GAS CALL SWAP3 POP POP POP RETURNDATASIZE DUP1 PUSH1 0x0 DUP2 EQ PUSH2 0xC3D JUMPI PUSH1 0x40 MLOAD SWAP2 POP PUSH1 0x1F NOT PUSH1 0x3F RETURNDATASIZE ADD AND DUP3 ADD PUSH1 0x40 MSTORE RETURNDATASIZE DUP3 MSTORE RETURNDATASIZE PUSH1 0x0 PUSH1 0x20 DUP5 ADD RETURNDATACOPY PUSH2 0xC42 JUMP JUMPDEST PUSH1 0x60 SWAP2 POP JUMPDEST POP POP SWAP1 POP DUP1 PUSH2 0xC85 JUMPI PUSH1 0x40 MLOAD PUSH3 0x461BCD PUSH1 0xE5 SHL DUP2 MSTORE PUSH1 0x20 PUSH1 0x4 DUP3 ADD MSTORE PUSH1 0xF PUSH1 0x24 DUP3 ADD MSTORE PUSH15 0x151C985B9CD9995C8819985A5B1959 PUSH1 0x8A SHL PUSH1 0x44 DUP3 ADD MSTORE PUSH1 0x64 ADD PUSH2 0xA29 JUMP JUMPDEST POP PUSH2 0xCAC JUMP JUMPDEST PUSH1 0x3 DUP5 ADD SLOAD PUSH1 0xA DUP6 ADD SLOAD PUSH2 0xCAC SWAP2 PUSH1 0x1 PUSH1 0x1 PUSH1 0xA0 SHL SUB SWAP1 SWAP2 AND SWAP1 DUP5 SWAP1 PUSH2 0x2DE5 JUMP JUMPDEST PUSH1 0x7 DUP5 ADD DUP1 SLOAD PUSH1 0xFF NOT AND PUSH1 0x2 OR SWAP1 SSTORE PUSH1 0x40 MLOAD DUP7 ISZERO ISZERO DUP2 MSTORE CALLER SWAP1 DUP9 SWAP1 PUSH32 0x8FDD4548A8481406B6E29C0D6F25E27CD72502F79F4ADF409468502E7920DABC SWAP1 PUSH1 0x20 ADD PUSH1 0x40 MLOAD DUP1 SWAP2 SUB SWAP1 LOG3 PUSH1 0xC SLOAD PUSH1 0x1 PUSH1 0x1 PUSH1 0xA0 SHL SUB AND ISZERO PUSH2 0xDF0 JUMPI PUSH1 0xC SLOAD PUSH1 0x3 DUP6 ADD SLOAD PUSH1 0x40 MLOAD PUSH1 0x1 PUSH3 0x323D7 PUSH1 0xE6 SHL SUB NOT DUP2 MSTORE PUSH1 0x1 PUSH1 0x1 PUSH1 0xA0 SHL SUB DUP6 DUP2 AND PUSH1 0x4 DUP4 ADD MSTORE PUSH1 0x1 PUSH1 0x24 DUP4 ADD MSTORE PUSH1 0x44 DUP3 ADD SWAP3 SWAP1 SWAP3 MSTORE SWAP2 AND SWAP1 PUSH4 0xFF370A40 SWAP1 PUSH1 0x64 ADD PUSH1 0x0 PUSH1 0x40 MLOAD DUP1 DUP4 SUB DUP2 PUSH1 0x0 DUP8 DUP1 EXTCODESIZE ISZERO DUP1 ISZERO PUSH2 0xD62 JUMPI PUSH1 0x0 DUP1 REVERT JUMPDEST POP GAS CALL ISZERO DUP1 ISZERO PUSH2 0xD76 JUMPI RETURNDATASIZE PUSH1 0x0 DUP1 RETURNDATACOPY RETURNDATASIZE PUSH1 0x0 REVERT JUMPDEST POP POP PUSH1 0xC SLOAD PUSH1 0x3 DUP8 ADD SLOAD PUSH1 0x40 MLOAD PUSH1 0x1 PUSH3 0x323D7 PUSH1 0xE6 SHL SUB NOT DUP2 MSTORE PUSH1 0x1 PUSH1 0x1 PUSH1 0xA0 SHL SUB DUP7 DUP2 AND PUSH1 0x4 DUP4 ADD MSTORE PUSH1 0x0 PUSH1 0x24 DUP4 ADD MSTORE PUSH1 0x44 DUP3 ADD SWAP3 SWAP1 SWAP3 MSTORE SWAP2 AND SWAP3 POP PUSH4 0xFF370A40 SWAP2 POP PUSH1 0x64 ADD PUSH1 0x0 PUSH1 0x40 MLOAD DUP1 DUP4 SUB DUP2 PUSH1 0x0 DUP8 DUP1 EXTCODESIZE ISZERO DUP1 ISZERO PUSH2 0xDD7 JUMPI PUSH1 0x0 DUP1 REVERT JUMPDEST POP GAS CALL ISZERO DUP1 ISZERO PUSH2 0xDEB JUMPI RETURNDATASIZE PUSH1 0x0 DUP1 RETURNDATACOPY RETURNDATASIZE PUSH1 0x0 REVERT JUMPDEST POP POP POP POP JUMPDEST POP POP POP POP POP POP POP JUMP JUMPDEST PUSH2 0xE01 PUSH2 0x2E44 JUMP JUMPDEST PUSH2 0xE09 PUSH2 0x2E71 JUMP JUMPDEST JUMP JUMPDEST PUSH1 0x60 PUSH1 0x6 PUSH1 0x0 DUP4 DUP2 MSTORE PUSH1 0x20 ADD SWAP1 DUP2 MSTORE PUSH1 0x20 ADD PUSH1 0x0 KECCAK256 DUP1 SLOAD DUP1 PUSH1 0x20 MUL PUSH1 0x20 ADD PUSH1 0x40 MLOAD SWAP1 DUP2 ADD PUSH1 0x40 MSTORE DUP1 SWAP3 SWAP2 SWAP1 DUP2 DUP2 MSTORE PUSH1 0x20 ADD PUSH1 0x0 SWAP1 JUMPDEST DUP3 DUP3 LT ISZERO PUSH2 0xF2D JUMPI DUP4 DUP3 SWAP1 PUSH1 0x0 MSTORE PUSH1 0x20 PUSH1 0x0 KECCAK256 SWAP1 PUSH1 0x4 MUL ADD PUSH1 0x40 MLOAD DUP1 PUSH1 0x80 ADD PUSH1 0x40 MSTORE SWAP1 DUP2 PUSH1 0x0 DUP3 ADD SLOAD DUP2 MSTORE PUSH1 0x20 ADD PUSH1 0x1 DUP3 ADD DUP1 SLOAD PUSH2 0xE7D SWAP1 PUSH2 0x3992 JUMP JUMPDEST DUP1 PUSH1 0x1F ADD PUSH1 0x20 DUP1 SWAP2 DIV MUL PUSH1 0x20 ADD PUSH1 0x40 MLOAD SWAP1 DUP2 ADD PUSH1 0x40 MSTORE DUP1 SWAP3 SWAP2 SWAP1 DUP2 DUP2 MSTORE PUSH1 0x20 ADD DUP3 DUP1 SLOAD PUSH2 0xEA9 SWAP1 PUSH2 0x3992 JUMP JUMPDEST DUP1 ISZERO PUSH2 0xEF6 JUMPI DUP1 PUSH1 0x1F LT PUSH2 0xECB JUMPI PUSH2 0x100 DUP1 DUP4 SLOAD DIV MUL DUP4 MSTORE SWAP2 PUSH1 0x20 ADD SWAP2 PUSH2 0xEF6 JUMP JUMPDEST DUP3 ADD SWAP2 SWAP1 PUSH1 0x0 MSTORE PUSH1 0x20 PUSH1 0x0 KECCAK256 SWAP1 JUMPDEST DUP2 SLOAD DUP2 MSTORE SWAP1 PUSH1 0x1 ADD SWAP1 PUSH1 0x20 ADD DUP1 DUP4 GT PUSH2 0xED9 JUMPI DUP3 SWAP1 SUB PUSH1 0x1F AND DUP3 ADD SWAP2 JUMPDEST POP POP POP SWAP2 DUP4 MSTORE POP POP PUSH1 0x2 DUP3 ADD SLOAD PUSH1 0xFF AND ISZERO ISZERO PUSH1 0x20 DUP1 DUP4 ADD SWAP2 SWAP1 SWAP2 MSTORE PUSH1 0x3 SWAP1 SWAP3 ADD SLOAD PUSH1 0x40 SWAP1 SWAP2 ADD MSTORE SWAP1 DUP3 MSTORE PUSH1 0x1 SWAP3 SWAP1 SWAP3 ADD SWAP2 ADD PUSH2 0xE40 JUMP JUMPDEST POP POP POP POP SWAP1 POP SWAP2 SWAP1 POP JUMP JUMPDEST PUSH2 0xF40 PUSH2 0x2E44 JUMP JUMPDEST SELFBALANCE DUP1 PUSH2 0xF84 JUMPI PUSH1 0x40 MLOAD PUSH3 0x461BCD PUSH1 0xE5 SHL DUP2 MSTORE PUSH1 0x20 PUSH1 0x4 DUP3 ADD MSTORE PUSH1 0x13 PUSH1 0x24 DUP3 ADD MSTORE PUSH19 0x4E6F206665657320746F207769746864726177 PUSH1 0x68 SHL PUSH1 0x44 DUP3 ADD MSTORE PUSH1 0x64 ADD PUSH2 0xA29 JUMP JUMPDEST PUSH1 0x0 PUSH2 0xF98 PUSH1 0x1 SLOAD PUSH1 0x1 PUSH1 0x1 PUSH1 0xA0 SHL SUB AND SWAP1 JUMP JUMPDEST PUSH1 0x1 PUSH1 0x1 PUSH1 0xA0 SHL SUB AND DUP3 PUSH1 0x40 MLOAD PUSH1 0x0 PUSH1 0x40 MLOAD DUP1 DUP4 SUB DUP2 DUP6 DUP8 GAS CALL SWAP3 POP POP POP RETURNDATASIZE DUP1 PUSH1 0x0 DUP2 EQ PUSH2 0xFE2 JUMPI PUSH1 0x40 MLOAD SWAP2 POP PUSH1 0x1F NOT PUSH1 0x3F RETURNDATASIZE ADD AND DUP3 ADD PUSH1 0x40 MSTORE RETURNDATASIZE DUP3 MSTORE RETURNDATASIZE PUSH1 0x0 PUSH1 0x20 DUP5 ADD RETURNDATACOPY PUSH2 0xFE7 JUMP JUMPDEST PUSH1 0x60 SWAP2 POP JUMPDEST POP POP SWAP1 POP DUP1 PUSH2 0x102C JUMPI PUSH1 0x40 MLOAD PUSH3 0x461BCD PUSH1 0xE5 SHL DUP2 MSTORE PUSH1 0x20 PUSH1 0x4 DUP3 ADD MSTORE PUSH1 0x11 PUSH1 0x24 DUP3 ADD MSTORE PUSH17 0x15DA5D1A191C985DD85B0819985A5B1959 PUSH1 0x7A SHL PUSH1 0x44 DUP3 ADD MSTORE PUSH1 0x64 ADD PUSH2 0xA29 JUMP JUMPDEST POP POP JUMP JUMPDEST PUSH1 0x7 PUSH1 0x20 MSTORE PUSH1 0x0 SWAP1 DUP2 MSTORE PUSH1 0x40 SWAP1 KECCAK256 DUP1 SLOAD PUSH1 0x1 DUP3 ADD SLOAD PUSH1 0x2 DUP4 ADD DUP1 SLOAD SWAP3 SWAP4 PUSH1 0x1 PUSH1 0x1 PUSH1 0xA0 SHL SUB SWAP1 SWAP3 AND SWAP3 PUSH2 0x1062 SWAP1 PUSH2 0x3992 JUMP JUMPDEST DUP1 PUSH1 0x1F ADD PUSH1 0x20 DUP1 SWAP2 DIV MUL PUSH1 0x20 ADD PUSH1 0x40 MLOAD SWAP1 DUP2 ADD PUSH1 0x40 MSTORE DUP1 SWAP3 SWAP2 SWAP1 DUP2 DUP2 MSTORE PUSH1 0x20 ADD DUP3 DUP1 SLOAD PUSH2 0x108E SWAP1 PUSH2 0x3992 JUMP JUMPDEST DUP1 ISZERO PUSH2 0x10DB JUMPI DUP1 PUSH1 0x1F LT PUSH2 0x10B0 JUMPI PUSH2 0x100 DUP1 DUP4 SLOAD DIV MUL DUP4 MSTORE SWAP2 PUSH1 0x20 ADD SWAP2 PUSH2 0x10DB JUMP JUMPDEST DUP3 ADD SWAP2 SWAP1 PUSH1 0x0 MSTORE PUSH1 0x20 PUSH1 0x0 KECCAK256 SWAP1 JUMPDEST DUP2 SLOAD DUP2 MSTORE SWAP1 PUSH1 0x1 ADD SWAP1 PUSH1 0x20 ADD DUP1 DUP4 GT PUSH2 0x10BE JUMPI DUP3 SWAP1 SUB PUSH1 0x1F AND DUP3 ADD SWAP2 JUMPDEST POP POP POP POP PUSH1 0x3 DUP4 ADD SLOAD PUSH1 0x4 SWAP1 SWAP4 ADD SLOAD SWAP2 SWAP3 SWAP2 PUSH1 0xFF DUP2 AND SWAP2 POP PUSH2 0x100 SWAP1 DIV PUSH1 0x1 PUSH1 0x1 PUSH1 0xA0 SHL SUB AND DUP7 JUMP JUMPDEST PUSH1 0x0 PUSH2 0x110E PUSH2 0x2EC6 JUMP JUMPDEST DUP3 PUSH1 0x1 PUSH1 0x1 PUSH1 0xA0 SHL SUB DUP2 AND ISZERO DUP1 PUSH2 0x113D JUMPI POP PUSH1 0x1 PUSH1 0x1 PUSH1 0xA0 SHL SUB DUP2 AND PUSH1 0x0 SWAP1 DUP2 MSTORE PUSH1 0x9 PUSH1 0x20 MSTORE PUSH1 0x40 SWAP1 KECCAK256 SLOAD PUSH1 0xFF AND JUMPDEST PUSH2 0x1195 JUMPI PUSH1 0x40 MLOAD PUSH3 0x461BCD PUSH1 0xE5 SHL DUP2 MSTORE PUSH1 0x20 PUSH1 0x4 DUP3 ADD MSTORE PUSH1 0x23 PUSH1 0x24 DUP3 ADD MSTORE PUSH32 0x546F6B656E206E6F7420737570706F72746564206F6E2042617365205365706F PUSH1 0x44 DUP3 ADD MSTORE PUSH3 0x6C6961 PUSH1 0xE8 SHL PUSH1 0x64 DUP3 ADD MSTORE PUSH1 0x84 ADD PUSH2 0xA29 JUMP JUMPDEST PUSH1 0x1 PUSH1 0x1 PUSH1 0xA0 SHL SUB DUP9 AND PUSH2 0x11DC JUMPI PUSH1 0x40 MLOAD PUSH3 0x461BCD PUSH1 0xE5 SHL DUP2 MSTORE PUSH1 0x20 PUSH1 0x4 DUP3 ADD MSTORE PUSH1 0xE PUSH1 0x24 DUP3 ADD MSTORE PUSH14 0x24B73B30B634B21039B2B63632B9 PUSH1 0x91 SHL PUSH1 0x44 DUP3 ADD MSTORE PUSH1 0x64 ADD PUSH2 0xA29 JUMP JUMPDEST CALLER PUSH1 0x1 PUSH1 0x1 PUSH1 0xA0 SHL SUB DUP10 AND SUB PUSH2 0x1234 JUMPI PUSH1 0x40 MLOAD PUSH3 0x461BCD PUSH1 0xE5 SHL DUP2 MSTORE PUSH1 0x20 PUSH1 0x4 DUP3 ADD MSTORE PUSH1 0x17 PUSH1 0x24 DUP3 ADD MSTORE PUSH32 0x43616E6E6F7420657363726F7720776974682073656C66000000000000000000 PUSH1 0x44 DUP3 ADD MSTORE PUSH1 0x64 ADD PUSH2 0xA29 JUMP JUMPDEST PUSH1 0x0 DUP1 PUSH1 0x1 PUSH1 0x1 PUSH1 0xA0 SHL SUB DUP7 AND DUP1 ISZERO ISZERO SWAP1 PUSH2 0x12C4 JUMPI PUSH1 0x0 CALLVALUE GT PUSH2 0x1299 JUMPI PUSH1 0x40 MLOAD PUSH3 0x461BCD PUSH1 0xE5 SHL DUP2 MSTORE PUSH1 0x20 PUSH1 0x4 DUP3 ADD MSTORE PUSH1 0x1D PUSH1 0x24 DUP3 ADD MSTORE PUSH32 0x416D6F756E74206D7573742062652067726561746572207468616E2030000000 PUSH1 0x44 DUP3 ADD MSTORE PUSH1 0x64 ADD PUSH2 0xA29 JUMP JUMPDEST PUSH2 0x2710 PUSH2 0x12A7 PUSH1 0xFA CALLVALUE PUSH2 0x3A0A JUMP JUMPDEST PUSH2 0x12B1 SWAP2 SWAP1 PUSH2 0x3A27 JUMP JUMPDEST SWAP2 POP PUSH2 0x12BD DUP3 CALLVALUE PUSH2 0x3A49 JUMP JUMPDEST SWAP3 POP PUSH2 0x13AD JUMP JUMPDEST PUSH1 0x0 DUP7 GT PUSH2 0x1314 JUMPI PUSH1 0x40 MLOAD PUSH3 0x461BCD PUSH1 0xE5 SHL DUP2 MSTORE PUSH1 0x20 PUSH1 0x4 DUP3 ADD MSTORE PUSH1 0x1D PUSH1 0x24 DUP3 ADD MSTORE PUSH32 0x416D6F756E74206D7573742062652067726561746572207468616E2030000000 PUSH1 0x44 DUP3 ADD MSTORE PUSH1 0x64 ADD PUSH2 0xA29 JUMP JUMPDEST PUSH1 0x1 PUSH1 0x1 PUSH1 0xA0 SHL SUB DUP8 AND PUSH1 0x0 SWAP1 DUP2 MSTORE PUSH1 0x9 PUSH1 0x20 MSTORE PUSH1 0x40 SWAP1 KECCAK256 SLOAD PUSH1 0xFF AND PUSH2 0x1372 JUMPI PUSH1 0x40 MLOAD PUSH3 0x461BCD PUSH1 0xE5 SHL DUP2 MSTORE PUSH1 0x20 PUSH1 0x4 DUP3 ADD MSTORE PUSH1 0x13 PUSH1 0x24 DUP3 ADD MSTORE PUSH19 0x151BDAD95B881B9BDD081CDD5C1C1BDC9D1959 PUSH1 0x6A SHL PUSH1 0x44 DUP3 ADD MSTORE PUSH1 0x64 ADD PUSH2 0xA29 JUMP JUMPDEST PUSH2 0x2710 PUSH2 0x1380 PUSH1 0xFA DUP9 PUSH2 0x3A0A JUMP JUMPDEST PUSH2 0x138A SWAP2 SWAP1 PUSH2 0x3A27 JUMP JUMPDEST SWAP2 POP PUSH2 0x1396 DUP3 DUP8 PUSH2 0x3A49 JUMP JUMPDEST SWAP3 POP PUSH2 0x13AD PUSH1 0x1 PUSH1 0x1 PUSH1 0xA0 SHL SUB DUP9 AND CALLER ADDRESS DUP10 PUSH2 0x2EF1 JUMP JUMPDEST PUSH1 0x2 DUP1 SLOAD PUSH1 0x0 SWAP2 DUP3 PUSH2 0x13BE DUP4 PUSH2 0x3A5C JUMP JUMPDEST SWAP2 SWAP1 POP SSTORE SWAP1 POP PUSH1 0x40 MLOAD DUP1 PUSH2 0x160 ADD PUSH1 0x40 MSTORE DUP1 DUP3 DUP2 MSTORE PUSH1 0x20 ADD CALLER PUSH1 0x1 PUSH1 0x1 PUSH1 0xA0 SHL SUB AND DUP2 MSTORE PUSH1 0x20 ADD DUP14 PUSH1 0x1 PUSH1 0x1 PUSH1 0xA0 SHL SUB AND DUP2 MSTORE PUSH1 0x20 ADD DUP6 DUP2 MSTORE PUSH1 0x20 ADD DUP5 DUP2 MSTORE PUSH1 0x20 ADD TIMESTAMP DUP2 MSTORE PUSH1 0x20 ADD PUSH3 0x278D00 TIMESTAMP PUSH2 0x1415 SWAP2 SWAP1 PUSH2 0x3A75 JUMP JUMPDEST DUP2 MSTORE PUSH1 0x20 ADD DUP4 PUSH2 0x1426 JUMPI PUSH1 0x0 PUSH2 0x1429 JUMP JUMPDEST PUSH1 0x1 JUMPDEST PUSH1 0x5 DUP2 GT ISZERO PUSH2 0x143A JUMPI PUSH2 0x143A PUSH2 0x3169 JUMP JUMPDEST DUP2 MSTORE PUSH1 0x20 DUP1 DUP3 ADD DUP15 SWAP1 MSTORE PUSH1 0x40 DUP1 DUP4 ADD DUP15 SWAP1 MSTORE PUSH1 0x1 PUSH1 0x1 PUSH1 0xA0 SHL SUB DUP1 DUP14 AND PUSH1 0x60 SWAP5 DUP6 ADD MSTORE PUSH1 0x0 DUP7 DUP2 MSTORE PUSH1 0x5 DUP1 DUP6 MSTORE SWAP1 DUP4 SWAP1 KECCAK256 DUP7 MLOAD DUP2 SSTORE SWAP4 DUP7 ADD MLOAD PUSH1 0x1 DUP1 DUP7 ADD DUP1 SLOAD SWAP3 DUP6 AND PUSH1 0x1 PUSH1 0x1 PUSH1 0xA0 SHL SUB NOT SWAP4 DUP5 AND OR SWAP1 SSTORE SWAP4 DUP8 ADD MLOAD PUSH1 0x2 DUP7 ADD DUP1 SLOAD SWAP2 SWAP1 SWAP5 AND SWAP2 AND OR SWAP1 SWAP2 SSTORE SWAP3 DUP5 ADD MLOAD PUSH1 0x3 DUP4 ADD SSTORE PUSH1 0x80 DUP5 ADD MLOAD PUSH1 0x4 DUP4 ADD SSTORE PUSH1 0xA0 DUP5 ADD MLOAD DUP3 DUP5 ADD SSTORE PUSH1 0xC0 DUP5 ADD MLOAD PUSH1 0x6 DUP4 ADD SSTORE PUSH1 0xE0 DUP5 ADD MLOAD PUSH1 0x7 DUP4 ADD DUP1 SLOAD SWAP4 SWAP5 SWAP2 SWAP4 SWAP1 SWAP3 PUSH1 0xFF NOT SWAP1 SWAP2 AND SWAP2 DUP5 SWAP1 DUP2 GT ISZERO PUSH2 0x14EF JUMPI PUSH2 0x14EF PUSH2 0x3169 JUMP JUMPDEST MUL OR SWAP1 SSTORE POP PUSH2 0x100 DUP3 ADD MLOAD PUSH1 0x8 DUP3 ADD SWAP1 PUSH2 0x1509 SWAP1 DUP3 PUSH2 0x3AD6 JUMP JUMPDEST POP PUSH2 0x120 DUP3 ADD MLOAD PUSH1 0x9 DUP3 ADD SSTORE PUSH2 0x140 SWAP1 SWAP2 ADD MLOAD PUSH1 0xA SWAP1 SWAP2 ADD DUP1 SLOAD PUSH1 0x1 PUSH1 0x1 PUSH1 0xA0 SHL SUB NOT AND PUSH1 0x1 PUSH1 0x1 PUSH1 0xA0 SHL SUB SWAP1 SWAP3 AND SWAP2 SWAP1 SWAP2 OR SWAP1 SSTORE DUP9 MLOAD ISZERO PUSH2 0x1679 JUMPI PUSH1 0x0 DUP1 JUMPDEST DUP11 MLOAD DUP2 LT ISZERO PUSH2 0x1614 JUMPI PUSH1 0x0 DUP4 DUP2 MSTORE PUSH1 0x6 PUSH1 0x20 MSTORE PUSH1 0x40 SWAP1 KECCAK256 DUP12 MLOAD DUP13 SWAP1 DUP4 SWAP1 DUP2 LT PUSH2 0x1574 JUMPI PUSH2 0x1574 PUSH2 0x3B96 JUMP JUMPDEST PUSH1 0x20 SWAP1 DUP2 MUL SWAP2 SWAP1 SWAP2 ADD DUP2 ADD MLOAD DUP3 SLOAD PUSH1 0x1 DUP2 DUP2 ADD DUP6 SSTORE PUSH1 0x0 SWAP5 DUP6 MSTORE SWAP4 DUP4 SWAP1 KECCAK256 DUP3 MLOAD PUSH1 0x4 SWAP1 SWAP3 MUL ADD SWAP1 DUP2 SSTORE SWAP2 DUP2 ADD MLOAD SWAP1 SWAP3 DUP3 ADD SWAP1 PUSH2 0x15B0 SWAP1 DUP3 PUSH2 0x3AD6 JUMP JUMPDEST POP PUSH1 0x40 DUP3 ADD MLOAD PUSH1 0x2 DUP3 ADD DUP1 SLOAD PUSH1 0xFF NOT AND SWAP2 ISZERO ISZERO SWAP2 SWAP1 SWAP2 OR SWAP1 SSTORE PUSH1 0x60 SWAP1 SWAP2 ADD MLOAD PUSH1 0x3 SWAP1 SWAP2 ADD SSTORE DUP11 MLOAD DUP12 SWAP1 DUP3 SWAP1 DUP2 LT PUSH2 0x15E9 JUMPI PUSH2 0x15E9 PUSH2 0x3B96 JUMP JUMPDEST PUSH1 0x20 MUL PUSH1 0x20 ADD ADD MLOAD PUSH1 0x0 ADD MLOAD DUP3 PUSH2 0x1600 SWAP2 SWAP1 PUSH2 0x3A75 JUMP JUMPDEST SWAP2 POP DUP1 PUSH2 0x160C DUP2 PUSH2 0x3A5C JUMP JUMPDEST SWAP2 POP POP PUSH2 0x1549 JUMP JUMPDEST POP DUP5 DUP2 EQ PUSH2 0x1677 JUMPI PUSH1 0x40 MLOAD PUSH3 0x461BCD PUSH1 0xE5 SHL DUP2 MSTORE PUSH1 0x20 PUSH1 0x4 DUP3 ADD MSTORE PUSH1 0x2A PUSH1 0x24 DUP3 ADD MSTORE PUSH32 0x4D696C6573746F6E6520616D6F756E7473206D75737420657175616C20657363 PUSH1 0x44 DUP3 ADD MSTORE PUSH10 0x1C9BDDC8185B5BDD5B9D PUSH1 0xB2 SHL PUSH1 0x64 DUP3 ADD MSTORE PUSH1 0x84 ADD PUSH2 0xA29 JUMP JUMPDEST POP JUMPDEST CALLER PUSH1 0x0 SWAP1 DUP2 MSTORE PUSH1 0x8 PUSH1 0x20 MSTORE PUSH1 0x40 DUP2 KECCAK256 DUP1 SLOAD SWAP2 PUSH2 0x1694 DUP4 PUSH2 0x3A5C JUMP JUMPDEST SWAP1 SWAP2 SSTORE POP POP PUSH1 0x1 PUSH1 0x1 PUSH1 0xA0 SHL SUB DUP13 AND PUSH1 0x0 SWAP1 DUP2 MSTORE PUSH1 0x8 PUSH1 0x20 MSTORE PUSH1 0x40 DUP2 KECCAK256 DUP1 SLOAD SWAP2 PUSH2 0x16BD DUP4 PUSH2 0x3A5C JUMP JUMPDEST SWAP2 SWAP1 POP SSTORE POP DUP2 PUSH2 0x16CD JUMPI CALLVALUE PUSH2 0x16CF JUMP JUMPDEST DUP7 JUMPDEST PUSH1 0x3 PUSH1 0x0 DUP3 DUP3 SLOAD PUSH2 0x16E0 SWAP2 SWAP1 PUSH2 0x3A75 JUMP JUMPDEST SWAP3 POP POP DUP2 SWAP1 SSTORE POP DUP3 PUSH1 0x4 PUSH1 0x0 DUP3 DUP3 SLOAD PUSH2 0x16F9 SWAP2 SWAP1 PUSH2 0x3A75 JUMP JUMPDEST SWAP1 SWAP2 SSTORE POP POP PUSH1 0x40 MLOAD DUP5 DUP2 MSTORE PUSH1 0x1 PUSH1 0x1 PUSH1 0xA0 SHL SUB DUP14 AND SWAP1 CALLER SWAP1 DUP4 SWAP1 PUSH32 0x9405AD0A6208539879349284D71265479B1623846F70303DA1F9890D6E8C10A7 SWAP1 PUSH1 0x20 ADD PUSH1 0x40 MLOAD DUP1 SWAP2 SUB SWAP1 LOG4 DUP2 ISZERO PUSH2 0x1781 JUMPI DUP1 PUSH32 0x911052E1BE46242B46BF3C2762227FF37C000E5FE38727638096F3A17FBFE170 DUP9 PUSH1 0x40 MLOAD PUSH2 0x1778 SWAP2 DUP2 MSTORE PUSH1 0x20 ADD SWAP1 JUMP JUMPDEST PUSH1 0x40 MLOAD DUP1 SWAP2 SUB SWAP1 LOG2 JUMPDEST SWAP12 SWAP11 POP POP POP POP POP POP POP POP POP POP POP JUMP JUMPDEST PUSH2 0x1798 PUSH2 0x2E44 JUMP JUMPDEST PUSH2 0xE09 PUSH1 0x0 PUSH2 0x2F2A JUMP JUMPDEST PUSH2 0x17AA PUSH2 0x3084 JUMP JUMPDEST PUSH1 0x0 DUP3 DUP2 MSTORE PUSH1 0x5 PUSH1 0x20 DUP2 DUP2 MSTORE PUSH1 0x40 SWAP3 DUP4 SWAP1 KECCAK256 DUP4 MLOAD PUSH2 0x160 DUP2 ADD DUP6 MSTORE DUP2 SLOAD DUP2 MSTORE PUSH1 0x1 DUP3 ADD SLOAD PUSH1 0x1 PUSH1 0x1 PUSH1 0xA0 SHL SUB SWAP1 DUP2 AND SWAP4 DUP3 ADD SWAP4 SWAP1 SWAP4 MSTORE PUSH1 0x2 DUP3 ADD SLOAD SWAP1 SWAP3 AND SWAP4 DUP3 ADD SWAP4 SWAP1 SWAP4 MSTORE PUSH1 0x3 DUP4 ADD SLOAD PUSH1 0x60 DUP3 ADD MSTORE PUSH1 0x4 DUP4 ADD SLOAD PUSH1 0x80 DUP3 ADD MSTORE DUP3 DUP3 ADD SLOAD PUSH1 0xA0 DUP3 ADD MSTORE PUSH1 0x6 DUP4 ADD SLOAD PUSH1 0xC0 DUP3 ADD MSTORE PUSH1 0x7 DUP4 ADD SLOAD SWAP1 SWAP3 SWAP2 PUSH1 0xE0 DUP5 ADD SWAP2 PUSH1 0xFF AND SWAP1 DUP2 GT ISZERO PUSH2 0x1836 JUMPI PUSH2 0x1836 PUSH2 0x3169 JUMP JUMPDEST PUSH1 0x5 DUP2 GT ISZERO PUSH2 0x1847 JUMPI PUSH2 0x1847 PUSH2 0x3169 JUMP JUMPDEST DUP2 MSTORE PUSH1 0x20 ADD PUSH1 0x8 DUP3 ADD DUP1 SLOAD PUSH2 0x185B SWAP1 PUSH2 0x3992 JUMP JUMPDEST DUP1 PUSH1 0x1F ADD PUSH1 0x20 DUP1 SWAP2 DIV MUL PUSH1 0x20 ADD PUSH1 0x40 MLOAD SWAP1 DUP2 ADD PUSH1 0x40 MSTORE DUP1 SWAP3 SWAP2 SWAP1 DUP2 DUP2 MSTORE PUSH1 0x20 ADD DUP3 DUP1 SLOAD PUSH2 0x1887 SWAP1 PUSH2 0x3992 JUMP JUMPDEST DUP1 ISZERO PUSH2 0x18D4 JUMPI DUP1 PUSH1 0x1F LT PUSH2 0x18A9 JUMPI PUSH2 0x100 DUP1 DUP4 SLOAD DIV MUL DUP4 MSTORE SWAP2 PUSH1 0x20 ADD SWAP2 PUSH2 0x18D4 JUMP JUMPDEST DUP3 ADD SWAP2 SWAP1 PUSH1 0x0 MSTORE PUSH1 0x20 PUSH1 0x0 KECCAK256 SWAP1 JUMPDEST DUP2 SLOAD DUP2 MSTORE SWAP1 PUSH1 0x1 ADD SWAP1 PUSH1 0x20 ADD DUP1 DUP4 GT PUSH2 0x18B7 JUMPI DUP3 SWAP1 SUB PUSH1 0x1F AND DUP3 ADD SWAP2 JUMPDEST POP POP POP SWAP2 DUP4 MSTORE POP POP PUSH1 0x9 DUP3 ADD SLOAD PUSH1 0x20 DUP3 ADD MSTORE PUSH1 0xA SWAP1 SWAP2 ADD SLOAD PUSH1 0x1 PUSH1 0x1 PUSH1 0xA0 SHL SUB AND PUSH1 0x40 SWAP1 SWAP2 ADD MSTORE SWAP3 SWAP2 POP POP JUMP JUMPDEST DUP2 PUSH1 0x0 DUP2 GT DUP1 ISZERO PUSH2 0x1913 JUMPI POP PUSH1 0x2 SLOAD DUP2 LT JUMPDEST PUSH2 0x192F JUMPI PUSH1 0x40 MLOAD PUSH3 0x461BCD PUSH1 0xE5 SHL DUP2 MSTORE PUSH1 0x4 ADD PUSH2 0xA29 SWAP1 PUSH2 0x39CC JUMP JUMPDEST PUSH1 0x0 DUP4 DUP2 MSTORE PUSH1 0x5 PUSH1 0x20 DUP2 DUP2 MSTORE PUSH1 0x40 DUP1 DUP5 KECCAK256 DUP2 MLOAD PUSH2 0x160 DUP2 ADD DUP4 MSTORE DUP2 SLOAD DUP2 MSTORE PUSH1 0x1 DUP3 ADD SLOAD PUSH1 0x1 PUSH1 0x1 PUSH1 0xA0 SHL SUB SWAP1 DUP2 AND SWAP5 DUP3 ADD SWAP5 SWAP1 SWAP5 MSTORE PUSH1 0x2 DUP3 ADD SLOAD SWAP1 SWAP4 AND SWAP2 DUP4 ADD SWAP2 SWAP1 SWAP2 MSTORE PUSH1 0x3 DUP2 ADD SLOAD PUSH1 0x60 DUP4 ADD MSTORE PUSH1 0x4 DUP2 ADD SLOAD PUSH1 0x80 DUP4 ADD MSTORE DUP1 DUP4 ADD SLOAD PUSH1 0xA0 DUP4 ADD MSTORE PUSH1 0x6 DUP2 ADD SLOAD PUSH1 0xC0 DUP4 ADD MSTORE PUSH1 0x7 DUP2 ADD SLOAD DUP8 SWAP5 SWAP4 PUSH1 0xE0 DUP5 ADD SWAP2 PUSH1 0xFF AND SWAP1 DUP2 GT ISZERO PUSH2 0x19BA JUMPI PUSH2 0x19BA PUSH2 0x3169 JUMP JUMPDEST PUSH1 0x5 DUP2 GT ISZERO PUSH2 0x19CB JUMPI PUSH2 0x19CB PUSH2 0x3169 JUMP JUMPDEST DUP2 MSTORE PUSH1 0x20 ADD PUSH1 0x8 DUP3 ADD DUP1 SLOAD PUSH2 0x19DF SWAP1 PUSH2 0x3992 JUMP JUMPDEST DUP1 PUSH1 0x1F ADD PUSH1 0x20 DUP1 SWAP2 DIV MUL PUSH1 0x20 ADD PUSH1 0x40 MLOAD SWAP1 DUP2 ADD PUSH1 0x40 MSTORE DUP1 SWAP3 SWAP2 SWAP1 DUP2 DUP2 MSTORE PUSH1 0x20 ADD DUP3 DUP1 SLOAD PUSH2 0x1A0B SWAP1 PUSH2 0x3992 JUMP JUMPDEST DUP1 ISZERO PUSH2 0x1A58 JUMPI DUP1 PUSH1 0x1F LT PUSH2 0x1A2D JUMPI PUSH2 0x100 DUP1 DUP4 SLOAD DIV MUL DUP4 MSTORE SWAP2 PUSH1 0x20 ADD SWAP2 PUSH2 0x1A58 JUMP JUMPDEST DUP3 ADD SWAP2 SWAP1 PUSH1 0x0 MSTORE PUSH1 0x20 PUSH1 0x0 KECCAK256 SWAP1 JUMPDEST DUP2 SLOAD DUP2 MSTORE SWAP1 PUSH1 0x1 ADD SWAP1 PUSH1 0x20 ADD DUP1 DUP4 GT PUSH2 0x1A3B JUMPI DUP3 SWAP1 SUB PUSH1 0x1F AND DUP3 ADD SWAP2 JUMPDEST POP POP POP SWAP2 DUP4 MSTORE POP POP PUSH1 0x9 DUP3 ADD SLOAD PUSH1 0x20 DUP1 DUP4 ADD SWAP2 SWAP1 SWAP2 MSTORE PUSH1 0xA SWAP1 SWAP3 ADD SLOAD PUSH1 0x1 PUSH1 0x1 PUSH1 0xA0 SHL SUB SWAP1 DUP2 AND PUSH1 0x40 SWAP1 SWAP3 ADD SWAP2 SWAP1 SWAP2 MSTORE SWAP1 DUP3 ADD MLOAD SWAP2 SWAP3 POP AND CALLER EQ DUP1 PUSH2 0x1AB2 JUMPI POP DUP1 PUSH1 0x40 ADD MLOAD PUSH1 0x1 PUSH1 0x1 PUSH1 0xA0 SHL SUB AND CALLER PUSH1 0x1 PUSH1 0x1 PUSH1 0xA0 SHL SUB AND EQ JUMPDEST PUSH2 0x1ACE JUMPI PUSH1 0x40 MLOAD PUSH3 0x461BCD PUSH1 0xE5 SHL DUP2 MSTORE PUSH1 0x4 ADD PUSH2 0xA29 SWAP1 PUSH2 0x3BAC JUMP JUMPDEST PUSH1 0x0 DUP6 DUP2 MSTORE PUSH1 0x5 PUSH1 0x20 MSTORE PUSH1 0x40 SWAP1 KECCAK256 PUSH1 0x1 PUSH1 0x7 DUP3 ADD SLOAD PUSH1 0xFF AND PUSH1 0x5 DUP2 GT ISZERO PUSH2 0x1AF7 JUMPI PUSH2 0x1AF7 PUSH2 0x3169 JUMP JUMPDEST EQ PUSH2 0x1B14 JUMPI PUSH1 0x40 MLOAD PUSH3 0x461BCD PUSH1 0xE5 SHL DUP2 MSTORE PUSH1 0x4 ADD PUSH2 0xA29 SWAP1 PUSH2 0x3BD4 JUMP JUMPDEST PUSH1 0x0 DUP7 DUP2 MSTORE PUSH1 0x7 PUSH1 0x20 MSTORE PUSH1 0x40 SWAP1 KECCAK256 PUSH1 0x3 ADD SLOAD ISZERO PUSH2 0x1B6B JUMPI PUSH1 0x40 MLOAD PUSH3 0x461BCD PUSH1 0xE5 SHL DUP2 MSTORE PUSH1 0x20 PUSH1 0x4 DUP3 ADD MSTORE PUSH1 0x15 PUSH1 0x24 DUP3 ADD MSTORE PUSH21 0x111A5CDC1D5D1948185B1C9958591E48199A5B1959 PUSH1 0x5A SHL PUSH1 0x44 DUP3 ADD MSTORE PUSH1 0x64 ADD PUSH2 0xA29 JUMP JUMPDEST PUSH1 0x40 DUP1 MLOAD PUSH1 0xC0 DUP2 ADD DUP3 MSTORE DUP8 DUP2 MSTORE CALLER PUSH1 0x20 DUP3 ADD MSTORE SWAP1 DUP2 ADD DUP7 SWAP1 MSTORE TIMESTAMP PUSH1 0x60 DUP3 ADD MSTORE PUSH1 0x80 DUP2 ADD PUSH1 0x0 DUP2 MSTORE PUSH1 0x0 PUSH1 0x20 SWAP2 DUP3 ADD DUP2 SWAP1 MSTORE DUP9 DUP2 MSTORE PUSH1 0x7 DUP3 MSTORE PUSH1 0x40 SWAP1 DUP2 SWAP1 KECCAK256 DUP4 MLOAD DUP2 SSTORE SWAP2 DUP4 ADD MLOAD PUSH1 0x1 DUP4 ADD DUP1 SLOAD PUSH1 0x1 PUSH1 0x1 PUSH1 0xA0 SHL SUB NOT AND PUSH1 0x1 PUSH1 0x1 PUSH1 0xA0 SHL SUB SWAP1 SWAP3 AND SWAP2 SWAP1 SWAP2 OR SWAP1 SSTORE DUP3 ADD MLOAD PUSH1 0x2 DUP3 ADD SWAP1 PUSH2 0x1BE4 SWAP1 DUP3 PUSH2 0x3AD6 JUMP JUMPDEST POP PUSH1 0x60 DUP3 ADD MLOAD DUP2 PUSH1 0x3 ADD SSTORE PUSH1 0x80 DUP3 ADD MLOAD DUP2 PUSH1 0x4 ADD PUSH1 0x0 PUSH2 0x100 EXP DUP2 SLOAD DUP2 PUSH1 0xFF MUL NOT AND SWAP1 DUP4 PUSH1 0x3 DUP2 GT ISZERO PUSH2 0x1C19 JUMPI PUSH2 0x1C19 PUSH2 0x3169 JUMP JUMPDEST MUL OR SWAP1 SSTORE POP PUSH1 0xA0 SWAP2 SWAP1 SWAP2 ADD MLOAD PUSH1 0x4 SWAP1 SWAP2 ADD DUP1 SLOAD PUSH2 0x100 PUSH1 0x1 PUSH1 0xA8 SHL SUB NOT AND PUSH2 0x100 PUSH1 0x1 PUSH1 0x1 PUSH1 0xA0 SHL SUB SWAP1 SWAP4 AND SWAP3 SWAP1 SWAP3 MUL SWAP2 SWAP1 SWAP2 OR SWAP1 SSTORE PUSH1 0x7 DUP2 ADD DUP1 SLOAD PUSH1 0xFF NOT AND PUSH1 0x3 OR SWAP1 SSTORE PUSH1 0x40 MLOAD CALLER SWAP1 DUP8 SWAP1 PUSH32 0xC523357A17C19A0DA11B08E9F4D7E4FBED304CBE1BE1D3583E4D5A677D75D709 SWAP1 PUSH2 0x1C92 SWAP1 DUP10 SWAP1 PUSH2 0x3BFF JUMP JUMPDEST PUSH1 0x40 MLOAD DUP1 SWAP2 SUB SWAP1 LOG3 POP POP POP POP POP POP JUMP JUMPDEST PUSH2 0x1CAA PUSH2 0x2E44 JUMP JUMPDEST PUSH2 0xE09 PUSH2 0x2F7C JUMP JUMPDEST PUSH2 0x1CBA PUSH2 0x2E44 JUMP JUMPDEST PUSH1 0x1 PUSH1 0x1 PUSH1 0xA0 SHL SUB DUP3 DUP2 AND PUSH1 0x0 SWAP1 DUP2 MSTORE PUSH1 0xA PUSH1 0x20 MSTORE PUSH1 0x40 SWAP1 KECCAK256 SLOAD AND PUSH2 0x1D18 JUMPI PUSH1 0x40 MLOAD PUSH3 0x461BCD PUSH1 0xE5 SHL DUP2 MSTORE PUSH1 0x20 PUSH1 0x4 DUP3 ADD MSTORE PUSH1 0x14 PUSH1 0x24 DUP3 ADD MSTORE PUSH20 0x151BDAD95B881B9BDD081C9959DA5CDD195C9959 PUSH1 0x62 SHL PUSH1 0x44 DUP3 ADD MSTORE PUSH1 0x64 ADD PUSH2 0xA29 JUMP JUMPDEST PUSH1 0x1 PUSH1 0x1 PUSH1 0xA0 SHL SUB DUP3 AND PUSH1 0x0 DUP2 DUP2 MSTORE PUSH1 0xA PUSH1 0x20 SWAP1 DUP2 MSTORE PUSH1 0x40 DUP1 DUP4 KECCAK256 PUSH1 0x3 ADD DUP1 SLOAD PUSH2 0xFF00 NOT AND PUSH2 0x100 DUP8 ISZERO ISZERO SWAP1 DUP2 MUL SWAP2 SWAP1 SWAP2 OR SWAP1 SWAP2 SSTORE PUSH1 0x9 DUP4 MSTORE SWAP3 DUP2 SWAP1 KECCAK256 DUP1 SLOAD PUSH1 0xFF NOT AND DUP5 OR SWAP1 SSTORE MLOAD SWAP2 DUP3 MSTORE PUSH32 0xD86C88B4A367D9B81A6E00C9D3F7D01657BFFEF358FA8968C91C045AE99F0D52 SWAP2 ADD JUMPDEST PUSH1 0x40 MLOAD DUP1 SWAP2 SUB SWAP1 LOG2 POP POP JUMP JUMPDEST DUP2 PUSH1 0x0 DUP2 GT DUP1 ISZERO PUSH2 0x1DA5 JUMPI POP PUSH1 0x2 SLOAD DUP2 LT JUMPDEST PUSH2 0x1DC1 JUMPI PUSH1 0x40 MLOAD PUSH3 0x461BCD PUSH1 0xE5 SHL DUP2 MSTORE PUSH1 0x4 ADD PUSH2 0xA29 SWAP1 PUSH2 0x39CC JUMP JUMPDEST PUSH1 0x0 DUP4 DUP2 MSTORE PUSH1 0x5 PUSH1 0x20 DUP2 DUP2 MSTORE PUSH1 0x40 DUP1 DUP5 KECCAK256 DUP2 MLOAD PUSH2 0x160 DUP2 ADD DUP4 MSTORE DUP2 SLOAD DUP2 MSTORE PUSH1 0x1 DUP3 ADD SLOAD PUSH1 0x1 PUSH1 0x1 PUSH1 0xA0 SHL SUB SWAP1 DUP2 AND SWAP5 DUP3 ADD SWAP5 SWAP1 SWAP5 MSTORE PUSH1 0x2 DUP3 ADD SLOAD SWAP1 SWAP4 AND SWAP2 DUP4 ADD SWAP2 SWAP1 SWAP2 MSTORE PUSH1 0x3 DUP2 ADD SLOAD PUSH1 0x60 DUP4 ADD MSTORE PUSH1 0x4 DUP2 ADD SLOAD PUSH1 0x80 DUP4 ADD MSTORE DUP1 DUP4 ADD SLOAD PUSH1 0xA0 DUP4 ADD MSTORE PUSH1 0x6 DUP2 ADD SLOAD PUSH1 0xC0 DUP4 ADD MSTORE PUSH1 0x7 DUP2 ADD SLOAD DUP8 SWAP5 SWAP4 PUSH1 0xE0 DUP5 ADD SWAP2 PUSH1 0xFF AND SWAP1 DUP2 GT ISZERO PUSH2 0x1E4C JUMPI PUSH2 0x1E4C PUSH2 0x3169 JUMP JUMPDEST PUSH1 0x5 DUP2 GT ISZERO PUSH2 0x1E5D JUMPI PUSH2 0x1E5D PUSH2 0x3169 JUMP JUMPDEST DUP2 MSTORE PUSH1 0x20 ADD PUSH1 0x8 DUP3 ADD DUP1 SLOAD PUSH2 0x1E71 SWAP1 PUSH2 0x3992 JUMP JUMPDEST DUP1 PUSH1 0x1F ADD PUSH1 0x20 DUP1 SWAP2 DIV MUL PUSH1 0x20 ADD PUSH1 0x40 MLOAD SWAP1 DUP2 ADD PUSH1 0x40 MSTORE DUP1 SWAP3 SWAP2 SWAP1 DUP2 DUP2 MSTORE PUSH1 0x20 ADD DUP3 DUP1 SLOAD PUSH2 0x1E9D SWAP1 PUSH2 0x3992 JUMP JUMPDEST DUP1 ISZERO PUSH2 0x1EEA JUMPI DUP1 PUSH1 0x1F LT PUSH2 0x1EBF JUMPI PUSH2 0x100 DUP1 DUP4 SLOAD DIV MUL DUP4 MSTORE SWAP2 PUSH1 0x20 ADD SWAP2 PUSH2 0x1EEA JUMP JUMPDEST DUP3 ADD SWAP2 SWAP1 PUSH1 0x0 MSTORE PUSH1 0x20 PUSH1 0x0 KECCAK256 SWAP1 JUMPDEST DUP2 SLOAD DUP2 MSTORE SWAP1 PUSH1 0x1 ADD SWAP1 PUSH1 0x20 ADD DUP1 DUP4 GT PUSH2 0x1ECD JUMPI DUP3 SWAP1 SUB PUSH1 0x1F AND DUP3 ADD SWAP2 JUMPDEST POP POP POP SWAP2 DUP4 MSTORE POP POP PUSH1 0x9 DUP3 ADD SLOAD PUSH1 0x20 DUP1 DUP4 ADD SWAP2 SWAP1 SWAP2 MSTORE PUSH1 0xA SWAP1 SWAP3 ADD SLOAD PUSH1 0x1 PUSH1 0x1 PUSH1 0xA0 SHL SUB SWAP1 DUP2 AND PUSH1 0x40 SWAP1 SWAP3 ADD SWAP2 SWAP1 SWAP2 MSTORE SWAP1 DUP3 ADD MLOAD SWAP2 SWAP3 POP AND CALLER EQ DUP1 PUSH2 0x1F44 JUMPI POP DUP1 PUSH1 0x40 ADD MLOAD PUSH1 0x1 PUSH1 0x1 PUSH1 0xA0 SHL SUB AND CALLER PUSH1 0x1 PUSH1 0x1 PUSH1 0xA0 SHL SUB AND EQ JUMPDEST PUSH2 0x1F60 JUMPI PUSH1 0x40 MLOAD PUSH3 0x461BCD PUSH1 0xE5 SHL DUP2 MSTORE PUSH1 0x4 ADD PUSH2 0xA29 SWAP1 PUSH2 0x3BAC JUMP JUMPDEST PUSH2 0x1F68 PUSH2 0x2FBF JUMP JUMPDEST PUSH1 0x0 DUP6 DUP2 MSTORE PUSH1 0x5 PUSH1 0x20 MSTORE PUSH1 0x40 SWAP1 KECCAK256 PUSH1 0x1 PUSH1 0x7 DUP3 ADD SLOAD PUSH1 0xFF AND PUSH1 0x5 DUP2 GT ISZERO PUSH2 0x1F91 JUMPI PUSH2 0x1F91 PUSH2 0x3169 JUMP JUMPDEST EQ PUSH2 0x1FAE JUMPI PUSH1 0x40 MLOAD PUSH3 0x461BCD PUSH1 0xE5 SHL DUP2 MSTORE PUSH1 0x4 ADD PUSH2 0xA29 SWAP1 PUSH2 0x3BD4 JUMP JUMPDEST DUP1 PUSH1 0x6 ADD SLOAD TIMESTAMP GT ISZERO PUSH2 0x1FF3 JUMPI PUSH1 0x40 MLOAD PUSH3 0x461BCD PUSH1 0xE5 SHL DUP2 MSTORE PUSH1 0x20 PUSH1 0x4 DUP3 ADD MSTORE PUSH1 0xE PUSH1 0x24 DUP3 ADD MSTORE PUSH14 0x115CD8DC9BDDC8195E1C1A5C9959 PUSH1 0x92 SHL PUSH1 0x44 DUP3 ADD MSTORE PUSH1 0x64 ADD PUSH2 0xA29 JUMP JUMPDEST PUSH1 0x0 DUP7 DUP2 MSTORE PUSH1 0x6 PUSH1 0x20 MSTORE PUSH1 0x40 DUP2 KECCAK256 SLOAD ISZERO PUSH2 0x20FD JUMPI PUSH1 0x0 DUP8 DUP2 MSTORE PUSH1 0x6 PUSH1 0x20 MSTORE PUSH1 0x40 SWAP1 KECCAK256 SLOAD DUP7 LT PUSH2 0x2058 JUMPI PUSH1 0x40 MLOAD PUSH3 0x461BCD PUSH1 0xE5 SHL DUP2 MSTORE PUSH1 0x20 PUSH1 0x4 DUP3 ADD MSTORE PUSH1 0x11 PUSH1 0x24 DUP3 ADD MSTORE PUSH17 0x496E76616C6964206D696C6573746F6E65 PUSH1 0x78 SHL PUSH1 0x44 DUP3 ADD MSTORE PUSH1 0x64 ADD PUSH2 0xA29 JUMP JUMPDEST PUSH1 0x0 DUP8 DUP2 MSTORE PUSH1 0x6 PUSH1 0x20 MSTORE PUSH1 0x40 DUP2 KECCAK256 DUP1 SLOAD DUP9 SWAP1 DUP2 LT PUSH2 0x2078 JUMPI PUSH2 0x2078 PUSH2 0x3B96 JUMP JUMPDEST PUSH1 0x0 SWAP2 DUP3 MSTORE PUSH1 0x20 SWAP1 SWAP2 KECCAK256 PUSH1 0x4 SWAP1 SWAP2 MUL ADD PUSH1 0x2 DUP2 ADD SLOAD SWAP1 SWAP2 POP PUSH1 0xFF AND ISZERO PUSH2 0x20E0 JUMPI PUSH1 0x40 MLOAD PUSH3 0x461BCD PUSH1 0xE5 SHL DUP2 MSTORE PUSH1 0x20 PUSH1 0x4 DUP3 ADD MSTORE PUSH1 0x1B PUSH1 0x24 DUP3 ADD MSTORE PUSH32 0x4D696C6573746F6E6520616C726561647920636F6D706C657465640000000000 PUSH1 0x44 DUP3 ADD MSTORE PUSH1 0x64 ADD PUSH2 0xA29 JUMP JUMPDEST PUSH1 0x2 DUP2 ADD DUP1 SLOAD PUSH1 0xFF NOT AND PUSH1 0x1 OR SWAP1 SSTORE TIMESTAMP PUSH1 0x3 DUP3 ADD SSTORE SLOAD SWAP1 POP PUSH2 0x217B JUMP JUMPDEST PUSH1 0x1 DUP3 ADD SLOAD PUSH1 0x1 PUSH1 0x1 PUSH1 0xA0 SHL SUB AND CALLER EQ PUSH2 0x2165 JUMPI PUSH1 0x40 MLOAD PUSH3 0x461BCD PUSH1 0xE5 SHL DUP2 MSTORE PUSH1 0x20 PUSH1 0x4 DUP3 ADD MSTORE PUSH1 0x23 PUSH1 0x24 DUP3 ADD MSTORE PUSH32 0x4F6E6C792062757965722063616E2072656C656173652066756C6C207061796D PUSH1 0x44 DUP3 ADD MSTORE PUSH3 0x195B9D PUSH1 0xEA SHL PUSH1 0x64 DUP3 ADD MSTORE PUSH1 0x84 ADD PUSH2 0xA29 JUMP JUMPDEST POP PUSH1 0x3 DUP2 ADD SLOAD PUSH1 0x7 DUP3 ADD DUP1 SLOAD PUSH1 0xFF NOT AND PUSH1 0x2 OR SWAP1 SSTORE JUMPDEST PUSH1 0xA DUP3 ADD SLOAD PUSH1 0x1 PUSH1 0x1 PUSH1 0xA0 SHL SUB AND PUSH2 0x222A JUMPI PUSH1 0x2 DUP3 ADD SLOAD PUSH1 0x40 MLOAD PUSH1 0x0 SWAP2 PUSH1 0x1 PUSH1 0x1 PUSH1 0xA0 SHL SUB AND SWAP1 DUP4 SWAP1 DUP4 DUP2 DUP2 DUP2 DUP6 DUP8 GAS CALL SWAP3 POP POP POP RETURNDATASIZE DUP1 PUSH1 0x0 DUP2 EQ PUSH2 0x21DC JUMPI PUSH1 0x40 MLOAD SWAP2 POP PUSH1 0x1F NOT PUSH1 0x3F RETURNDATASIZE ADD AND DUP3 ADD PUSH1 0x40 MSTORE RETURNDATASIZE DUP3 MSTORE RETURNDATASIZE PUSH1 0x0 PUSH1 0x20 DUP5 ADD RETURNDATACOPY PUSH2 0x21E1 JUMP JUMPDEST PUSH1 0x60 SWAP2 POP JUMPDEST POP POP SWAP1 POP DUP1 PUSH2 0x2224 JUMPI PUSH1 0x40 MLOAD PUSH3 0x461BCD PUSH1 0xE5 SHL DUP2 MSTORE PUSH1 0x20 PUSH1 0x4 DUP3 ADD MSTORE PUSH1 0xF PUSH1 0x24 DUP3 ADD MSTORE PUSH15 0x151C985B9CD9995C8819985A5B1959 PUSH1 0x8A SHL PUSH1 0x44 DUP3 ADD MSTORE PUSH1 0x64 ADD PUSH2 0xA29 JUMP JUMPDEST POP PUSH2 0x224B JUMP JUMPDEST PUSH1 0x2 DUP3 ADD SLOAD PUSH1 0xA DUP4 ADD SLOAD PUSH2 0x224B SWAP2 PUSH1 0x1 PUSH1 0x1 PUSH1 0xA0 SHL SUB SWAP2 DUP3 AND SWAP2 AND DUP4 PUSH2 0x2DE5 JUMP JUMPDEST DUP7 PUSH32 0xF487D4E13E32569D69EC2608B5B1530450D715B84E0C81D0077B5B7E766DB1D1 DUP3 PUSH1 0x40 MLOAD PUSH2 0x227D SWAP2 DUP2 MSTORE PUSH1 0x20 ADD SWAP1 JUMP JUMPDEST PUSH1 0x40 MLOAD DUP1 SWAP2 SUB SWAP1 LOG2 PUSH1 0xC SLOAD PUSH1 0x1 PUSH1 0x1 PUSH1 0xA0 SHL SUB AND ISZERO PUSH2 0x230B JUMPI PUSH1 0xC SLOAD PUSH1 0x2 DUP4 ADD SLOAD PUSH1 0x40 MLOAD PUSH1 0x1 PUSH3 0x323D7 PUSH1 0xE6 SHL SUB NOT DUP2 MSTORE PUSH1 0x1 PUSH1 0x1 PUSH1 0xA0 SHL SUB SWAP2 DUP3 AND PUSH1 0x4 DUP3 ADD MSTORE PUSH1 0x1 PUSH1 0x24 DUP3 ADD MSTORE PUSH1 0x44 DUP2 ADD DUP5 SWAP1 MSTORE SWAP2 AND SWAP1 PUSH4 0xFF370A40 SWAP1 PUSH1 0x64 ADD PUSH1 0x0 PUSH1 0x40 MLOAD DUP1 DUP4 SUB DUP2 PUSH1 0x0 DUP8 DUP1 EXTCODESIZE ISZERO DUP1 ISZERO PUSH2 0x22F2 JUMPI PUSH1 0x0 DUP1 REVERT JUMPDEST POP GAS CALL ISZERO DUP1 ISZERO PUSH2 0x2306 JUMPI RETURNDATASIZE PUSH1 0x0 DUP1 RETURNDATACOPY RETURNDATASIZE PUSH1 0x0 REVERT JUMPDEST POP POP POP POP JUMPDEST POP POP PUSH2 0x2317 PUSH1 0x1 PUSH1 0x0 SSTORE JUMP JUMPDEST POP POP POP POP POP JUMP JUMPDEST PUSH2 0x2326 PUSH2 0x2E44 JUMP JUMPDEST PUSH1 0xB DUP1 SLOAD PUSH1 0x1 PUSH1 0x1 PUSH1 0xA0 SHL SUB SWAP5 DUP6 AND PUSH1 0x1 PUSH1 0x1 PUSH1 0xA0 SHL SUB NOT SWAP2 DUP3 AND OR SWAP1 SWAP2 SSTORE PUSH1 0xC DUP1 SLOAD SWAP4 DUP6 AND SWAP4 DUP3 AND SWAP4 SWAP1 SWAP4 OR SWAP1 SWAP3 SSTORE PUSH1 0xD DUP1 SLOAD SWAP2 SWAP1 SWAP4 AND SWAP2 AND OR SWAP1 SSTORE JUMP JUMPDEST DUP1 PUSH1 0x0 DUP2 GT DUP1 ISZERO PUSH2 0x2377 JUMPI POP PUSH1 0x2 SLOAD DUP2 LT JUMPDEST PUSH2 0x2393 JUMPI PUSH1 0x40 MLOAD PUSH3 0x461BCD PUSH1 0xE5 SHL DUP2 MSTORE PUSH1 0x4 ADD PUSH2 0xA29 SWAP1 PUSH2 0x39CC JUMP JUMPDEST PUSH1 0x0 DUP3 DUP2 MSTORE PUSH1 0x5 PUSH1 0x20 MSTORE PUSH1 0x40 SWAP1 KECCAK256 PUSH1 0x1 PUSH1 0x7 DUP3 ADD SLOAD PUSH1 0xFF AND PUSH1 0x5 DUP2 GT ISZERO PUSH2 0x23BC JUMPI PUSH2 0x23BC PUSH2 0x3169 JUMP JUMPDEST EQ PUSH2 0x23D9 JUMPI PUSH1 0x40 MLOAD PUSH3 0x461BCD PUSH1 0xE5 SHL DUP2 MSTORE PUSH1 0x4 ADD PUSH2 0xA29 SWAP1 PUSH2 0x3BD4 JUMP JUMPDEST DUP1 PUSH1 0x6 ADD SLOAD TIMESTAMP GT PUSH2 0x2421 JUMPI PUSH1 0x40 MLOAD PUSH3 0x461BCD PUSH1 0xE5 SHL DUP2 MSTORE PUSH1 0x20 PUSH1 0x4 DUP3 ADD MSTORE PUSH1 0x12 PUSH1 0x24 DUP3 ADD MSTORE PUSH18 0x115CD8DC9BDDC81B9BDD08195E1C1A5C9959 PUSH1 0x72 SHL PUSH1 0x44 DUP3 ADD MSTORE PUSH1 0x64 ADD PUSH2 0xA29 JUMP JUMPDEST PUSH1 0x7 DUP2 ADD DUP1 SLOAD PUSH1 0xFF NOT AND PUSH1 0x5 OR SWAP1 SSTORE PUSH1 0xA DUP2 ADD SLOAD PUSH1 0x1 PUSH1 0x1 PUSH1 0xA0 SHL SUB AND PUSH2 0x24E1 JUMPI PUSH1 0x1 DUP2 ADD SLOAD PUSH1 0x3 DUP3 ADD SLOAD PUSH1 0x40 MLOAD PUSH1 0x0 SWAP3 PUSH1 0x1 PUSH1 0x1 PUSH1 0xA0 SHL SUB AND SWAP2 SWAP1 DUP4 DUP2 DUP2 DUP2 DUP6 DUP8 GAS CALL SWAP3 POP POP POP RETURNDATASIZE DUP1 PUSH1 0x0 DUP2 EQ PUSH2 0x2495 JUMPI PUSH1 0x40 MLOAD SWAP2 POP PUSH1 0x1F NOT PUSH1 0x3F RETURNDATASIZE ADD AND DUP3 ADD PUSH1 0x40 MSTORE RETURNDATASIZE DUP3 MSTORE RETURNDATASIZE PUSH1 0x0 PUSH1 0x20 DUP5 ADD RETURNDATACOPY PUSH2 0x249A JUMP JUMPDEST PUSH1 0x60 SWAP2 POP JUMPDEST POP POP SWAP1 POP DUP1 PUSH2 0x24DB JUMPI PUSH1 0x40 MLOAD PUSH3 0x461BCD PUSH1 0xE5 SHL DUP2 MSTORE PUSH1 0x20 PUSH1 0x4 DUP3 ADD MSTORE PUSH1 0xD PUSH1 0x24 DUP3 ADD MSTORE PUSH13 0x1499599D5B990819985A5B1959 PUSH1 0x9A SHL PUSH1 0x44 DUP3 ADD MSTORE PUSH1 0x64 ADD PUSH2 0xA29 JUMP JUMPDEST POP POP POP POP JUMP JUMPDEST PUSH1 0x1 DUP2 ADD SLOAD PUSH1 0x3 DUP3 ADD SLOAD PUSH1 0xA DUP4 ADD SLOAD PUSH2 0x2508 SWAP3 PUSH1 0x1 PUSH1 0x1 PUSH1 0xA0 SHL SUB SWAP2 DUP3 AND SWAP3 SWAP2 AND SWAP1 PUSH2 0x2DE5 JUMP JUMPDEST POP POP POP JUMP JUMPDEST DUP1 PUSH1 0x0 DUP2 GT DUP1 ISZERO PUSH2 0x251F JUMPI POP PUSH1 0x2 SLOAD DUP2 LT JUMPDEST PUSH2 0x253B JUMPI PUSH1 0x40 MLOAD PUSH3 0x461BCD PUSH1 0xE5 SHL DUP2 MSTORE PUSH1 0x4 ADD PUSH2 0xA29 SWAP1 PUSH2 0x39CC JUMP JUMPDEST PUSH2 0x2543 PUSH2 0x2EC6 JUMP JUMPDEST PUSH1 0x0 DUP3 DUP2 MSTORE PUSH1 0x5 PUSH1 0x20 MSTORE PUSH1 0x40 DUP2 KECCAK256 SWAP1 PUSH1 0x7 DUP3 ADD SLOAD PUSH1 0xFF AND PUSH1 0x5 DUP2 GT ISZERO PUSH2 0x256B JUMPI PUSH2 0x256B PUSH2 0x3169 JUMP JUMPDEST EQ PUSH2 0x25AD JUMPI PUSH1 0x40 MLOAD PUSH3 0x461BCD PUSH1 0xE5 SHL DUP2 MSTORE PUSH1 0x20 PUSH1 0x4 DUP3 ADD MSTORE PUSH1 0x12 PUSH1 0x24 DUP3 ADD MSTORE PUSH18 0x457363726F77206E6F742070656E64696E67 PUSH1 0x70 SHL PUSH1 0x44 DUP3 ADD MSTORE PUSH1 0x64 ADD PUSH2 0xA29 JUMP JUMPDEST PUSH1 0x1 DUP2 ADD SLOAD PUSH1 0x1 PUSH1 0x1 PUSH1 0xA0 SHL SUB AND CALLER EQ PUSH2 0x25FF JUMPI PUSH1 0x40 MLOAD PUSH3 0x461BCD PUSH1 0xE5 SHL DUP2 MSTORE PUSH1 0x20 PUSH1 0x4 DUP3 ADD MSTORE PUSH1 0x13 PUSH1 0x24 DUP3 ADD MSTORE PUSH19 0x13DB9B1E48189D5E595C8818D85B88199D5B99 PUSH1 0x6A SHL PUSH1 0x44 DUP3 ADD MSTORE PUSH1 0x64 ADD PUSH2 0xA29 JUMP JUMPDEST DUP1 PUSH1 0x4 ADD SLOAD DUP2 PUSH1 0x3 ADD SLOAD PUSH2 0x2613 SWAP2 SWAP1 PUSH2 0x3A75 JUMP JUMPDEST CALLVALUE EQ PUSH2 0x2654 JUMPI PUSH1 0x40 MLOAD PUSH3 0x461BCD PUSH1 0xE5 SHL DUP2 MSTORE PUSH1 0x20 PUSH1 0x4 DUP3 ADD MSTORE PUSH1 0x10 PUSH1 0x24 DUP3 ADD MSTORE PUSH16 0x125B98DBDC9C9958DD08185B5BDD5B9D PUSH1 0x82 SHL PUSH1 0x44 DUP3 ADD MSTORE PUSH1 0x64 ADD PUSH2 0xA29 JUMP JUMPDEST PUSH1 0x7 DUP2 ADD DUP1 SLOAD PUSH1 0xFF NOT AND PUSH1 0x1 OR SWAP1 SSTORE PUSH1 0x40 MLOAD CALLVALUE DUP2 MSTORE DUP4 SWAP1 PUSH32 0x911052E1BE46242B46BF3C2762227FF37C000E5FE38727638096F3A17FBFE170 SWAP1 PUSH1 0x20 ADD PUSH1 0x40 MLOAD DUP1 SWAP2 SUB SWAP1 LOG2 POP POP POP JUMP JUMPDEST DUP1 PUSH1 0x0 DUP2 GT DUP1 ISZERO PUSH2 0x26AF JUMPI POP PUSH1 0x2 SLOAD DUP2 LT JUMPDEST PUSH2 0x26CB JUMPI PUSH1 0x40 MLOAD PUSH3 0x461BCD PUSH1 0xE5 SHL DUP2 MSTORE PUSH1 0x4 ADD PUSH2 0xA29 SWAP1 PUSH2 0x39CC JUMP JUMPDEST PUSH1 0x0 DUP3 DUP2 MSTORE PUSH1 0x5 PUSH1 0x20 DUP2 DUP2 MSTORE PUSH1 0x40 DUP1 DUP5 KECCAK256 DUP2 MLOAD PUSH2 0x160 DUP2 ADD DUP4 MSTORE DUP2 SLOAD DUP2 MSTORE PUSH1 0x1 DUP3 ADD SLOAD PUSH1 0x1 PUSH1 0x1 PUSH1 0xA0 SHL SUB SWAP1 DUP2 AND SWAP5 DUP3 ADD SWAP5 SWAP1 SWAP5 MSTORE PUSH1 0x2 DUP3 ADD SLOAD SWAP1 SWAP4 AND SWAP2 DUP4 ADD SWAP2 SWAP1 SWAP2 MSTORE PUSH1 0x3 DUP2 ADD SLOAD PUSH1 0x60 DUP4 ADD MSTORE PUSH1 0x4 DUP2 ADD SLOAD PUSH1 0x80 DUP4 ADD MSTORE DUP1 DUP4 ADD SLOAD PUSH1 0xA0 DUP4 ADD MSTORE PUSH1 0x6 DUP2 ADD SLOAD PUSH1 0xC0 DUP4 ADD MSTORE PUSH1 0x7 DUP2 ADD SLOAD DUP7 SWAP5 SWAP4 PUSH1 0xE0 DUP5 ADD SWAP2 PUSH1 0xFF AND SWAP1 DUP2 GT ISZERO PUSH2 0x2756 JUMPI PUSH2 0x2756 PUSH2 0x3169 JUMP JUMPDEST PUSH1 0x5 DUP2 GT ISZERO PUSH2 0x2767 JUMPI PUSH2 0x2767 PUSH2 0x3169 JUMP JUMPDEST DUP2 MSTORE PUSH1 0x20 ADD PUSH1 0x8 DUP3 ADD DUP1 SLOAD PUSH2 0x277B SWAP1 PUSH2 0x3992 JUMP JUMPDEST DUP1 PUSH1 0x1F ADD PUSH1 0x20 DUP1 SWAP2 DIV MUL PUSH1 0x20 ADD PUSH1 0x40 MLOAD SWAP1 DUP2 ADD PUSH1 0x40 MSTORE DUP1 SWAP3 SWAP2 SWAP1 DUP2 DUP2 MSTORE PUSH1 0x20 ADD DUP3 DUP1 SLOAD PUSH2 0x27A7 SWAP1 PUSH2 0x3992 JUMP JUMPDEST DUP1 ISZERO PUSH2 0x27F4 JUMPI DUP1 PUSH1 0x1F LT PUSH2 0x27C9 JUMPI PUSH2 0x100 DUP1 DUP4 SLOAD DIV MUL DUP4 MSTORE SWAP2 PUSH1 0x20 ADD SWAP2 PUSH2 0x27F4 JUMP JUMPDEST DUP3 ADD SWAP2 SWAP1 PUSH1 0x0 MSTORE PUSH1 0x20 PUSH1 0x0 KECCAK256 SWAP1 JUMPDEST DUP2 SLOAD DUP2 MSTORE SWAP1 PUSH1 0x1 ADD SWAP1 PUSH1 0x20 ADD DUP1 DUP4 GT PUSH2 0x27D7 JUMPI DUP3 SWAP1 SUB PUSH1 0x1F AND DUP3 ADD SWAP2 JUMPDEST POP POP POP SWAP2 DUP4 MSTORE POP POP PUSH1 0x9 DUP3 ADD SLOAD PUSH1 0x20 DUP1 DUP4 ADD SWAP2 SWAP1 SWAP2 MSTORE PUSH1 0xA SWAP1 SWAP3 ADD SLOAD PUSH1 0x1 PUSH1 0x1 PUSH1 0xA0 SHL SUB SWAP1 DUP2 AND PUSH1 0x40 SWAP1 SWAP3 ADD SWAP2 SWAP1 SWAP2 MSTORE SWAP1 DUP3 ADD MLOAD SWAP2 SWAP3 POP AND CALLER EQ DUP1 PUSH2 0x284E JUMPI POP DUP1 PUSH1 0x40 ADD MLOAD PUSH1 0x1 PUSH1 0x1 PUSH1 0xA0 SHL SUB AND CALLER PUSH1 0x1 PUSH1 0x1 PUSH1 0xA0 SHL SUB AND EQ JUMPDEST PUSH2 0x286A JUMPI PUSH1 0x40 MLOAD PUSH3 0x461BCD PUSH1 0xE5 SHL DUP2 MSTORE PUSH1 0x4 ADD PUSH2 0xA29 SWAP1 PUSH2 0x3BAC JUMP JUMPDEST PUSH1 0x0 DUP5 DUP2 MSTORE PUSH1 0x5 PUSH1 0x20 MSTORE PUSH1 0x40 DUP2 KECCAK256 SWAP1 PUSH1 0x7 DUP3 ADD SLOAD PUSH1 0xFF AND PUSH1 0x5 DUP2 GT ISZERO PUSH2 0x2892 JUMPI PUSH2 0x2892 PUSH2 0x3169 JUMP JUMPDEST EQ PUSH2 0x28DF JUMPI PUSH1 0x40 MLOAD PUSH3 0x461BCD PUSH1 0xE5 SHL DUP2 MSTORE PUSH1 0x20 PUSH1 0x4 DUP3 ADD MSTORE PUSH1 0x1B PUSH1 0x24 DUP3 ADD MSTORE PUSH32 0x43616E6E6F742063616E63656C2066756E64656420657363726F770000000000 PUSH1 0x44 DUP3 ADD MSTORE PUSH1 0x64 ADD PUSH2 0xA29 JUMP JUMPDEST PUSH1 0x7 DUP2 ADD DUP1 SLOAD PUSH1 0xFF NOT AND PUSH1 0x4 OR SWAP1 SSTORE PUSH1 0xA DUP2 ADD SLOAD PUSH1 0x1 PUSH1 0x1 PUSH1 0xA0 SHL SUB AND PUSH2 0x29AD JUMPI PUSH1 0x1 DUP2 ADD SLOAD PUSH1 0x4 DUP3 ADD SLOAD PUSH1 0x3 DUP4 ADD SLOAD PUSH1 0x0 SWAP3 PUSH1 0x1 PUSH1 0x1 PUSH1 0xA0 SHL SUB AND SWAP2 PUSH2 0x2925 SWAP2 PUSH2 0x3A75 JUMP JUMPDEST PUSH1 0x40 MLOAD PUSH1 0x0 DUP2 DUP2 DUP2 DUP6 DUP8 GAS CALL SWAP3 POP POP POP RETURNDATASIZE DUP1 PUSH1 0x0 DUP2 EQ PUSH2 0x2961 JUMPI PUSH1 0x40 MLOAD SWAP2 POP PUSH1 0x1F NOT PUSH1 0x3F RETURNDATASIZE ADD AND DUP3 ADD PUSH1 0x40 MSTORE RETURNDATASIZE DUP3 MSTORE RETURNDATASIZE PUSH1 0x0 PUSH1 0x20 DUP5 ADD RETURNDATACOPY PUSH2 0x2966 JUMP JUMPDEST PUSH1 0x60 SWAP2 POP JUMPDEST POP POP SWAP1 POP DUP1 PUSH2 0x29A7 JUMPI PUSH1 0x40 MLOAD PUSH3 0x461BCD PUSH1 0xE5 SHL DUP2 MSTORE PUSH1 0x20 PUSH1 0x4 DUP3 ADD MSTORE PUSH1 0xD PUSH1 0x24 DUP3 ADD MSTORE PUSH13 0x1499599D5B990819985A5B1959 PUSH1 0x9A SHL PUSH1 0x44 DUP3 ADD MSTORE PUSH1 0x64 ADD PUSH2 0xA29 JUMP JUMPDEST POP PUSH2 0x2317 JUMP JUMPDEST PUSH1 0x1 DUP2 ADD SLOAD PUSH1 0x4 DUP3 ADD SLOAD PUSH1 0x3 DUP4 ADD SLOAD PUSH2 0x2317 SWAP3 PUSH1 0x1 PUSH1 0x1 PUSH1 0xA0 SHL SUB AND SWAP2 PUSH2 0x29D3 SWAP2 PUSH2 0x3A75 JUMP JUMPDEST PUSH1 0xA DUP5 ADD SLOAD PUSH1 0x1 PUSH1 0x1 PUSH1 0xA0 SHL SUB AND SWAP2 SWAP1 PUSH2 0x2DE5 JUMP JUMPDEST PUSH2 0x29F0 PUSH2 0x3100 JUMP JUMPDEST PUSH1 0x0 DUP3 DUP2 MSTORE PUSH1 0x7 PUSH1 0x20 SWAP1 DUP2 MSTORE PUSH1 0x40 SWAP2 DUP3 SWAP1 KECCAK256 DUP3 MLOAD PUSH1 0xC0 DUP2 ADD DUP5 MSTORE DUP2 SLOAD DUP2 MSTORE PUSH1 0x1 DUP3 ADD SLOAD PUSH1 0x1 PUSH1 0x1 PUSH1 0xA0 SHL SUB AND SWAP3 DUP2 ADD SWAP3 SWAP1 SWAP3 MSTORE PUSH1 0x2 DUP2 ADD DUP1 SLOAD SWAP3 SWAP4 SWAP2 SWAP3 SWAP2 DUP5 ADD SWAP2 PUSH2 0x2A3A SWAP1 PUSH2 0x3992 JUMP JUMPDEST DUP1 PUSH1 0x1F ADD PUSH1 0x20 DUP1 SWAP2 DIV MUL PUSH1 0x20 ADD PUSH1 0x40 MLOAD SWAP1 DUP2 ADD PUSH1 0x40 MSTORE DUP1 SWAP3 SWAP2 SWAP1 DUP2 DUP2 MSTORE PUSH1 0x20 ADD DUP3 DUP1 SLOAD PUSH2 0x2A66 SWAP1 PUSH2 0x3992 JUMP JUMPDEST DUP1 ISZERO PUSH2 0x2AB3 JUMPI DUP1 PUSH1 0x1F LT PUSH2 0x2A88 JUMPI PUSH2 0x100 DUP1 DUP4 SLOAD DIV MUL DUP4 MSTORE SWAP2 PUSH1 0x20 ADD SWAP2 PUSH2 0x2AB3 JUMP JUMPDEST DUP3 ADD SWAP2 SWAP1 PUSH1 0x0 MSTORE PUSH1 0x20 PUSH1 0x0 KECCAK256 SWAP1 JUMPDEST DUP2 SLOAD DUP2 MSTORE SWAP1 PUSH1 0x1 ADD SWAP1 PUSH1 0x20 ADD DUP1 DUP4 GT PUSH2 0x2A96 JUMPI DUP3 SWAP1 SUB PUSH1 0x1F AND DUP3 ADD SWAP2 JUMPDEST POP POP POP SWAP2 DUP4 MSTORE POP POP PUSH1 0x3 DUP3 DUP2 ADD SLOAD PUSH1 0x20 DUP4 ADD MSTORE PUSH1 0x4 DUP4 ADD SLOAD PUSH1 0x40 SWAP1 SWAP3 ADD SWAP2 PUSH1 0xFF AND SWAP1 DUP2 GT ISZERO PUSH2 0x2AE4 JUMPI PUSH2 0x2AE4 PUSH2 0x3169 JUMP JUMPDEST PUSH1 0x3 DUP2 GT ISZERO PUSH2 0x2AF5 JUMPI PUSH2 0x2AF5 PUSH2 0x3169 JUMP JUMPDEST DUP2 MSTORE PUSH1 0x4 SWAP2 SWAP1 SWAP2 ADD SLOAD PUSH2 0x100 SWAP1 DIV PUSH1 0x1 PUSH1 0x1 PUSH1 0xA0 SHL SUB AND PUSH1 0x20 SWAP1 SWAP2 ADD MSTORE SWAP3 SWAP2 POP POP JUMP JUMPDEST PUSH2 0x2B20 PUSH2 0x2E44 JUMP JUMPDEST PUSH1 0x1 PUSH1 0x1 PUSH1 0xA0 SHL SUB DUP3 AND PUSH1 0x0 DUP2 DUP2 MSTORE PUSH1 0x9 PUSH1 0x20 SWAP1 DUP2 MSTORE PUSH1 0x40 SWAP2 DUP3 SWAP1 KECCAK256 DUP1 SLOAD PUSH1 0xFF NOT AND DUP6 ISZERO ISZERO SWAP1 DUP2 OR SWAP1 SWAP2 SSTORE SWAP2 MLOAD SWAP2 DUP3 MSTORE PUSH32 0xD86C88B4A367D9B81A6E00C9D3F7D01657BFFEF358FA8968C91C045AE99F0D52 SWAP2 ADD PUSH2 0x1D87 JUMP JUMPDEST PUSH2 0x2B80 PUSH2 0x2E44 JUMP JUMPDEST PUSH1 0x1 PUSH1 0x1 PUSH1 0xA0 SHL SUB DUP6 AND PUSH2 0x2BCE JUMPI PUSH1 0x40 MLOAD PUSH3 0x461BCD PUSH1 0xE5 SHL DUP2 MSTORE PUSH1 0x20 PUSH1 0x4 DUP3 ADD MSTORE PUSH1 0x15 PUSH1 0x24 DUP3 ADD MSTORE PUSH21 0x496E76616C696420746F6B656E2061646472657373 PUSH1 0x58 SHL PUSH1 0x44 DUP3 ADD MSTORE PUSH1 0x64 ADD PUSH2 0xA29 JUMP JUMPDEST PUSH1 0x40 DUP1 MLOAD PUSH1 0xA0 DUP2 ADD DUP3 MSTORE PUSH1 0x1 PUSH1 0x1 PUSH1 0xA0 SHL SUB DUP8 DUP2 AND DUP1 DUP4 MSTORE PUSH1 0x20 DUP1 DUP5 ADD DUP10 DUP2 MSTORE DUP5 DUP7 ADD DUP10 DUP2 MSTORE PUSH1 0xFF DUP10 AND PUSH1 0x60 DUP8 ADD MSTORE DUP8 ISZERO ISZERO PUSH1 0x80 DUP8 ADD MSTORE PUSH1 0x0 SWAP4 DUP5 MSTORE PUSH1 0xA SWAP1 SWAP3 MSTORE SWAP5 SWAP1 SWAP2 KECCAK256 DUP4 MLOAD DUP2 SLOAD PUSH1 0x1 PUSH1 0x1 PUSH1 0xA0 SHL SUB NOT AND SWAP4 AND SWAP3 SWAP1 SWAP3 OR DUP3 SSTORE SWAP3 MLOAD PUSH1 0x1 DUP3 ADD SSTORE SWAP2 MLOAD SWAP1 SWAP2 SWAP1 PUSH1 0x2 DUP3 ADD SWAP1 PUSH2 0x2C44 SWAP1 DUP3 PUSH2 0x3AD6 JUMP JUMPDEST POP PUSH1 0x60 DUP3 ADD MLOAD PUSH1 0x3 SWAP1 SWAP2 ADD DUP1 SLOAD PUSH1 0x80 SWAP1 SWAP4 ADD MLOAD ISZERO ISZERO PUSH2 0x100 MUL PUSH2 0xFFFF NOT SWAP1 SWAP4 AND PUSH1 0xFF SWAP1 SWAP3 AND SWAP2 SWAP1 SWAP2 OR SWAP2 SWAP1 SWAP2 OR SWAP1 SSTORE PUSH1 0x1 PUSH1 0x1 PUSH1 0xA0 SHL SUB DUP6 AND PUSH1 0x0 DUP2 DUP2 MSTORE PUSH1 0x9 PUSH1 0x20 MSTORE PUSH1 0x40 SWAP1 DUP2 SWAP1 KECCAK256 DUP1 SLOAD DUP5 ISZERO ISZERO PUSH1 0xFF NOT SWAP2 SWAP1 SWAP2 AND OR SWAP1 SSTORE MLOAD DUP6 SWAP2 SWAP1 PUSH32 0xE8D2A0DD461F1AFBB33378AA83C1B9A8A883DC54FED83A43B1E14561B33EDEF SWAP1 PUSH2 0x2CD1 SWAP1 DUP6 ISZERO ISZERO DUP2 MSTORE PUSH1 0x20 ADD SWAP1 JUMP JUMPDEST PUSH1 0x40 MLOAD DUP1 SWAP2 SUB SWAP1 LOG3 POP POP POP POP POP JUMP JUMPDEST PUSH2 0x2CE8 PUSH2 0x2E44 JUMP JUMPDEST PUSH1 0x1 PUSH1 0x1 PUSH1 0xA0 SHL SUB DUP2 AND PUSH2 0x2D12 JUMPI PUSH1 0x40 MLOAD PUSH4 0x1E4FBDF7 PUSH1 0xE0 SHL DUP2 MSTORE PUSH1 0x0 PUSH1 0x4 DUP3 ADD MSTORE PUSH1 0x24 ADD PUSH2 0xA29 JUMP JUMPDEST PUSH2 0x2D1B DUP2 PUSH2 0x2F2A JUMP JUMPDEST POP JUMP JUMPDEST PUSH1 0xA PUSH1 0x20 MSTORE PUSH1 0x0 SWAP1 DUP2 MSTORE PUSH1 0x40 SWAP1 KECCAK256 DUP1 SLOAD PUSH1 0x1 DUP3 ADD SLOAD PUSH1 0x2 DUP4 ADD DUP1 SLOAD PUSH1 0x1 PUSH1 0x1 PUSH1 0xA0 SHL SUB SWAP1 SWAP4 AND SWAP4 SWAP2 SWAP3 PUSH2 0x2D50 SWAP1 PUSH2 0x3992 JUMP JUMPDEST DUP1 PUSH1 0x1F ADD PUSH1 0x20 DUP1 SWAP2 DIV MUL PUSH1 0x20 ADD PUSH1 0x40 MLOAD SWAP1 DUP2 ADD PUSH1 0x40 MSTORE DUP1 SWAP3 SWAP2 SWAP1 DUP2 DUP2 MSTORE PUSH1 0x20 ADD DUP3 DUP1 SLOAD PUSH2 0x2D7C SWAP1 PUSH2 0x3992 JUMP JUMPDEST DUP1 ISZERO PUSH2 0x2DC9 JUMPI DUP1 PUSH1 0x1F LT PUSH2 0x2D9E JUMPI PUSH2 0x100 DUP1 DUP4 SLOAD DIV MUL DUP4 MSTORE SWAP2 PUSH1 0x20 ADD SWAP2 PUSH2 0x2DC9 JUMP JUMPDEST DUP3 ADD SWAP2 SWAP1 PUSH1 0x0 MSTORE PUSH1 0x20 PUSH1 0x0 KECCAK256 SWAP1 JUMPDEST DUP2 SLOAD DUP2 MSTORE SWAP1 PUSH1 0x1 ADD SWAP1 PUSH1 0x20 ADD DUP1 DUP4 GT PUSH2 0x2DAC JUMPI DUP3 SWAP1 SUB PUSH1 0x1F AND DUP3 ADD SWAP2 JUMPDEST POP POP POP PUSH1 0x3 SWAP1 SWAP4 ADD SLOAD SWAP2 SWAP3 POP POP PUSH1 0xFF DUP1 DUP3 AND SWAP2 PUSH2 0x100 SWAP1 DIV AND DUP6 JUMP JUMPDEST PUSH1 0x40 MLOAD PUSH1 0x1 PUSH1 0x1 PUSH1 0xA0 SHL SUB DUP4 DUP2 AND PUSH1 0x24 DUP4 ADD MSTORE PUSH1 0x44 DUP3 ADD DUP4 SWAP1 MSTORE PUSH2 0x2508 SWAP2 DUP6 SWAP2 DUP3 AND SWAP1 PUSH4 0xA9059CBB SWAP1 PUSH1 0x64 ADD JUMPDEST PUSH1 0x40 MLOAD PUSH1 0x20 DUP2 DUP4 SUB SUB DUP2 MSTORE SWAP1 PUSH1 0x40 MSTORE SWAP2 POP PUSH1 0xE0 SHL PUSH1 0x20 DUP3 ADD DUP1 MLOAD PUSH1 0x1 PUSH1 0x1 PUSH1 0xE0 SHL SUB DUP4 DUP2 DUP4 AND OR DUP4 MSTORE POP POP POP POP PUSH2 0x2FE9 JUMP JUMPDEST PUSH1 0x1 SLOAD PUSH1 0x1 PUSH1 0x1 PUSH1 0xA0 SHL SUB AND CALLER EQ PUSH2 0xE09 JUMPI PUSH1 0x40 MLOAD PUSH4 0x118CDAA7 PUSH1 0xE0 SHL DUP2 MSTORE CALLER PUSH1 0x4 DUP3 ADD MSTORE PUSH1 0x24 ADD PUSH2 0xA29 JUMP JUMPDEST PUSH2 0x2E79 PUSH2 0x305A JUMP JUMPDEST PUSH1 0x1 DUP1 SLOAD PUSH1 0xFF PUSH1 0xA0 SHL NOT AND SWAP1 SSTORE PUSH32 0x5DB9EE0A495BF2E6FF9C91A7834C1BA4FDD244A5E8AA4E537BD38AEAE4B073AA CALLER JUMPDEST PUSH1 0x40 MLOAD PUSH1 0x1 PUSH1 0x1 PUSH1 0xA0 SHL SUB SWAP1 SWAP2 AND DUP2 MSTORE PUSH1 0x20 ADD PUSH1 0x40 MLOAD DUP1 SWAP2 SUB SWAP1 LOG1 JUMP JUMPDEST PUSH1 0x1 SLOAD PUSH1 0x1 PUSH1 0xA0 SHL SWAP1 DIV PUSH1 0xFF AND ISZERO PUSH2 0xE09 JUMPI PUSH1 0x40 MLOAD PUSH4 0xD93C0665 PUSH1 0xE0 SHL DUP2 MSTORE PUSH1 0x4 ADD PUSH1 0x40 MLOAD DUP1 SWAP2 SUB SWAP1 REVERT JUMPDEST PUSH1 0x40 MLOAD PUSH1 0x1 PUSH1 0x1 PUSH1 0xA0 SHL SUB DUP5 DUP2 AND PUSH1 0x24 DUP4 ADD MSTORE DUP4 DUP2 AND PUSH1 0x44 DUP4 ADD MSTORE PUSH1 0x64 DUP3 ADD DUP4 SWAP1 MSTORE PUSH2 0x24DB SWAP2 DUP7 SWAP2 DUP3 AND SWAP1 PUSH4 0x23B872DD SWAP1 PUSH1 0x84 ADD PUSH2 0x2E12 JUMP JUMPDEST PUSH1 0x1 DUP1 SLOAD PUSH1 0x1 PUSH1 0x1 PUSH1 0xA0 SHL SUB DUP4 DUP2 AND PUSH1 0x1 PUSH1 0x1 PUSH1 0xA0 SHL SUB NOT DUP4 AND DUP2 OR SWAP1 SWAP4 SSTORE PUSH1 0x40 MLOAD SWAP2 AND SWAP2 SWAP1 DUP3 SWAP1 PUSH32 0x8BE0079C531659141344CD1FD0A4F28419497F9722A3DAAFE3B4186F6B6457E0 SWAP1 PUSH1 0x0 SWAP1 LOG3 POP POP JUMP JUMPDEST PUSH2 0x2F84 PUSH2 0x2EC6 JUMP JUMPDEST PUSH1 0x1 DUP1 SLOAD PUSH1 0xFF PUSH1 0xA0 SHL NOT AND PUSH1 0x1 PUSH1 0xA0 SHL OR SWAP1 SSTORE PUSH32 0x62E78CEA01BEE320CD4E420270B5EA74000D11B0C9F74754EBDBFC544B05A258 PUSH2 0x2EA9 CALLER SWAP1 JUMP JUMPDEST PUSH1 0x2 PUSH1 0x0 SLOAD SUB PUSH2 0x2FE2 JUMPI PUSH1 0x40 MLOAD PUSH4 0x3EE5AEB5 PUSH1 0xE0 SHL DUP2 MSTORE PUSH1 0x4 ADD PUSH1 0x40 MLOAD DUP1 SWAP2 SUB SWAP1 REVERT JUMPDEST PUSH1 0x2 PUSH1 0x0 SSTORE JUMP JUMPDEST PUSH1 0x0 DUP1 PUSH1 0x20 PUSH1 0x0 DUP5 MLOAD PUSH1 0x20 DUP7 ADD PUSH1 0x0 DUP9 GAS CALL DUP1 PUSH2 0x300C JUMPI PUSH1 0x40 MLOAD RETURNDATASIZE PUSH1 0x0 DUP3 RETURNDATACOPY RETURNDATASIZE DUP2 REVERT JUMPDEST POP POP PUSH1 0x0 MLOAD RETURNDATASIZE SWAP2 POP DUP2 ISZERO PUSH2 0x3024 JUMPI DUP1 PUSH1 0x1 EQ ISZERO PUSH2 0x3031 JUMP JUMPDEST PUSH1 0x1 PUSH1 0x1 PUSH1 0xA0 SHL SUB DUP5 AND EXTCODESIZE ISZERO JUMPDEST ISZERO PUSH2 0x24DB JUMPI PUSH1 0x40 MLOAD PUSH4 0x5274AFE7 PUSH1 0xE0 SHL DUP2 MSTORE PUSH1 0x1 PUSH1 0x1 PUSH1 0xA0 SHL SUB DUP6 AND PUSH1 0x4 DUP3 ADD MSTORE PUSH1 0x24 ADD PUSH2 0xA29 JUMP JUMPDEST PUSH1 0x1 SLOAD PUSH1 0x1 PUSH1 0xA0 SHL SWAP1 DIV PUSH1 0xFF AND PUSH2 0xE09 JUMPI PUSH1 0x40 MLOAD PUSH4 0x8DFC202B PUSH1 0xE0 SHL DUP2 MSTORE PUSH1 0x4 ADD PUSH1 0x40 MLOAD DUP1 SWAP2 SUB SWAP1 REVERT JUMPDEST PUSH1 0x40 MLOAD DUP1 PUSH2 0x160 ADD PUSH1 0x40 MSTORE DUP1 PUSH1 0x0 DUP2 MSTORE PUSH1 0x20 ADD PUSH1 0x0 PUSH1 0x1 PUSH1 0x1 PUSH1 0xA0 SHL SUB AND DUP2 MSTORE PUSH1 0x20 ADD PUSH1 0x0 PUSH1 0x1 PUSH1 0x1 PUSH1 0xA0 SHL SUB AND DUP2 MSTORE PUSH1 0x20 ADD PUSH1 0x0 DUP2 MSTORE PUSH1 0x20 ADD PUSH1 0x0 DUP2 MSTORE PUSH1 0x20 ADD PUSH1 0x0 DUP2 MSTORE PUSH1 0x20 ADD PUSH1 0x0 DUP2 MSTORE PUSH1 0x20 ADD PUSH1 0x0 PUSH1 0x5 DUP2 GT ISZERO PUSH2 0x30E6 JUMPI PUSH2 0x30E6 PUSH2 0x3169 JUMP JUMPDEST DUP2 MSTORE PUSH1 0x60 PUSH1 0x20 DUP3 ADD DUP2 SWAP1 MSTORE PUSH1 0x0 PUSH1 0x40 DUP4 ADD DUP2 SWAP1 MSTORE SWAP2 ADD MSTORE SWAP1 JUMP JUMPDEST PUSH1 0x40 MLOAD DUP1 PUSH1 0xC0 ADD PUSH1 0x40 MSTORE DUP1 PUSH1 0x0 DUP2 MSTORE PUSH1 0x20 ADD PUSH1 0x0 PUSH1 0x1 PUSH1 0x1 PUSH1 0xA0 SHL SUB AND DUP2 MSTORE PUSH1 0x20 ADD PUSH1 0x60 DUP2 MSTORE PUSH1 0x20 ADD PUSH1 0x0 DUP2 MSTORE PUSH1 0x20 ADD PUSH1 0x0 PUSH1 0x3 DUP2 GT ISZERO PUSH2 0x3143 JUMPI PUSH2 0x3143 PUSH2 0x3169 JUMP JUMPDEST DUP2 MSTORE PUSH1 0x0 PUSH1 0x20 SWAP1 SWAP2 ADD MSTORE SWAP1 JUMP JUMPDEST PUSH1 0x0 PUSH1 0x20 DUP3 DUP5 SUB SLT ISZERO PUSH2 0x3162 JUMPI PUSH1 0x0 DUP1 REVERT JUMPDEST POP CALLDATALOAD SWAP2 SWAP1 POP JUMP JUMPDEST PUSH4 0x4E487B71 PUSH1 0xE0 SHL PUSH1 0x0 MSTORE PUSH1 0x21 PUSH1 0x4 MSTORE PUSH1 0x24 PUSH1 0x0 REVERT JUMPDEST PUSH1 0x6 DUP2 LT PUSH2 0x318F JUMPI PUSH2 0x318F PUSH2 0x3169 JUMP JUMPDEST SWAP1 MSTORE JUMP JUMPDEST PUSH1 0x0 DUP2 MLOAD DUP1 DUP5 MSTORE PUSH1 0x0 JUMPDEST DUP2 DUP2 LT ISZERO PUSH2 0x31B9 JUMPI PUSH1 0x20 DUP2 DUP6 ADD DUP2 ADD MLOAD DUP7 DUP4 ADD DUP3 ADD MSTORE ADD PUSH2 0x319D JUMP JUMPDEST POP PUSH1 0x0 PUSH1 0x20 DUP3 DUP7 ADD ADD MSTORE PUSH1 0x20 PUSH1 0x1F NOT PUSH1 0x1F DUP4 ADD AND DUP6 ADD ADD SWAP2 POP POP SWAP3 SWAP2 POP POP JUMP JUMPDEST PUSH1 0x0 PUSH2 0x160 DUP14 DUP4 MSTORE PUSH1 0x1 DUP1 PUSH1 0xA0 SHL SUB DUP1 DUP15 AND PUSH1 0x20 DUP6 ADD MSTORE DUP1 DUP14 AND PUSH1 0x40 DUP6 ADD MSTORE DUP12 PUSH1 0x60 DUP6 ADD MSTORE DUP11 PUSH1 0x80 DUP6 ADD MSTORE DUP10 PUSH1 0xA0 DUP6 ADD MSTORE DUP9 PUSH1 0xC0 DUP6 ADD MSTORE PUSH2 0x321D PUSH1 0xE0 DUP6 ADD DUP10 PUSH2 0x317F JUMP JUMPDEST DUP2 PUSH2 0x100 DUP6 ADD MSTORE PUSH2 0x3230 DUP3 DUP6 ADD DUP9 PUSH2 0x3193 JUMP JUMPDEST SWAP3 POP DUP6 PUSH2 0x120 DUP6 ADD MSTORE DUP1 DUP6 AND PUSH2 0x140 DUP6 ADD MSTORE POP POP SWAP13 SWAP12 POP POP POP POP POP POP POP POP POP POP POP POP JUMP JUMPDEST DUP1 CALLDATALOAD PUSH1 0x1 PUSH1 0x1 PUSH1 0xA0 SHL SUB DUP2 AND DUP2 EQ PUSH2 0x326B JUMPI PUSH1 0x0 DUP1 REVERT JUMPDEST SWAP2 SWAP1 POP JUMP JUMPDEST PUSH1 0x0 PUSH1 0x20 DUP3 DUP5 SUB SLT ISZERO PUSH2 0x3282 JUMPI PUSH1 0x0 DUP1 REVERT JUMPDEST PUSH2 0x328B DUP3 PUSH2 0x3254 JUMP JUMPDEST SWAP4 SWAP3 POP POP POP JUMP JUMPDEST PUSH1 0x0 DUP1 PUSH1 0x40 DUP4 DUP6 SUB SLT ISZERO PUSH2 0x32A5 JUMPI PUSH1 0x0 DUP1 REVERT JUMPDEST POP POP DUP1 CALLDATALOAD SWAP3 PUSH1 0x20 SWAP1 SWAP2 ADD CALLDATALOAD SWAP2 POP JUMP JUMPDEST DUP5 DUP2 MSTORE PUSH1 0x80 PUSH1 0x20 DUP3 ADD MSTORE PUSH1 0x0 PUSH2 0x32CD PUSH1 0x80 DUP4 ADD DUP7 PUSH2 0x3193 JUMP JUMPDEST SWAP4 ISZERO ISZERO PUSH1 0x40 DUP4 ADD MSTORE POP PUSH1 0x60 ADD MSTORE SWAP3 SWAP2 POP POP JUMP JUMPDEST PUSH1 0x20 DUP2 MSTORE PUSH1 0x1 DUP1 PUSH1 0xA0 SHL SUB DUP3 MLOAD AND PUSH1 0x20 DUP3 ADD MSTORE PUSH1 0x20 DUP3 ADD MLOAD PUSH1 0x40 DUP3 ADD MSTORE PUSH1 0x0 PUSH1 0x40 DUP4 ADD MLOAD PUSH1 0xA0 PUSH1 0x60 DUP5 ADD MSTORE PUSH2 0x3318 PUSH1 0xC0 DUP5 ADD DUP3 PUSH2 0x3193 JUMP JUMPDEST SWAP1 POP PUSH1 0xFF PUSH1 0x60 DUP6 ADD MLOAD AND PUSH1 0x80 DUP5 ADD MSTORE PUSH1 0x80 DUP5 ADD MLOAD ISZERO ISZERO PUSH1 0xA0 DUP5 ADD MSTORE DUP1 SWAP2 POP POP SWAP3 SWAP2 POP POP JUMP JUMPDEST DUP1 CALLDATALOAD DUP1 ISZERO ISZERO DUP2 EQ PUSH2 0x326B JUMPI PUSH1 0x0 DUP1 REVERT JUMPDEST PUSH1 0x0 DUP1 PUSH1 0x40 DUP4 DUP6 SUB SLT ISZERO PUSH2 0x3360 JUMPI PUSH1 0x0 DUP1 REVERT JUMPDEST DUP3 CALLDATALOAD SWAP2 POP PUSH2 0x3370 PUSH1 0x20 DUP5 ADD PUSH2 0x333D JUMP JUMPDEST SWAP1 POP SWAP3 POP SWAP3 SWAP1 POP JUMP JUMPDEST PUSH1 0x0 PUSH1 0x20 DUP1 DUP4 ADD DUP2 DUP5 MSTORE DUP1 DUP6 MLOAD DUP1 DUP4 MSTORE PUSH1 0x40 SWAP3 POP DUP3 DUP7 ADD SWAP2 POP DUP3 DUP2 PUSH1 0x5 SHL DUP8 ADD ADD DUP5 DUP9 ADD PUSH1 0x0 JUMPDEST DUP4 DUP2 LT ISZERO PUSH2 0x33F8 JUMPI PUSH1 0x3F NOT DUP10 DUP5 SUB ADD DUP6 MSTORE DUP2 MLOAD PUSH1 0x80 DUP2 MLOAD DUP6 MSTORE DUP9 DUP3 ADD MLOAD DUP2 DUP11 DUP8 ADD MSTORE PUSH2 0x33CE DUP3 DUP8 ADD DUP3 PUSH2 0x3193 JUMP JUMPDEST DUP4 DUP11 ADD MLOAD ISZERO ISZERO DUP8 DUP12 ADD MSTORE PUSH1 0x60 SWAP4 DUP5 ADD MLOAD SWAP4 SWAP1 SWAP7 ADD SWAP3 SWAP1 SWAP3 MSTORE POP POP SWAP4 DUP7 ADD SWAP4 SWAP1 DUP7 ADD SWAP1 PUSH1 0x1 ADD PUSH2 0x33A0 JUMP JUMPDEST POP SWAP1 SWAP9 SWAP8 POP POP POP POP POP POP POP POP JUMP JUMPDEST PUSH1 0x4 DUP2 LT PUSH2 0x318F JUMPI PUSH2 0x318F PUSH2 0x3169 JUMP JUMPDEST DUP7 DUP2 MSTORE PUSH1 0x0 PUSH1 0x1 DUP1 PUSH1 0xA0 SHL SUB DUP1 DUP9 AND PUSH1 0x20 DUP5 ADD MSTORE PUSH1 0xC0 PUSH1 0x40 DUP5 ADD MSTORE PUSH2 0x343E PUSH1 0xC0 DUP5 ADD DUP9 PUSH2 0x3193 JUMP JUMPDEST SWAP2 POP DUP6 PUSH1 0x60 DUP5 ADD MSTORE PUSH2 0x3453 PUSH1 0x80 DUP5 ADD DUP7 PUSH2 0x3406 JUMP JUMPDEST DUP1 DUP5 AND PUSH1 0xA0 DUP5 ADD MSTORE POP SWAP8 SWAP7 POP POP POP POP POP POP POP JUMP JUMPDEST PUSH4 0x4E487B71 PUSH1 0xE0 SHL PUSH1 0x0 MSTORE PUSH1 0x41 PUSH1 0x4 MSTORE PUSH1 0x24 PUSH1 0x0 REVERT JUMPDEST PUSH1 0x40 MLOAD PUSH1 0x80 DUP2 ADD PUSH8 0xFFFFFFFFFFFFFFFF DUP2 GT DUP3 DUP3 LT OR ISZERO PUSH2 0x34A0 JUMPI PUSH2 0x34A0 PUSH2 0x3467 JUMP JUMPDEST PUSH1 0x40 MSTORE SWAP1 JUMP JUMPDEST PUSH1 0x40 MLOAD PUSH1 0x1F DUP3 ADD PUSH1 0x1F NOT AND DUP2 ADD PUSH8 0xFFFFFFFFFFFFFFFF DUP2 GT DUP3 DUP3 LT OR ISZERO PUSH2 0x34CF JUMPI PUSH2 0x34CF PUSH2 0x3467 JUMP JUMPDEST PUSH1 0x40 MSTORE SWAP2 SWAP1 POP JUMP JUMPDEST PUSH1 0x0 DUP3 PUSH1 0x1F DUP4 ADD SLT PUSH2 0x34E8 JUMPI PUSH1 0x0 DUP1 REVERT JUMPDEST DUP2 CALLDATALOAD PUSH8 0xFFFFFFFFFFFFFFFF DUP2 GT ISZERO PUSH2 0x3502 JUMPI PUSH2 0x3502 PUSH2 0x3467 JUMP JUMPDEST PUSH2 0x3515 PUSH1 0x1F DUP3 ADD PUSH1 0x1F NOT AND PUSH1 0x20 ADD PUSH2 0x34A6 JUMP JUMPDEST DUP2 DUP2 MSTORE DUP5 PUSH1 0x20 DUP4 DUP7 ADD ADD GT ISZERO PUSH2 0x352A JUMPI PUSH1 0x0 DUP1 REVERT JUMPDEST DUP2 PUSH1 0x20 DUP6 ADD PUSH1 0x20 DUP4 ADD CALLDATACOPY PUSH1 0x0 SWAP2 DUP2 ADD PUSH1 0x20 ADD SWAP2 SWAP1 SWAP2 MSTORE SWAP4 SWAP3 POP POP POP JUMP JUMPDEST PUSH1 0x0 DUP1 PUSH1 0x0 DUP1 PUSH1 0x0 DUP1 PUSH1 0xC0 DUP8 DUP10 SUB SLT ISZERO PUSH2 0x3560 JUMPI PUSH1 0x0 DUP1 REVERT JUMPDEST PUSH2 0x3569 DUP8 PUSH2 0x3254 JUMP JUMPDEST SWAP6 POP PUSH8 0xFFFFFFFFFFFFFFFF PUSH1 0x20 DUP9 ADD CALLDATALOAD GT ISZERO PUSH2 0x3584 JUMPI PUSH1 0x0 DUP1 REVERT JUMPDEST PUSH2 0x3594 DUP9 PUSH1 0x20 DUP10 ADD CALLDATALOAD DUP10 ADD PUSH2 0x34D7 JUMP JUMPDEST SWAP5 POP PUSH1 0x40 DUP8 ADD CALLDATALOAD SWAP4 POP PUSH8 0xFFFFFFFFFFFFFFFF PUSH1 0x60 DUP9 ADD CALLDATALOAD GT ISZERO PUSH2 0x35B6 JUMPI PUSH1 0x0 DUP1 REVERT JUMPDEST PUSH1 0x60 DUP8 ADD CALLDATALOAD DUP8 ADD DUP9 PUSH1 0x1F DUP3 ADD SLT PUSH2 0x35CC JUMPI PUSH1 0x0 DUP1 REVERT JUMPDEST PUSH8 0xFFFFFFFFFFFFFFFF DUP2 CALLDATALOAD GT ISZERO PUSH2 0x35E5 JUMPI PUSH2 0x35E5 PUSH2 0x3467 JUMP JUMPDEST PUSH2 0x35F5 PUSH1 0x20 DUP3 CALLDATALOAD PUSH1 0x5 SHL ADD PUSH2 0x34A6 JUMP JUMPDEST DUP2 CALLDATALOAD DUP1 DUP3 MSTORE PUSH1 0x20 DUP1 DUP4 ADD SWAP3 SWAP2 PUSH1 0x5 SHL DUP5 ADD ADD DUP12 LT ISZERO PUSH2 0x3613 JUMPI PUSH1 0x0 DUP1 REVERT JUMPDEST PUSH1 0x20 DUP4 ADD JUMPDEST PUSH1 0x20 DUP5 CALLDATALOAD PUSH1 0x5 SHL DUP6 ADD ADD DUP2 LT ISZERO PUSH2 0x36C2 JUMPI PUSH8 0xFFFFFFFFFFFFFFFF DUP2 CALLDATALOAD GT ISZERO PUSH2 0x363F JUMPI PUSH1 0x0 DUP1 REVERT JUMPDEST DUP1 CALLDATALOAD DUP5 ADD PUSH1 0x80 DUP2 DUP15 SUB PUSH1 0x1F NOT ADD SLT ISZERO PUSH2 0x3657 JUMPI PUSH1 0x0 DUP1 REVERT JUMPDEST PUSH2 0x365F PUSH2 0x347D JUMP JUMPDEST PUSH1 0x20 DUP3 ADD CALLDATALOAD DUP2 MSTORE PUSH8 0xFFFFFFFFFFFFFFFF PUSH1 0x40 DUP4 ADD CALLDATALOAD GT ISZERO PUSH2 0x367F JUMPI PUSH1 0x0 DUP1 REVERT JUMPDEST PUSH2 0x3692 DUP15 PUSH1 0x20 PUSH1 0x40 DUP6 ADD CALLDATALOAD DUP6 ADD ADD PUSH2 0x34D7 JUMP JUMPDEST PUSH1 0x20 DUP3 ADD MSTORE PUSH2 0x36A3 PUSH1 0x60 DUP4 ADD PUSH2 0x333D JUMP JUMPDEST PUSH1 0x40 DUP3 ADD MSTORE PUSH1 0x80 SWAP2 SWAP1 SWAP2 ADD CALLDATALOAD PUSH1 0x60 DUP3 ADD MSTORE DUP4 MSTORE PUSH1 0x20 SWAP3 DUP4 ADD SWAP3 ADD PUSH2 0x3618 JUMP JUMPDEST POP SWAP5 POP PUSH2 0x36D4 SWAP2 POP POP PUSH1 0x80 DUP9 ADD PUSH2 0x3254 JUMP JUMPDEST SWAP2 POP PUSH1 0xA0 DUP8 ADD CALLDATALOAD SWAP1 POP SWAP3 SWAP6 POP SWAP3 SWAP6 POP SWAP3 SWAP6 JUMP JUMPDEST PUSH1 0x20 DUP2 MSTORE DUP2 MLOAD PUSH1 0x20 DUP3 ADD MSTORE PUSH1 0x0 PUSH1 0x20 DUP4 ADD MLOAD PUSH2 0x370E PUSH1 0x40 DUP5 ADD DUP3 PUSH1 0x1 PUSH1 0x1 PUSH1 0xA0 SHL SUB AND SWAP1 MSTORE JUMP JUMPDEST POP PUSH1 0x40 DUP4 ADD MLOAD PUSH1 0x1 PUSH1 0x1 PUSH1 0xA0 SHL SUB DUP2 AND PUSH1 0x60 DUP5 ADD MSTORE POP PUSH1 0x60 DUP4 ADD MLOAD PUSH1 0x80 DUP4 ADD MSTORE PUSH1 0x80 DUP4 ADD MLOAD PUSH1 0xA0 DUP4 ADD MSTORE PUSH1 0xA0 DUP4 ADD MLOAD PUSH1 0xC0 DUP4 ADD MSTORE PUSH1 0xC0 DUP4 ADD MLOAD PUSH1 0xE0 DUP4 ADD MSTORE PUSH1 0xE0 DUP4 ADD MLOAD PUSH2 0x100 PUSH2 0x3760 DUP2 DUP6 ADD DUP4 PUSH2 0x317F JUMP JUMPDEST DUP1 DUP6 ADD MLOAD SWAP2 POP POP PUSH2 0x160 PUSH2 0x120 DUP2 DUP2 DUP7 ADD MSTORE PUSH2 0x3780 PUSH2 0x180 DUP7 ADD DUP5 PUSH2 0x3193 JUMP JUMPDEST SWAP1 DUP7 ADD MLOAD PUSH2 0x140 DUP7 DUP2 ADD SWAP2 SWAP1 SWAP2 MSTORE SWAP1 SWAP6 ADD MLOAD PUSH1 0x1 PUSH1 0x1 PUSH1 0xA0 SHL SUB AND SWAP4 ADD SWAP3 SWAP1 SWAP3 MSTORE POP SWAP1 SWAP2 SWAP1 POP JUMP JUMPDEST PUSH1 0x0 DUP1 PUSH1 0x40 DUP4 DUP6 SUB SLT ISZERO PUSH2 0x37BB JUMPI PUSH1 0x0 DUP1 REVERT JUMPDEST DUP3 CALLDATALOAD SWAP2 POP PUSH1 0x20 DUP4 ADD CALLDATALOAD PUSH8 0xFFFFFFFFFFFFFFFF DUP2 GT ISZERO PUSH2 0x37D9 JUMPI PUSH1 0x0 DUP1 REVERT JUMPDEST PUSH2 0x37E5 DUP6 DUP3 DUP7 ADD PUSH2 0x34D7 JUMP JUMPDEST SWAP2 POP POP SWAP3 POP SWAP3 SWAP1 POP JUMP JUMPDEST PUSH1 0x0 DUP1 PUSH1 0x40 DUP4 DUP6 SUB SLT ISZERO PUSH2 0x3802 JUMPI PUSH1 0x0 DUP1 REVERT JUMPDEST PUSH2 0x380B DUP4 PUSH2 0x3254 JUMP JUMPDEST SWAP2 POP PUSH2 0x3370 PUSH1 0x20 DUP5 ADD PUSH2 0x333D JUMP JUMPDEST PUSH1 0x0 DUP1 PUSH1 0x0 PUSH1 0x60 DUP5 DUP7 SUB SLT ISZERO PUSH2 0x382E JUMPI PUSH1 0x0 DUP1 REVERT JUMPDEST PUSH2 0x3837 DUP5 PUSH2 0x3254 JUMP JUMPDEST SWAP3 POP PUSH2 0x3845 PUSH1 0x20 DUP6 ADD PUSH2 0x3254 JUMP JUMPDEST SWAP2 POP PUSH2 0x3853 PUSH1 0x40 DUP6 ADD PUSH2 0x3254 JUMP JUMPDEST SWAP1 POP SWAP3 POP SWAP3 POP SWAP3 JUMP JUMPDEST PUSH1 0x20 DUP1 DUP3 MSTORE DUP3 MLOAD DUP3 DUP3 ADD MSTORE DUP3 ADD MLOAD PUSH1 0x1 PUSH1 0x1 PUSH1 0xA0 SHL SUB SWAP1 DUP2 AND PUSH1 0x40 DUP1 DUP5 ADD SWAP2 SWAP1 SWAP2 MSTORE DUP4 ADD MLOAD PUSH1 0xC0 PUSH1 0x60 DUP5 ADD MSTORE PUSH1 0x0 SWAP2 PUSH2 0x3898 PUSH1 0xE0 DUP6 ADD DUP4 PUSH2 0x3193 JUMP JUMPDEST SWAP2 POP PUSH1 0x60 DUP6 ADD MLOAD PUSH1 0x80 DUP6 ADD MSTORE PUSH1 0x80 DUP6 ADD MLOAD PUSH2 0x38B6 PUSH1 0xA0 DUP7 ADD DUP3 PUSH2 0x3406 JUMP JUMPDEST POP DUP1 PUSH1 0xA0 DUP7 ADD MLOAD AND PUSH1 0xC0 DUP6 ADD MSTORE POP DUP1 SWAP2 POP POP SWAP3 SWAP2 POP POP JUMP JUMPDEST PUSH1 0x0 DUP1 PUSH1 0x0 DUP1 PUSH1 0x0 PUSH1 0xA0 DUP7 DUP9 SUB SLT ISZERO PUSH2 0x38E6 JUMPI PUSH1 0x0 DUP1 REVERT JUMPDEST PUSH2 0x38EF DUP7 PUSH2 0x3254 JUMP JUMPDEST SWAP5 POP PUSH1 0x20 DUP7 ADD CALLDATALOAD SWAP4 POP PUSH1 0x40 DUP7 ADD CALLDATALOAD PUSH8 0xFFFFFFFFFFFFFFFF DUP2 GT ISZERO PUSH2 0x3912 JUMPI PUSH1 0x0 DUP1 REVERT JUMPDEST PUSH2 0x391E DUP9 DUP3 DUP10 ADD PUSH2 0x34D7 JUMP JUMPDEST SWAP4 POP POP PUSH1 0x60 DUP7 ADD CALLDATALOAD PUSH1 0xFF DUP2 AND DUP2 EQ PUSH2 0x3935 JUMPI PUSH1 0x0 DUP1 REVERT JUMPDEST SWAP2 POP PUSH2 0x3943 PUSH1 0x80 DUP8 ADD PUSH2 0x333D JUMP JUMPDEST SWAP1 POP SWAP3 SWAP6 POP SWAP3 SWAP6 SWAP1 SWAP4 POP JUMP JUMPDEST PUSH1 0x1 DUP1 PUSH1 0xA0 SHL SUB DUP7 AND DUP2 MSTORE DUP5 PUSH1 0x20 DUP3 ADD MSTORE PUSH1 0xA0 PUSH1 0x40 DUP3 ADD MSTORE PUSH1 0x0 PUSH2 0x3976 PUSH1 0xA0 DUP4 ADD DUP7 PUSH2 0x3193 JUMP JUMPDEST PUSH1 0xFF SWAP5 SWAP1 SWAP5 AND PUSH1 0x60 DUP4 ADD MSTORE POP SWAP1 ISZERO ISZERO PUSH1 0x80 SWAP1 SWAP2 ADD MSTORE SWAP4 SWAP3 POP POP POP JUMP JUMPDEST PUSH1 0x1 DUP2 DUP2 SHR SWAP1 DUP3 AND DUP1 PUSH2 0x39A6 JUMPI PUSH1 0x7F DUP3 AND SWAP2 POP JUMPDEST PUSH1 0x20 DUP3 LT DUP2 SUB PUSH2 0x39C6 JUMPI PUSH4 0x4E487B71 PUSH1 0xE0 SHL PUSH1 0x0 MSTORE PUSH1 0x22 PUSH1 0x4 MSTORE PUSH1 0x24 PUSH1 0x0 REVERT JUMPDEST POP SWAP2 SWAP1 POP JUMP JUMPDEST PUSH1 0x20 DUP1 DUP3 MSTORE PUSH1 0xE SWAP1 DUP3 ADD MSTORE PUSH14 0x496E76616C696420657363726F77 PUSH1 0x90 SHL PUSH1 0x40 DUP3 ADD MSTORE PUSH1 0x60 ADD SWAP1 JUMP JUMPDEST PUSH4 0x4E487B71 PUSH1 0xE0 SHL PUSH1 0x0 MSTORE PUSH1 0x11 PUSH1 0x4 MSTORE PUSH1 0x24 PUSH1 0x0 REVERT JUMPDEST DUP1 DUP3 MUL DUP2 ISZERO DUP3 DUP3 DIV DUP5 EQ OR PUSH2 0x3A21 JUMPI PUSH2 0x3A21 PUSH2 0x39F4 JUMP JUMPDEST SWAP3 SWAP2 POP POP JUMP JUMPDEST PUSH1 0x0 DUP3 PUSH2 0x3A44 JUMPI PUSH4 0x4E487B71 PUSH1 0xE0 SHL PUSH1 0x0 MSTORE PUSH1 0x12 PUSH1 0x4 MSTORE PUSH1 0x24 PUSH1 0x0 REVERT JUMPDEST POP DIV SWAP1 JUMP JUMPDEST DUP2 DUP2 SUB DUP2 DUP2 GT ISZERO PUSH2 0x3A21 JUMPI PUSH2 0x3A21 PUSH2 0x39F4 JUMP JUMPDEST PUSH1 0x0 PUSH1 0x1 DUP3 ADD PUSH2 0x3A6E JUMPI PUSH2 0x3A6E PUSH2 0x39F4 JUMP JUMPDEST POP PUSH1 0x1 ADD SWAP1 JUMP JUMPDEST DUP1 DUP3 ADD DUP1 DUP3 GT ISZERO PUSH2 0x3A21 JUMPI PUSH2 0x3A21 PUSH2 0x39F4 JUMP JUMPDEST PUSH1 0x1F DUP3 GT ISZERO PUSH2 0x2508 JUMPI PUSH1 0x0 DUP2 DUP2 MSTORE PUSH1 0x20 DUP2 KECCAK256 PUSH1 0x1F DUP6 ADD PUSH1 0x5 SHR DUP2 ADD PUSH1 0x20 DUP7 LT ISZERO PUSH2 0x3AAF JUMPI POP DUP1 JUMPDEST PUSH1 0x1F DUP6 ADD PUSH1 0x5 SHR DUP3 ADD SWAP2 POP JUMPDEST DUP2 DUP2 LT ISZERO PUSH2 0x3ACE JUMPI DUP3 DUP2 SSTORE PUSH1 0x1 ADD PUSH2 0x3ABB JUMP JUMPDEST POP POP POP POP POP POP JUMP JUMPDEST DUP2 MLOAD PUSH8 0xFFFFFFFFFFFFFFFF DUP2 GT ISZERO PUSH2 0x3AF0 JUMPI PUSH2 0x3AF0 PUSH2 0x3467 JUMP JUMPDEST PUSH2 0x3B04 DUP2 PUSH2 0x3AFE DUP5 SLOAD PUSH2 0x3992 JUMP JUMPDEST DUP5 PUSH2 0x3A88 JUMP JUMPDEST PUSH1 0x20 DUP1 PUSH1 0x1F DUP4 GT PUSH1 0x1 DUP2 EQ PUSH2 0x3B39 JUMPI PUSH1 0x0 DUP5 ISZERO PUSH2 0x3B21 JUMPI POP DUP6 DUP4 ADD MLOAD JUMPDEST PUSH1 0x0 NOT PUSH1 0x3 DUP7 SWAP1 SHL SHR NOT AND PUSH1 0x1 DUP6 SWAP1 SHL OR DUP6 SSTORE PUSH2 0x3ACE JUMP JUMPDEST PUSH1 0x0 DUP6 DUP2 MSTORE PUSH1 0x20 DUP2 KECCAK256 PUSH1 0x1F NOT DUP7 AND SWAP2 JUMPDEST DUP3 DUP2 LT ISZERO PUSH2 0x3B68 JUMPI DUP9 DUP7 ADD MLOAD DUP3 SSTORE SWAP5 DUP5 ADD SWAP5 PUSH1 0x1 SWAP1 SWAP2 ADD SWAP1 DUP5 ADD PUSH2 0x3B49 JUMP JUMPDEST POP DUP6 DUP3 LT ISZERO PUSH2 0x3B86 JUMPI DUP8 DUP6 ADD MLOAD PUSH1 0x0 NOT PUSH1 0x3 DUP9 SWAP1 SHL PUSH1 0xF8 AND SHR NOT AND DUP2 SSTORE JUMPDEST POP POP POP POP POP PUSH1 0x1 SWAP1 DUP2 SHL ADD SWAP1 SSTORE POP JUMP JUMPDEST PUSH4 0x4E487B71 PUSH1 0xE0 SHL PUSH1 0x0 MSTORE PUSH1 0x32 PUSH1 0x4 MSTORE PUSH1 0x24 PUSH1 0x0 REVERT JUMPDEST PUSH1 0x20 DUP1 DUP3 MSTORE PUSH1 0xE SWAP1 DUP3 ADD MSTORE PUSH14 0x139BDD08185D5D1A1BDC9A5E9959 PUSH1 0x92 SHL PUSH1 0x40 DUP3 ADD MSTORE PUSH1 0x60 ADD SWAP1 JUMP JUMPDEST PUSH1 0x20 DUP1 DUP3 MSTORE PUSH1 0x11 SWAP1 DUP3 ADD MSTORE PUSH17 0x115CD8DC9BDDC81B9BDD08199D5B991959 PUSH1 0x7A SHL PUSH1 0x40 DUP3 ADD MSTORE PUSH1 0x60 ADD SWAP1 JUMP JUMPDEST PUSH1 0x20 DUP2 MSTORE PUSH1 0x0 PUSH2 0x328B PUSH1 0x20 DUP4 ADD DUP5 PUSH2 0x3193 JUMP INVALID LOG2 PUSH5 0x6970667358 0x22 SLT KECCAK256 0xE PUSH26 0xD8B4ACF6D7AE3B05DEE32B72C288AEA9057E91C7709E0E4DB82C 0xFB ORIGIN JUMPDEST 0xD6 PUSH5 0x736F6C6343 STOP ADDMOD EQ STOP CALLER "},"methodIdentifiers":{"DISPUTE_TIMEOUT()":"486265c6","ESCROW_TIMEOUT()":"30815eee","PLATFORM_FEE_PERCENT()":"560d52d4","addToken(address,uint256,string,uint8,bool)":"e81d7875","cancelEscrow(uint256)":"e0182436","createEscrow(address,string,bytes32,(uint256,string,bool,uint256)[],address,uint256)":"5bf54728","disputeResolution()":"be9157cf","disputes(uint256)":"564a565d","escrows(uint256)":"012f52ee","expireEscrow(uint256)":"bc3a868f","fileDispute(uint256,string)":"8243af1d","fundEscrow(uint256)":"c9c31af5","getDispute(uint256)":"e3a96cbd","getEscrow(uint256)":"7d19e596","getMilestones(uint256)":"42c549c0","getTokenInfo(address)":"1f69565f","milestones(uint256,uint256)":"1c376c63","nextEscrowId()":"89cb29dd","owner()":"8da5cb5b","pause()":"8456cb59","paused()":"5c975abb","paymentProcessor()":"f1c6bdf8","releasePayment(uint256,uint256)":"97e99a80","renounceOwnership()":"715018a6","reputationRegistry()":"c8db44e3","resolveDispute(uint256,bool)":"34b25ee2","setContracts(address,address,address)":"b3066d49","setSupportedToken(address,bool)":"e7986466","supportedTokens(address)":"68c4ac26","tokenInfo(address)":"f5dab711","totalFees()":"13114a9d","totalVolume()":"5f81a57c","transferOwnership(address)":"f2fde38b","unpause()":"3f4ba83a","updateTokenStatus(address,bool)":"900ed178","userEscrowCount(address)":"19ffa563","withdrawFees()":"476343ee"}}}}}