{
  "_format": "hh-sol-artifact-1",
  "contractName": "EscrowManager",
  "sourceName": "contracts/core/EscrowManager.sol",
  "abi": [
    {
      "inputs": [],
      "stateMutability": "nonpayable",
      "type": "constructor"
    },
    {
      "inputs": [],
      "name": "EnforcedPause",
      "type": "error"
    },
    {
      "inputs": [],
      "name": "ExpectedPause",
      "type": "error"
    },
    {
      "inputs": [
        {
          "internalType": "address",
          "name": "owner",
          "type": "address"
        }
      ],
      "name": "OwnableInvalidOwner",
      "type": "error"
    },
    {
      "inputs": [
        {
          "internalType": "address",
          "name": "account",
          "type": "address"
        }
      ],
      "name": "OwnableUnauthorizedAccount",
      "type": "error"
    },
    {
      "inputs": [],
      "name": "ReentrancyGuardReentrantCall",
      "type": "error"
    },
    {
      "inputs": [
        {
          "internalType": "address",
          "name": "token",
          "type": "address"
        }
      ],
      "name": "SafeERC20FailedOperation",
      "type": "error"
    },
    {
      "anonymous": false,
      "inputs": [
        {
          "indexed": true,
          "internalType": "uint256",
          "name": "escrowId",
          "type": "uint256"
        },
        {
          "indexed": true,
          "internalType": "address",
          "name": "arbitrator",
          "type": "address"
        },
        {
          "indexed": false,
          "internalType": "bool",
          "name": "buyerWins",
          "type": "bool"
        }
      ],
      "name": "DisputeResolved",
      "type": "event"
    },
    {
      "anonymous": false,
      "inputs": [
        {
          "indexed": true,
          "internalType": "uint256",
          "name": "escrowId",
          "type": "uint256"
        },
        {
          "indexed": false,
          "internalType": "uint256",
          "name": "amountReleased",
          "type": "uint256"
        }
      ],
      "name": "EscrowCompleted",
      "type": "event"
    },
    {
      "anonymous": false,
      "inputs": [
        {
          "indexed": true,
          "internalType": "uint256",
          "name": "escrowId",
          "type": "uint256"
        },
        {
          "indexed": true,
          "internalType": "address",
          "name": "buyer",
          "type": "address"
        },
        {
          "indexed": true,
          "internalType": "address",
          "name": "seller",
          "type": "address"
        },
        {
          "indexed": false,
          "internalType": "uint256",
          "name": "amount",
          "type": "uint256"
        }
      ],
      "name": "EscrowCreated",
      "type": "event"
    },
    {
      "anonymous": false,
      "inputs": [
        {
          "indexed": true,
          "internalType": "uint256",
          "name": "escrowId",
          "type": "uint256"
        },
        {
          "indexed": true,
          "internalType": "address",
          "name": "initiator",
          "type": "address"
        },
        {
          "indexed": false,
          "internalType": "string",
          "name": "reason",
          "type": "string"
        }
      ],
      "name": "EscrowDisputed",
      "type": "event"
    },
    {
      "anonymous": false,
      "inputs": [
        {
          "indexed": true,
          "internalType": "uint256",
          "name": "escrowId",
          "type": "uint256"
        },
        {
          "indexed": false,
          "internalType": "uint256",
          "name": "amount",
          "type": "uint256"
        }
      ],
      "name": "EscrowFunded",
      "type": "event"
    },
    {
      "anonymous": false,
      "inputs": [
        {
          "indexed": true,
          "internalType": "address",
          "name": "previousOwner",
          "type": "address"
        },
        {
          "indexed": true,
          "internalType": "address",
          "name": "newOwner",
          "type": "address"
        }
      ],
      "name": "OwnershipTransferred",
      "type": "event"
    },
    {
      "anonymous": false,
      "inputs": [
        {
          "indexed": false,
          "internalType": "address",
          "name": "account",
          "type": "address"
        }
      ],
      "name": "Paused",
      "type": "event"
    },
    {
      "anonymous": false,
      "inputs": [
        {
          "indexed": true,
          "internalType": "address",
          "name": "user",
          "type": "address"
        },
        {
          "indexed": false,
          "internalType": "uint256",
          "name": "newScore",
          "type": "uint256"
        },
        {
          "indexed": false,
          "internalType": "uint256",
          "name": "totalTransactions",
          "type": "uint256"
        }
      ],
      "name": "ReputationUpdated",
      "type": "event"
    },
    {
      "anonymous": false,
      "inputs": [
        {
          "indexed": true,
          "internalType": "address",
          "name": "token",
          "type": "address"
        },
        {
          "indexed": true,
          "internalType": "uint256",
          "name": "chainId",
          "type": "uint256"
        },
        {
          "indexed": false,
          "internalType": "bool",
          "name": "active",
          "type": "bool"
        }
      ],
      "name": "TokenAdded",
      "type": "event"
    },
    {
      "anonymous": false,
      "inputs": [
        {
          "indexed": true,
          "internalType": "address",
          "name": "token",
          "type": "address"
        },
        {
          "indexed": false,
          "internalType": "bool",
          "name": "supported",
          "type": "bool"
        }
      ],
      "name": "TokenSupported",
      "type": "event"
    },
    {
      "anonymous": false,
      "inputs": [
        {
          "indexed": false,
          "internalType": "address",
          "name": "account",
          "type": "address"
        }
      ],
      "name": "Unpaused",
      "type": "event"
    },
    {
      "inputs": [],
      "name": "DISPUTE_TIMEOUT",
      "outputs": [
        {
          "internalType": "uint256",
          "name": "",
          "type": "uint256"
        }
      ],
      "stateMutability": "view",
      "type": "function"
    },
    {
      "inputs": [],
      "name": "ESCROW_TIMEOUT",
      "outputs": [
        {
          "internalType": "uint256",
          "name": "",
          "type": "uint256"
        }
      ],
      "stateMutability": "view",
      "type": "function"
    },
    {
      "inputs": [],
      "name": "PLATFORM_FEE_PERCENT",
      "outputs": [
        {
          "internalType": "uint256",
          "name": "",
          "type": "uint256"
        }
      ],
      "stateMutability": "view",
      "type": "function"
    },
    {
      "inputs": [
        {
          "internalType": "address",
          "name": "token",
          "type": "address"
        },
        {
          "internalType": "uint256",
          "name": "chainId",
          "type": "uint256"
        },
        {
          "internalType": "string",
          "name": "symbol",
          "type": "string"
        },
        {
          "internalType": "uint8",
          "name": "decimals",
          "type": "uint8"
        },
        {
          "internalType": "bool",
          "name": "active",
          "type": "bool"
        }
      ],
      "name": "addToken",
      "outputs": [],
      "stateMutability": "nonpayable",
      "type": "function"
    },
    {
      "inputs": [
        {
          "internalType": "uint256",
          "name": "escrowId",
          "type": "uint256"
        }
      ],
      "name": "cancelEscrow",
      "outputs": [],
      "stateMutability": "nonpayable",
      "type": "function"
    },
    {
      "inputs": [
        {
          "internalType": "address",
          "name": "seller",
          "type": "address"
        },
        {
          "internalType": "string",
          "name": "description",
          "type": "string"
        },
        {
          "internalType": "bytes32",
          "name": "metadataHash",
          "type": "bytes32"
        },
        {
          "components": [
            {
              "internalType": "uint256",
              "name": "amount",
              "type": "uint256"
            },
            {
              "internalType": "string",
              "name": "description",
              "type": "string"
            },
            {
              "internalType": "bool",
              "name": "completed",
              "type": "bool"
            },
            {
              "internalType": "uint256",
              "name": "completedAt",
              "type": "uint256"
            }
          ],
          "internalType": "struct ISynkioProtocol.Milestone[]",
          "name": "_milestones",
          "type": "tuple[]"
        },
        {
          "internalType": "address",
          "name": "token",
          "type": "address"
        },
        {
          "internalType": "uint256",
          "name": "amount",
          "type": "uint256"
        }
      ],
      "name": "createEscrow",
      "outputs": [
        {
          "internalType": "uint256",
          "name": "",
          "type": "uint256"
        }
      ],
      "stateMutability": "payable",
      "type": "function"
    },
    {
      "inputs": [],
      "name": "disputeResolution",
      "outputs": [
        {
          "internalType": "address",
          "name": "",
          "type": "address"
        }
      ],
      "stateMutability": "view",
      "type": "function"
    },
    {
      "inputs": [
        {
          "internalType": "uint256",
          "name": "",
          "type": "uint256"
        }
      ],
      "name": "disputes",
      "outputs": [
        {
          "internalType": "uint256",
          "name": "escrowId",
          "type": "uint256"
        },
        {
          "internalType": "address",
          "name": "initiator",
          "type": "address"
        },
        {
          "internalType": "string",
          "name": "reason",
          "type": "string"
        },
        {
          "internalType": "uint256",
          "name": "createdAt",
          "type": "uint256"
        },
        {
          "internalType": "enum ISynkioProtocol.DisputeStatus",
          "name": "status",
          "type": "uint8"
        },
        {
          "internalType": "address",
          "name": "arbitrator",
          "type": "address"
        }
      ],
      "stateMutability": "view",
      "type": "function"
    },
    {
      "inputs": [
        {
          "internalType": "uint256",
          "name": "",
          "type": "uint256"
        }
      ],
      "name": "escrows",
      "outputs": [
        {
          "internalType": "uint256",
          "name": "id",
          "type": "uint256"
        },
        {
          "internalType": "address",
          "name": "buyer",
          "type": "address"
        },
        {
          "internalType": "address",
          "name": "seller",
          "type": "address"
        },
        {
          "internalType": "uint256",
          "name": "amount",
          "type": "uint256"
        },
        {
          "internalType": "uint256",
          "name": "platformFee",
          "type": "uint256"
        },
        {
          "internalType": "uint256",
          "name": "createdAt",
          "type": "uint256"
        },
        {
          "internalType": "uint256",
          "name": "expiresAt",
          "type": "uint256"
        },
        {
          "internalType": "enum ISynkioProtocol.EscrowStatus",
          "name": "status",
          "type": "uint8"
        },
        {
          "internalType": "string",
          "name": "description",
          "type": "string"
        },
        {
          "internalType": "bytes32",
          "name": "metadataHash",
          "type": "bytes32"
        },
        {
          "internalType": "address",
          "name": "token",
          "type": "address"
        }
      ],
      "stateMutability": "view",
      "type": "function"
    },
    {
      "inputs": [
        {
          "internalType": "uint256",
          "name": "escrowId",
          "type": "uint256"
        }
      ],
      "name": "expireEscrow",
      "outputs": [],
      "stateMutability": "nonpayable",
      "type": "function"
    },
    {
      "inputs": [
        {
          "internalType": "uint256",
          "name": "escrowId",
          "type": "uint256"
        },
        {
          "internalType": "string",
          "name": "reason",
          "type": "string"
        }
      ],
      "name": "fileDispute",
      "outputs": [],
      "stateMutability": "nonpayable",
      "type": "function"
    },
    {
      "inputs": [
        {
          "internalType": "uint256",
          "name": "escrowId",
          "type": "uint256"
        }
      ],
      "name": "fundEscrow",
      "outputs": [],
      "stateMutability": "payable",
      "type": "function"
    },
    {
      "inputs": [
        {
          "internalType": "uint256",
          "name": "escrowId",
          "type": "uint256"
        }
      ],
      "name": "getDispute",
      "outputs": [
        {
          "components": [
            {
              "internalType": "uint256",
              "name": "escrowId",
              "type": "uint256"
            },
            {
              "internalType": "address",
              "name": "initiator",
              "type": "address"
            },
            {
              "internalType": "string",
              "name": "reason",
              "type": "string"
            },
            {
              "internalType": "uint256",
              "name": "createdAt",
              "type": "uint256"
            },
            {
              "internalType": "enum ISynkioProtocol.DisputeStatus",
              "name": "status",
              "type": "uint8"
            },
            {
              "internalType": "address",
              "name": "arbitrator",
              "type": "address"
            }
          ],
          "internalType": "struct ISynkioProtocol.Dispute",
          "name": "",
          "type": "tuple"
        }
      ],
      "stateMutability": "view",
      "type": "function"
    },
    {
      "inputs": [
        {
          "internalType": "uint256",
          "name": "escrowId",
          "type": "uint256"
        }
      ],
      "name": "getEscrow",
      "outputs": [
        {
          "components": [
            {
              "internalType": "uint256",
              "name": "id",
              "type": "uint256"
            },
            {
              "internalType": "address",
              "name": "buyer",
              "type": "address"
            },
            {
              "internalType": "address",
              "name": "seller",
              "type": "address"
            },
            {
              "internalType": "uint256",
              "name": "amount",
              "type": "uint256"
            },
            {
              "internalType": "uint256",
              "name": "platformFee",
              "type": "uint256"
            },
            {
              "internalType": "uint256",
              "name": "createdAt",
              "type": "uint256"
            },
            {
              "internalType": "uint256",
              "name": "expiresAt",
              "type": "uint256"
            },
            {
              "internalType": "enum ISynkioProtocol.EscrowStatus",
              "name": "status",
              "type": "uint8"
            },
            {
              "internalType": "string",
              "name": "description",
              "type": "string"
            },
            {
              "internalType": "bytes32",
              "name": "metadataHash",
              "type": "bytes32"
            },
            {
              "internalType": "address",
              "name": "token",
              "type": "address"
            }
          ],
          "internalType": "struct ISynkioProtocol.Escrow",
          "name": "",
          "type": "tuple"
        }
      ],
      "stateMutability": "view",
      "type": "function"
    },
    {
      "inputs": [
        {
          "internalType": "uint256",
          "name": "escrowId",
          "type": "uint256"
        }
      ],
      "name": "getMilestones",
      "outputs": [
        {
          "components": [
            {
              "internalType": "uint256",
              "name": "amount",
              "type": "uint256"
            },
            {
              "internalType": "string",
              "name": "description",
              "type": "string"
            },
            {
              "internalType": "bool",
              "name": "completed",
              "type": "bool"
            },
            {
              "internalType": "uint256",
              "name": "completedAt",
              "type": "uint256"
            }
          ],
          "internalType": "struct ISynkioProtocol.Milestone[]",
          "name": "",
          "type": "tuple[]"
        }
      ],
      "stateMutability": "view",
      "type": "function"
    },
    {
      "inputs": [
        {
          "internalType": "address",
          "name": "token",
          "type": "address"
        }
      ],
      "name": "getTokenInfo",
      "outputs": [
        {
          "components": [
            {
              "internalType": "address",
              "name": "token",
              "type": "address"
            },
            {
              "internalType": "uint256",
              "name": "chainId",
              "type": "uint256"
            },
            {
              "internalType": "string",
              "name": "symbol",
              "type": "string"
            },
            {
              "internalType": "uint8",
              "name": "decimals",
              "type": "uint8"
            },
            {
              "internalType": "bool",
              "name": "active",
              "type": "bool"
            }
          ],
          "internalType": "struct ISynkioProtocol.TokenInfo",
          "name": "",
          "type": "tuple"
        }
      ],
      "stateMutability": "view",
      "type": "function"
    },
    {
      "inputs": [
        {
          "internalType": "uint256",
          "name": "",
          "type": "uint256"
        },
        {
          "internalType": "uint256",
          "name": "",
          "type": "uint256"
        }
      ],
      "name": "milestones",
      "outputs": [
        {
          "internalType": "uint256",
          "name": "amount",
          "type": "uint256"
        },
        {
          "internalType": "string",
          "name": "description",
          "type": "string"
        },
        {
          "internalType": "bool",
          "name": "completed",
          "type": "bool"
        },
        {
          "internalType": "uint256",
          "name": "completedAt",
          "type": "uint256"
        }
      ],
      "stateMutability": "view",
      "type": "function"
    },
    {
      "inputs": [],
      "name": "nextEscrowId",
      "outputs": [
        {
          "internalType": "uint256",
          "name": "",
          "type": "uint256"
        }
      ],
      "stateMutability": "view",
      "type": "function"
    },
    {
      "inputs": [],
      "name": "owner",
      "outputs": [
        {
          "internalType": "address",
          "name": "",
          "type": "address"
        }
      ],
      "stateMutability": "view",
      "type": "function"
    },
    {
      "inputs": [],
      "name": "pause",
      "outputs": [],
      "stateMutability": "nonpayable",
      "type": "function"
    },
    {
      "inputs": [],
      "name": "paused",
      "outputs": [
        {
          "internalType": "bool",
          "name": "",
          "type": "bool"
        }
      ],
      "stateMutability": "view",
      "type": "function"
    },
    {
      "inputs": [],
      "name": "paymentProcessor",
      "outputs": [
        {
          "internalType": "address",
          "name": "",
          "type": "address"
        }
      ],
      "stateMutability": "view",
      "type": "function"
    },
    {
      "inputs": [
        {
          "internalType": "uint256",
          "name": "escrowId",
          "type": "uint256"
        },
        {
          "internalType": "uint256",
          "name": "milestoneIndex",
          "type": "uint256"
        }
      ],
      "name": "releasePayment",
      "outputs": [],
      "stateMutability": "nonpayable",
      "type": "function"
    },
    {
      "inputs": [],
      "name": "renounceOwnership",
      "outputs": [],
      "stateMutability": "nonpayable",
      "type": "function"
    },
    {
      "inputs": [],
      "name": "reputationRegistry",
      "outputs": [
        {
          "internalType": "address",
          "name": "",
          "type": "address"
        }
      ],
      "stateMutability": "view",
      "type": "function"
    },
    {
      "inputs": [
        {
          "internalType": "uint256",
          "name": "escrowId",
          "type": "uint256"
        },
        {
          "internalType": "bool",
          "name": "buyerWins",
          "type": "bool"
        }
      ],
      "name": "resolveDispute",
      "outputs": [],
      "stateMutability": "nonpayable",
      "type": "function"
    },
    {
      "inputs": [
        {
          "internalType": "address",
          "name": "_paymentProcessor",
          "type": "address"
        },
        {
          "internalType": "address",
          "name": "_reputationRegistry",
          "type": "address"
        },
        {
          "internalType": "address",
          "name": "_disputeResolution",
          "type": "address"
        }
      ],
      "name": "setContracts",
      "outputs": [],
      "stateMutability": "nonpayable",
      "type": "function"
    },
    {
      "inputs": [
        {
          "internalType": "address",
          "name": "token",
          "type": "address"
        },
        {
          "internalType": "bool",
          "name": "supported",
          "type": "bool"
        }
      ],
      "name": "setSupportedToken",
      "outputs": [],
      "stateMutability": "nonpayable",
      "type": "function"
    },
    {
      "inputs": [
        {
          "internalType": "address",
          "name": "",
          "type": "address"
        }
      ],
      "name": "supportedTokens",
      "outputs": [
        {
          "internalType": "bool",
          "name": "",
          "type": "bool"
        }
      ],
      "stateMutability": "view",
      "type": "function"
    },
    {
      "inputs": [
        {
          "internalType": "address",
          "name": "",
          "type": "address"
        }
      ],
      "name": "tokenInfo",
      "outputs": [
        {
          "internalType": "address",
          "name": "token",
          "type": "address"
        },
        {
          "internalType": "uint256",
          "name": "chainId",
          "type": "uint256"
        },
        {
          "internalType": "string",
          "name": "symbol",
          "type": "string"
        },
        {
          "internalType": "uint8",
          "name": "decimals",
          "type": "uint8"
        },
        {
          "internalType": "bool",
          "name": "active",
          "type": "bool"
        }
      ],
      "stateMutability": "view",
      "type": "function"
    },
    {
      "inputs": [],
      "name": "totalFees",
      "outputs": [
        {
          "internalType": "uint256",
          "name": "",
          "type": "uint256"
        }
      ],
      "stateMutability": "view",
      "type": "function"
    },
    {
      "inputs": [],
      "name": "totalVolume",
      "outputs": [
        {
          "internalType": "uint256",
          "name": "",
          "type": "uint256"
        }
      ],
      "stateMutability": "view",
      "type": "function"
    },
    {
      "inputs": [
        {
          "internalType": "address",
          "name": "newOwner",
          "type": "address"
        }
      ],
      "name": "transferOwnership",
      "outputs": [],
      "stateMutability": "nonpayable",
      "type": "function"
    },
    {
      "inputs": [],
      "name": "unpause",
      "outputs": [],
      "stateMutability": "nonpayable",
      "type": "function"
    },
    {
      "inputs": [
        {
          "internalType": "address",
          "name": "token",
          "type": "address"
        },
        {
          "internalType": "bool",
          "name": "active",
          "type": "bool"
        }
      ],
      "name": "updateTokenStatus",
      "outputs": [],
      "stateMutability": "nonpayable",
      "type": "function"
    },
    {
      "inputs": [
        {
          "internalType": "address",
          "name": "",
          "type": "address"
        }
      ],
      "name": "userEscrowCount",
      "outputs": [
        {
          "internalType": "uint256",
          "name": "",
          "type": "uint256"
        }
      ],
      "stateMutability": "view",
      "type": "function"
    },
    {
      "inputs": [],
      "name": "withdrawFees",
      "outputs": [],
      "stateMutability": "nonpayable",
      "type": "function"
    }
  ],
  "bytecode": "0x608060405260016002553480156200001657600080fd5b50600160005533806200004357604051631e4fbdf760e01b81526000600482015260240160405180910390fd5b6200004e8162000055565b50620000a7565b600180546001600160a01b038381166001600160a01b0319831681179093556040519116919082907f8be0079c531659141344cd1fd0a4f28419497f9722a3daafe3b4186f6b6457e090600090a35050565b613c4880620000b76000396000f3fe60806040526004361061021a5760003560e01c80637d19e59611610123578063be9157cf116100ab578063e79864661161006f578063e79864661461065e578063e81d78751461067e578063f1c6bdf81461069e578063f2fde38b146106be578063f5dab711146106de57600080fd5b8063be9157cf146105be578063c8db44e3146105de578063c9c31af5146105fe578063e018243614610611578063e3a96cbd1461063157600080fd5b80638da5cb5b116100f25780638da5cb5b1461050c578063900ed1781461053e57806397e99a801461055e578063b3066d491461057e578063bc3a868f1461059e57600080fd5b80637d19e596146104945780638243af1d146104c15780638456cb59146104e157806389cb29dd146104f657600080fd5b8063476343ee116101a65780635bf54728116101755780635bf54728146103fb5780635c975abb1461040e5780635f81a57c1461043957806368c4ac261461044f578063715018a61461047f57600080fd5b8063476343ee14610388578063486265c61461039d578063560d52d4146103b4578063564a565d146103c957600080fd5b80631f69565f116101ed5780631f69565f146102e057806330815eee1461030d57806334b25ee2146103245780633f4ba83a1461034657806342c549c01461035b57600080fd5b8063012f52ee1461021f57806313114a9d1461025f57806319ffa563146102835780631c376c63146102b0575b600080fd5b34801561022b57600080fd5b5061023f61023a366004613150565b61070f565b6040516102569b9a999897969594939291906131d9565b60405180910390f35b34801561026b57600080fd5b5061027560045481565b604051908152602001610256565b34801561028f57600080fd5b5061027561029e366004613270565b60086020526000908152604090205481565b3480156102bc57600080fd5b506102d06102cb366004613292565b61080b565b60405161025694939291906132b4565b3480156102ec57600080fd5b506103006102fb366004613270565b6108e4565b60405161025691906132e0565b34801561031957600080fd5b5061027562278d0081565b34801561033057600080fd5b5061034461033f36600461334d565b6109fb565b005b34801561035257600080fd5b50610344610df9565b34801561036757600080fd5b5061037b610376366004613150565b610e0b565b6040516102569190613379565b34801561039457600080fd5b50610344610f38565b3480156103a957600080fd5b5061027562093a8081565b3480156103c057600080fd5b5061027560fa81565b3480156103d557600080fd5b506103e96103e4366004613150565b611030565b60405161025696959493929190613416565b610275610409366004613547565b611104565b34801561041a57600080fd5b50600154600160a01b900460ff165b6040519015158152602001610256565b34801561044557600080fd5b5061027560035481565b34801561045b57600080fd5b5061042961046a366004613270565b60096020526000908152604090205460ff1681565b34801561048b57600080fd5b50610344611790565b3480156104a057600080fd5b506104b46104af366004613150565b6117a2565b60405161025691906136e7565b3480156104cd57600080fd5b506103446104dc3660046137a8565b611901565b3480156104ed57600080fd5b50610344611ca2565b34801561050257600080fd5b5061027560025481565b34801561051857600080fd5b506001546001600160a01b03165b6040516001600160a01b039091168152602001610256565b34801561054a57600080fd5b506103446105593660046137ef565b611cb2565b34801561056a57600080fd5b50610344610579366004613292565b611d93565b34801561058a57600080fd5b50610344610599366004613819565b61231e565b3480156105aa57600080fd5b506103446105b9366004613150565b612365565b3480156105ca57600080fd5b50600d54610526906001600160a01b031681565b3480156105ea57600080fd5b50600c54610526906001600160a01b031681565b61034461060c366004613150565b61250d565b34801561061d57600080fd5b5061034461062c366004613150565b61269d565b34801561063d57600080fd5b5061065161064c366004613150565b6129e8565b604051610256919061385c565b34801561066a57600080fd5b506103446106793660046137ef565b612b18565b34801561068a57600080fd5b506103446106993660046138ce565b612b78565b3480156106aa57600080fd5b50600b54610526906001600160a01b031681565b3480156106ca57600080fd5b506103446106d9366004613270565b612ce0565b3480156106ea57600080fd5b506106fe6106f9366004613270565b612d1e565b60405161025695949392919061394f565b600560208190526000918252604090912080546001820154600283015460038401546004850154958501546006860154600787015460088801805497996001600160a01b0397881699979096169794969394929360ff9092169261077290613992565b80601f016020809104026020016040519081016040528092919081815260200182805461079e90613992565b80156107eb5780601f106107c0576101008083540402835291602001916107eb565b820191906000526020600020905b8154815290600101906020018083116107ce57829003601f168201915b505050506009830154600a909301549192916001600160a01b031690508b565b6006602052816000526040600020818154811061082757600080fd5b90600052602060002090600402016000915091505080600001549080600101805461085190613992565b80601f016020809104026020016040519081016040528092919081815260200182805461087d90613992565b80156108ca5780601f1061089f576101008083540402835291602001916108ca565b820191906000526020600020905b8154815290600101906020018083116108ad57829003601f168201915b505050506002830154600390930154919260ff1691905084565b6040805160a080820183526000808352602080840182905260608486018190528401829052608084018290526001600160a01b038681168352600a825291859020855193840186528054909216835260018201549083015260028101805493949293919284019161095490613992565b80601f016020809104026020016040519081016040528092919081815260200182805461098090613992565b80156109cd5780601f106109a2576101008083540402835291602001916109cd565b820191906000526020600020905b8154815290600101906020018083116109b057829003601f168201915b50505091835250506003919091015460ff808216602084015261010090910416151560409091015292915050565b81600081118015610a0d575060025481105b610a325760405162461bcd60e51b8152600401610a29906139cc565b60405180910390fd5b600d546001600160a01b03163314610a8c5760405162461bcd60e51b815260206004820181905260248201527f4f6e6c792064697370757465207265736f6c7574696f6e20636f6e74726163746044820152606401610a29565b600083815260056020908152604080832060079092529091206003600783015460ff166005811115610ac057610ac0613169565b14610b015760405162461bcd60e51b81526020600482015260116024820152704e6f20616374697665206469737075746560781b6044820152606401610a29565b6000600482015460ff166003811115610b1c57610b1c613169565b14610b695760405162461bcd60e51b815260206004820152601860248201527f4469737075746520616c7265616479207265736f6c76656400000000000000006044820152606401610a29565b60048101805461010033026001600160a81b0319909116176002179055600084610ba05760028301546001600160a01b0316610baf565b60018301546001600160a01b03165b9050600085610bcb5760018401546001600160a01b0316610bda565b60028401546001600160a01b03165b600a8501549091506001600160a01b0316610c8b5760038401546040516000916001600160a01b038516918381818185875af1925050503d8060008114610c3d576040519150601f19603f3d011682016040523d82523d6000602084013e610c42565b606091505b5050905080610c855760405162461bcd60e51b815260206004820152600f60248201526e151c985b9cd9995c8819985a5b1959608a1b6044820152606401610a29565b50610cac565b6003840154600a850154610cac916001600160a01b03909116908490612de5565b60078401805460ff191660021790556040518615158152339088907f8fdd4548a8481406b6e29c0d6f25e27cd72502f79f4adf409468502e7920dabc9060200160405180910390a3600c546001600160a01b031615610df057600c5460038501546040516001620323d760e61b031981526001600160a01b03858116600483015260016024830152604482019290925291169063ff370a4090606401600060405180830381600087803b158015610d6257600080fd5b505af1158015610d76573d6000803e3d6000fd5b5050600c5460038701546040516001620323d760e61b031981526001600160a01b0386811660048301526000602483015260448201929092529116925063ff370a409150606401600060405180830381600087803b158015610dd757600080fd5b505af1158015610deb573d6000803e3d6000fd5b505050505b50505050505050565b610e01612e44565b610e09612e71565b565b606060066000838152602001908152602001600020805480602002602001604051908101604052809291908181526020016000905b82821015610f2d578382906000526020600020906004020160405180608001604052908160008201548152602001600182018054610e7d90613992565b80601f0160208091040260200160405190810160405280929190818152602001828054610ea990613992565b8015610ef65780601f10610ecb57610100808354040283529160200191610ef6565b820191906000526020600020905b815481529060010190602001808311610ed957829003601f168201915b5050509183525050600282015460ff1615156020808301919091526003909201546040909101529082526001929092019101610e40565b505050509050919050565b610f40612e44565b4780610f845760405162461bcd60e51b81526020600482015260136024820152724e6f206665657320746f20776974686472617760681b6044820152606401610a29565b6000610f986001546001600160a01b031690565b6001600160a01b03168260405160006040518083038185875af1925050503d8060008114610fe2576040519150601f19603f3d011682016040523d82523d6000602084013e610fe7565b606091505b505090508061102c5760405162461bcd60e51b815260206004820152601160248201527015da5d1a191c985dd85b0819985a5b1959607a1b6044820152606401610a29565b5050565b60076020526000908152604090208054600182015460028301805492936001600160a01b039092169261106290613992565b80601f016020809104026020016040519081016040528092919081815260200182805461108e90613992565b80156110db5780601f106110b0576101008083540402835291602001916110db565b820191906000526020600020905b8154815290600101906020018083116110be57829003601f168201915b50505050600383015460049093015491929160ff8116915061010090046001600160a01b031686565b600061110e612ec6565b826001600160a01b038116158061113d57506001600160a01b03811660009081526009602052604090205460ff165b6111955760405162461bcd60e51b815260206004820152602360248201527f546f6b656e206e6f7420737570706f72746564206f6e2042617365205365706f6044820152626c696160e81b6064820152608401610a29565b6001600160a01b0388166111dc5760405162461bcd60e51b815260206004820152600e60248201526d24b73b30b634b21039b2b63632b960911b6044820152606401610a29565b336001600160a01b038916036112345760405162461bcd60e51b815260206004820152601760248201527f43616e6e6f7420657363726f7720776974682073656c660000000000000000006044820152606401610a29565b6000806001600160a01b038616801515906112c457600034116112995760405162461bcd60e51b815260206004820152601d60248201527f416d6f756e74206d7573742062652067726561746572207468616e20300000006044820152606401610a29565b6127106112a760fa34613a0a565b6112b19190613a27565b91506112bd8234613a49565b92506113ad565b600086116113145760405162461bcd60e51b815260206004820152601d60248201527f416d6f756e74206d7573742062652067726561746572207468616e20300000006044820152606401610a29565b6001600160a01b03871660009081526009602052604090205460ff166113725760405162461bcd60e51b8152602060048201526013602482015272151bdad95b881b9bdd081cdd5c1c1bdc9d1959606a1b6044820152606401610a29565b61271061138060fa88613a0a565b61138a9190613a27565b91506113968287613a49565b92506113ad6001600160a01b038816333089612ef1565b60028054600091826113be83613a5c565b919050559050604051806101600160405280828152602001336001600160a01b031681526020018d6001600160a01b0316815260200185815260200184815260200142815260200162278d00426114159190613a75565b815260200183611426576000611429565b60015b600581111561143a5761143a613169565b815260208082018e905260408083018e90526001600160a01b03808d1660609485015260008681526005808552908390208651815593860151600180860180549285166001600160a01b031993841617905593870151600286018054919094169116179091559284015160038301556080840151600483015560a08401518284015560c0840151600683015560e084015160078301805493949193909260ff199091169184908111156114ef576114ef613169565b021790555061010082015160088201906115099082613ad6565b50610120820151600982015561014090910151600a90910180546001600160a01b0319166001600160a01b03909216919091179055885115611679576000805b8a518110156116145760008381526006602052604090208b518c908390811061157457611574613b96565b60209081029190910181015182546001818101855560009485529383902082516004909202019081559181015190928201906115b09082613ad6565b50604082015160028201805460ff19169115159190911790556060909101516003909101558a518b90829081106115e9576115e9613b96565b602002602001015160000151826116009190613a75565b91508061160c81613a5c565b915050611549565b508481146116775760405162461bcd60e51b815260206004820152602a60248201527f4d696c6573746f6e6520616d6f756e7473206d75737420657175616c206573636044820152691c9bddc8185b5bdd5b9d60b21b6064820152608401610a29565b505b33600090815260086020526040812080549161169483613a5c565b90915550506001600160a01b038c1660009081526008602052604081208054916116bd83613a5c565b9190505550816116cd57346116cf565b865b600360008282546116e09190613a75565b9250508190555082600460008282546116f99190613a75565b90915550506040518481526001600160a01b038d1690339083907f9405ad0a6208539879349284d71265479b1623846f70303da1f9890d6e8c10a79060200160405180910390a4811561178157807f911052e1be46242b46bf3c2762227ff37c000e5fe38727638096f3a17fbfe1708860405161177891815260200190565b60405180910390a25b9b9a5050505050505050505050565b611798612e44565b610e096000612f2a565b6117aa613084565b6000828152600560208181526040928390208351610160810185528154815260018201546001600160a01b039081169382019390935260028201549092169382019390935260038301546060820152600483015460808201528282015460a0820152600683015460c0820152600783015490929160e084019160ff169081111561183657611836613169565b600581111561184757611847613169565b815260200160088201805461185b90613992565b80601f016020809104026020016040519081016040528092919081815260200182805461188790613992565b80156118d45780601f106118a9576101008083540402835291602001916118d4565b820191906000526020600020905b8154815290600101906020018083116118b757829003601f168201915b505050918352505060098201546020820152600a909101546001600160a01b031660409091015292915050565b81600081118015611913575060025481105b61192f5760405162461bcd60e51b8152600401610a29906139cc565b60008381526005602081815260408084208151610160810183528154815260018201546001600160a01b039081169482019490945260028201549093169183019190915260038101546060830152600481015460808301528083015460a0830152600681015460c0830152600781015487949360e084019160ff16908111156119ba576119ba613169565b60058111156119cb576119cb613169565b81526020016008820180546119df90613992565b80601f0160208091040260200160405190810160405280929190818152602001828054611a0b90613992565b8015611a585780601f10611a2d57610100808354040283529160200191611a58565b820191906000526020600020905b815481529060010190602001808311611a3b57829003601f168201915b50505091835250506009820154602080830191909152600a909201546001600160a01b039081166040909201919091529082015191925016331480611ab2575080604001516001600160a01b0316336001600160a01b0316145b611ace5760405162461bcd60e51b8152600401610a2990613bac565b60008581526005602052604090206001600782015460ff166005811115611af757611af7613169565b14611b145760405162461bcd60e51b8152600401610a2990613bd4565b60008681526007602052604090206003015415611b6b5760405162461bcd60e51b8152602060048201526015602482015274111a5cdc1d5d1948185b1c9958591e48199a5b1959605a1b6044820152606401610a29565b6040805160c0810182528781523360208201529081018690524260608201526080810160008152600060209182018190528881526007825260409081902083518155918301516001830180546001600160a01b0319166001600160a01b039092169190911790558201516002820190611be49082613ad6565b506060820151816003015560808201518160040160006101000a81548160ff02191690836003811115611c1957611c19613169565b021790555060a0919091015160049091018054610100600160a81b0319166101006001600160a01b039093169290920291909117905560078101805460ff19166003179055604051339087907fc523357a17c19a0da11b08e9f4d7e4fbed304cbe1be1d3583e4d5a677d75d70990611c92908990613bff565b60405180910390a3505050505050565b611caa612e44565b610e09612f7c565b611cba612e44565b6001600160a01b038281166000908152600a602052604090205416611d185760405162461bcd60e51b8152602060048201526014602482015273151bdad95b881b9bdd081c9959da5cdd195c995960621b6044820152606401610a29565b6001600160a01b0382166000818152600a60209081526040808320600301805461ff001916610100871515908102919091179091556009835292819020805460ff191684179055519182527fd86c88b4a367d9b81a6e00c9d3f7d01657bffef358fa8968c91c045ae99f0d5291015b60405180910390a25050565b81600081118015611da5575060025481105b611dc15760405162461bcd60e51b8152600401610a29906139cc565b60008381526005602081815260408084208151610160810183528154815260018201546001600160a01b039081169482019490945260028201549093169183019190915260038101546060830152600481015460808301528083015460a0830152600681015460c0830152600781015487949360e084019160ff1690811115611e4c57611e4c613169565b6005811115611e5d57611e5d613169565b8152602001600882018054611e7190613992565b80601f0160208091040260200160405190810160405280929190818152602001828054611e9d90613992565b8015611eea5780601f10611ebf57610100808354040283529160200191611eea565b820191906000526020600020905b815481529060010190602001808311611ecd57829003601f168201915b50505091835250506009820154602080830191909152600a909201546001600160a01b039081166040909201919091529082015191925016331480611f44575080604001516001600160a01b0316336001600160a01b0316145b611f605760405162461bcd60e51b8152600401610a2990613bac565b611f68612fbf565b60008581526005602052604090206001600782015460ff166005811115611f9157611f91613169565b14611fae5760405162461bcd60e51b8152600401610a2990613bd4565b8060060154421115611ff35760405162461bcd60e51b815260206004820152600e60248201526d115cd8dc9bddc8195e1c1a5c995960921b6044820152606401610a29565b600086815260066020526040812054156120fd5760008781526006602052604090205486106120585760405162461bcd60e51b8152602060048201526011602482015270496e76616c6964206d696c6573746f6e6560781b6044820152606401610a29565b600087815260066020526040812080548890811061207857612078613b96565b60009182526020909120600490910201600281015490915060ff16156120e05760405162461bcd60e51b815260206004820152601b60248201527f4d696c6573746f6e6520616c726561647920636f6d706c6574656400000000006044820152606401610a29565b60028101805460ff1916600117905542600382015554905061217b565b60018201546001600160a01b031633146121655760405162461bcd60e51b815260206004820152602360248201527f4f6e6c792062757965722063616e2072656c656173652066756c6c207061796d604482015262195b9d60ea1b6064820152608401610a29565b50600381015460078201805460ff191660021790555b600a8201546001600160a01b031661222a5760028201546040516000916001600160a01b03169083908381818185875af1925050503d80600081146121dc576040519150601f19603f3d011682016040523d82523d6000602084013e6121e1565b606091505b50509050806122245760405162461bcd60e51b815260206004820152600f60248201526e151c985b9cd9995c8819985a5b1959608a1b6044820152606401610a29565b5061224b565b6002820154600a83015461224b916001600160a01b03918216911683612de5565b867ff487d4e13e32569d69ec2608b5b1530450d715b84e0c81d0077b5b7e766db1d18260405161227d91815260200190565b60405180910390a2600c546001600160a01b03161561230b57600c5460028301546040516001620323d760e61b031981526001600160a01b039182166004820152600160248201526044810184905291169063ff370a4090606401600060405180830381600087803b1580156122f257600080fd5b505af1158015612306573d6000803e3d6000fd5b505050505b50506123176001600055565b5050505050565b612326612e44565b600b80546001600160a01b039485166001600160a01b031991821617909155600c805493851693821693909317909255600d8054919093169116179055565b80600081118015612377575060025481105b6123935760405162461bcd60e51b8152600401610a29906139cc565b60008281526005602052604090206001600782015460ff1660058111156123bc576123bc613169565b146123d95760405162461bcd60e51b8152600401610a2990613bd4565b806006015442116124215760405162461bcd60e51b8152602060048201526012602482015271115cd8dc9bddc81b9bdd08195e1c1a5c995960721b6044820152606401610a29565b60078101805460ff19166005179055600a8101546001600160a01b03166124e157600181015460038201546040516000926001600160a01b031691908381818185875af1925050503d8060008114612495576040519150601f19603f3d011682016040523d82523d6000602084013e61249a565b606091505b50509050806124db5760405162461bcd60e51b815260206004820152600d60248201526c1499599d5b990819985a5b1959609a1b6044820152606401610a29565b50505050565b60018101546003820154600a830154612508926001600160a01b0391821692911690612de5565b505050565b8060008111801561251f575060025481105b61253b5760405162461bcd60e51b8152600401610a29906139cc565b612543612ec6565b600082815260056020526040812090600782015460ff16600581111561256b5761256b613169565b146125ad5760405162461bcd60e51b8152602060048201526012602482015271457363726f77206e6f742070656e64696e6760701b6044820152606401610a29565b60018101546001600160a01b031633146125ff5760405162461bcd60e51b815260206004820152601360248201527213db9b1e48189d5e595c8818d85b88199d5b99606a1b6044820152606401610a29565b806004015481600301546126139190613a75565b34146126545760405162461bcd60e51b815260206004820152601060248201526f125b98dbdc9c9958dd08185b5bdd5b9d60821b6044820152606401610a29565b60078101805460ff1916600117905560405134815283907f911052e1be46242b46bf3c2762227ff37c000e5fe38727638096f3a17fbfe1709060200160405180910390a2505050565b806000811180156126af575060025481105b6126cb5760405162461bcd60e51b8152600401610a29906139cc565b60008281526005602081815260408084208151610160810183528154815260018201546001600160a01b039081169482019490945260028201549093169183019190915260038101546060830152600481015460808301528083015460a0830152600681015460c0830152600781015486949360e084019160ff169081111561275657612756613169565b600581111561276757612767613169565b815260200160088201805461277b90613992565b80601f01602080910402602001604051908101604052809291908181526020018280546127a790613992565b80156127f45780601f106127c9576101008083540402835291602001916127f4565b820191906000526020600020905b8154815290600101906020018083116127d757829003601f168201915b50505091835250506009820154602080830191909152600a909201546001600160a01b03908116604090920191909152908201519192501633148061284e575080604001516001600160a01b0316336001600160a01b0316145b61286a5760405162461bcd60e51b8152600401610a2990613bac565b600084815260056020526040812090600782015460ff16600581111561289257612892613169565b146128df5760405162461bcd60e51b815260206004820152601b60248201527f43616e6e6f742063616e63656c2066756e64656420657363726f7700000000006044820152606401610a29565b60078101805460ff19166004179055600a8101546001600160a01b03166129ad576001810154600482015460038301546000926001600160a01b03169161292591613a75565b604051600081818185875af1925050503d8060008114612961576040519150601f19603f3d011682016040523d82523d6000602084013e612966565b606091505b50509050806129a75760405162461bcd60e51b815260206004820152600d60248201526c1499599d5b990819985a5b1959609a1b6044820152606401610a29565b50612317565b600181015460048201546003830154612317926001600160a01b0316916129d391613a75565b600a8401546001600160a01b03169190612de5565b6129f0613100565b600082815260076020908152604091829020825160c0810184528154815260018201546001600160a01b0316928101929092526002810180549293919291840191612a3a90613992565b80601f0160208091040260200160405190810160405280929190818152602001828054612a6690613992565b8015612ab35780601f10612a8857610100808354040283529160200191612ab3565b820191906000526020600020905b815481529060010190602001808311612a9657829003601f168201915b50505091835250506003828101546020830152600483015460409092019160ff1690811115612ae457612ae4613169565b6003811115612af557612af5613169565b81526004919091015461010090046001600160a01b031660209091015292915050565b612b20612e44565b6001600160a01b038216600081815260096020908152604091829020805460ff191685151590811790915591519182527fd86c88b4a367d9b81a6e00c9d3f7d01657bffef358fa8968c91c045ae99f0d529101611d87565b612b80612e44565b6001600160a01b038516612bce5760405162461bcd60e51b8152602060048201526015602482015274496e76616c696420746f6b656e206164647265737360581b6044820152606401610a29565b6040805160a0810182526001600160a01b03878116808352602080840189815284860189815260ff8916606087015287151560808701526000938452600a90925294909120835181546001600160a01b03191693169290921782559251600182015591519091906002820190612c449082613ad6565b5060608201516003909101805460809093015115156101000261ffff1990931660ff909216919091179190911790556001600160a01b03851660008181526009602052604090819020805484151560ff1991909116179055518591907f0e8d2a0dd461f1afbb33378aa83c1b9a8a883dc54fed83a43b1e14561b33edef90612cd190851515815260200190565b60405180910390a35050505050565b612ce8612e44565b6001600160a01b038116612d1257604051631e4fbdf760e01b815260006004820152602401610a29565b612d1b81612f2a565b50565b600a602052600090815260409020805460018201546002830180546001600160a01b03909316939192612d5090613992565b80601f0160208091040260200160405190810160405280929190818152602001828054612d7c90613992565b8015612dc95780601f10612d9e57610100808354040283529160200191612dc9565b820191906000526020600020905b815481529060010190602001808311612dac57829003601f168201915b5050506003909301549192505060ff8082169161010090041685565b6040516001600160a01b0383811660248301526044820183905261250891859182169063a9059cbb906064015b604051602081830303815290604052915060e01b6020820180516001600160e01b038381831617835250505050612fe9565b6001546001600160a01b03163314610e095760405163118cdaa760e01b8152336004820152602401610a29565b612e7961305a565b6001805460ff60a01b191690557f5db9ee0a495bf2e6ff9c91a7834c1ba4fdd244a5e8aa4e537bd38aeae4b073aa335b6040516001600160a01b03909116815260200160405180910390a1565b600154600160a01b900460ff1615610e095760405163d93c066560e01b815260040160405180910390fd5b6040516001600160a01b0384811660248301528381166044830152606482018390526124db9186918216906323b872dd90608401612e12565b600180546001600160a01b038381166001600160a01b0319831681179093556040519116919082907f8be0079c531659141344cd1fd0a4f28419497f9722a3daafe3b4186f6b6457e090600090a35050565b612f84612ec6565b6001805460ff60a01b1916600160a01b1790557f62e78cea01bee320cd4e420270b5ea74000d11b0c9f74754ebdbfc544b05a258612ea93390565b600260005403612fe257604051633ee5aeb560e01b815260040160405180910390fd5b6002600055565b600080602060008451602086016000885af18061300c576040513d6000823e3d81fd5b50506000513d91508115613024578060011415613031565b6001600160a01b0384163b155b156124db57604051635274afe760e01b81526001600160a01b0385166004820152602401610a29565b600154600160a01b900460ff16610e0957604051638dfc202b60e01b815260040160405180910390fd5b6040518061016001604052806000815260200160006001600160a01b0316815260200160006001600160a01b0316815260200160008152602001600081526020016000815260200160008152602001600060058111156130e6576130e6613169565b815260606020820181905260006040830181905291015290565b6040518060c001604052806000815260200160006001600160a01b0316815260200160608152602001600081526020016000600381111561314357613143613169565b8152600060209091015290565b60006020828403121561316257600080fd5b5035919050565b634e487b7160e01b600052602160045260246000fd5b6006811061318f5761318f613169565b9052565b6000815180845260005b818110156131b95760208185018101518683018201520161319d565b506000602082860101526020601f19601f83011685010191505092915050565b60006101608d835260018060a01b03808e166020850152808d1660408501528b60608501528a60808501528960a08501528860c085015261321d60e085018961317f565b8161010085015261323082850188613193565b92508561012085015280851661014085015250509c9b505050505050505050505050565b80356001600160a01b038116811461326b57600080fd5b919050565b60006020828403121561328257600080fd5b61328b82613254565b9392505050565b600080604083850312156132a557600080fd5b50508035926020909101359150565b8481526080602082015260006132cd6080830186613193565b9315156040830152506060015292915050565b6020815260018060a01b038251166020820152602082015160408201526000604083015160a0606084015261331860c0840182613193565b905060ff60608501511660808401526080840151151560a08401528091505092915050565b8035801515811461326b57600080fd5b6000806040838503121561336057600080fd5b823591506133706020840161333d565b90509250929050565b60006020808301818452808551808352604092508286019150828160051b87010184880160005b838110156133f857603f19898403018552815160808151855288820151818a8701526133ce82870182613193565b838a01511515878b01526060938401519390960192909252505093860193908601906001016133a0565b509098975050505050505050565b6004811061318f5761318f613169565b868152600060018060a01b03808816602084015260c0604084015261343e60c0840188613193565b91508560608401526134536080840186613406565b80841660a084015250979650505050505050565b634e487b7160e01b600052604160045260246000fd5b6040516080810167ffffffffffffffff811182821017156134a0576134a0613467565b60405290565b604051601f8201601f1916810167ffffffffffffffff811182821017156134cf576134cf613467565b604052919050565b600082601f8301126134e857600080fd5b813567ffffffffffffffff81111561350257613502613467565b613515601f8201601f19166020016134a6565b81815284602083860101111561352a57600080fd5b816020850160208301376000918101602001919091529392505050565b60008060008060008060c0878903121561356057600080fd5b61356987613254565b955067ffffffffffffffff6020880135111561358457600080fd5b61359488602089013589016134d7565b94506040870135935067ffffffffffffffff606088013511156135b657600080fd5b6060870135870188601f8201126135cc57600080fd5b67ffffffffffffffff813511156135e5576135e5613467565b6135f56020823560051b016134a6565b81358082526020808301929160051b8401018b101561361357600080fd5b602083015b6020843560051b8501018110156136c25767ffffffffffffffff8135111561363f57600080fd5b803584016080818e03601f1901121561365757600080fd5b61365f61347d565b6020820135815267ffffffffffffffff6040830135111561367f57600080fd5b6136928e602060408501358501016134d7565b60208201526136a36060830161333d565b6040820152608091909101356060820152835260209283019201613618565b5094506136d491505060808801613254565b915060a087013590509295509295509295565b60208152815160208201526000602083015161370e60408401826001600160a01b03169052565b5060408301516001600160a01b03811660608401525060608301516080830152608083015160a083015260a083015160c083015260c083015160e083015260e08301516101006137608185018361317f565b808501519150506101606101208181860152613780610180860184613193565b9086015161014086810191909152909501516001600160a01b03169301929092525090919050565b600080604083850312156137bb57600080fd5b82359150602083013567ffffffffffffffff8111156137d957600080fd5b6137e5858286016134d7565b9150509250929050565b6000806040838503121561380257600080fd5b61380b83613254565b91506133706020840161333d565b60008060006060848603121561382e57600080fd5b61383784613254565b925061384560208501613254565b915061385360408501613254565b90509250925092565b60208082528251828201528201516001600160a01b0390811660408084019190915283015160c0606084015260009161389860e0850183613193565b91506060850151608085015260808501516138b660a0860182613406565b508060a08601511660c0850152508091505092915050565b600080600080600060a086880312156138e657600080fd5b6138ef86613254565b945060208601359350604086013567ffffffffffffffff81111561391257600080fd5b61391e888289016134d7565b935050606086013560ff8116811461393557600080fd5b91506139436080870161333d565b90509295509295909350565b60018060a01b038616815284602082015260a06040820152600061397660a0830186613193565b60ff949094166060830152509015156080909101529392505050565b600181811c908216806139a657607f821691505b6020821081036139c657634e487b7160e01b600052602260045260246000fd5b50919050565b6020808252600e908201526d496e76616c696420657363726f7760901b604082015260600190565b634e487b7160e01b600052601160045260246000fd5b8082028115828204841417613a2157613a216139f4565b92915050565b600082613a4457634e487b7160e01b600052601260045260246000fd5b500490565b81810381811115613a2157613a216139f4565b600060018201613a6e57613a6e6139f4565b5060010190565b80820180821115613a2157613a216139f4565b601f82111561250857600081815260208120601f850160051c81016020861015613aaf5750805b601f850160051c820191505b81811015613ace57828155600101613abb565b505050505050565b815167ffffffffffffffff811115613af057613af0613467565b613b0481613afe8454613992565b84613a88565b602080601f831160018114613b395760008415613b215750858301515b600019600386901b1c1916600185901b178555613ace565b600085815260208120601f198616915b82811015613b6857888601518255948401946001909101908401613b49565b5085821015613b865787850151600019600388901b60f8161c191681555b5050505050600190811b01905550565b634e487b7160e01b600052603260045260246000fd5b6020808252600e908201526d139bdd08185d5d1a1bdc9a5e995960921b604082015260600190565b602080825260119082015270115cd8dc9bddc81b9bdd08199d5b991959607a1b604082015260600190565b60208152600061328b602083018461319356fea2646970667358221220320a50cae7080c9f91b5877f8048a437746c85c4056cba9864810a1405f48b3f64736f6c63430008140033",
  "linkReferences": {},
  "deployedLinkReferences": {}
}